:0200000280007C
:100000003DB8F3960000000000020000F806020070
:1000100000000000000000000000000000000000E0
:10002000FFFFFFFFFFFFFFFFFFFFFFFFFFFFFFFFE0
:10003000FFFFFFFFFFFFFFFFFFFFFFFFFFFFFFFFD0
:10004000FFFFFFFFFFFFFFFFFFFFFFFFFFFFFFFFC0
:10005000FFFFFFFFFFFFFFFFFFFFFFFFFFFFFFFFB0
:10006000FFFFFFFFFFFFFFFFFFFFFFFFFFFFFFFFA0
:10007000FFFFFFFFFFFFFFFFFFFFFFFFFFFFFFFF90
:10008000FFFFFFFFFFFFFFFFFFFFFFFFFFFFFFFF80
:10009000FFFFFFFFFFFFFFFFFFFFFFFFFFFFFFFF70
:1000A000FFFFFFFFFFFFFFFFFFFFFFFFFFFFFFFF60
:1000B000FFFFFFFFFFFFFFFFFFFFFFFFFFFFFFFF50
:1000C000FFFFFFFFFFFFFFFFFFFFFFFFFFFFFFFF40
:1000D000FFFFFFFFFFFFFFFFFFFFFFFFFFFFFFFF30
:1000E000FFFFFFFFFFFFFFFFFFFFFFFFFFFFFFFF20
:1000F000FFFFFFFFFFFFFFFFFFFFFFFFFFFFFFFF10
:10010000FFFFFFFFFFFFFFFFFFFFFFFFFFFFFFFFFF
:10011000FFFFFFFFFFFFFFFFFFFFFFFFFFFFFFFFEF
:10012000FFFFFFFFFFFFFFFFFFFFFFFFFFFFFFFFDF
:10013000FFFFFFFFFFFFFFFFFFFFFFFFFFFFFFFFCF
:10014000FFFFFFFFFFFFFFFFFFFFFFFFFFFFFFFFBF
:10015000FFFFFFFFFFFFFFFFFFFFFFFFFFFFFFFFAF
:10016000FFFFFFFFFFFFFFFFFFFFFFFFFFFFFFFF9F
:10017000FFFFFFFFFFFFFFFFFFFFFFFFFFFFFFFF8F
:10018000FFFFFFFFFFFFFFFFFFFFFFFFFFFFFFFF7F
:10019000FFFFFFFFFFFFFFFFFFFFFFFFFFFFFFFF6F
:1001A000FFFFFFFFFFFFFFFFFFFFFFFFFFFFFFFF5F
:1001B000FFFFFFFFFFFFFFFFFFFFFFFFFFFFFFFF4F
:1001C000FFFFFFFFFFFFFFFFFFFFFFFFFFFFFFFF3F
:1001D000FFFFFFFFFFFFFFFFFFFFFFFFFFFFFFFF2F
:1001E000FFFFFFFFFFFFFFFFFFFFFFFFFFFFFFFF1F
:1001F000FFFFFFFFFFFFFFFFFFFFFFFFFFFFFFFF0F
:1002000090800020DD02010003350200B1020100F0
:10021000B1020100B1020100B1020100B10201000E
:100220000000000000000000000000009DFD000034
:10023000B10201000000000045FD0000B102010014
:100240001DFE00001DFE00001DFE00001DFE000042
:100250001DFE00001DFE00001DFE00001DFE000032
:100260001DFE00001DFE00001DFE00001DFE000022
:100270001DFE00001DFE00001DFE00001DFE000012
:100280001DFE00001DFE00001DFE00001DFE000002
:100290001DFE00001DFE00001DFE00001DFE0000F2
:1002A0001DFE00001DFE00001DFE00001DFE0000E2
:1002B0001DFE00001DFE00001DFE00001DFE0000D2
:1002C0001DFE00001DFE00001DFE00001DFE0000C2
:1002D0001DFE00001DFE00001DFE00001DFE0000B2
:1002E0001DFE00001DFE00001DFE00001DFE0000A2
:1002F0001DFE00001DFE00001DFE00001DFE000092
:100300001DFE00001DFE00001DFE00001DFE000081
:100310001DFE00001DFE00001DFE00001DFE000071
:100320001DFE00001DFE00001DFE00001DFE000061
:100330001DFE00001DFE00001DFE00001DFE000051
:100340001DFE00001DFE00001DFE00001DFE000041
:100350001DFE0000FFFFFFFF53B94AB9002908BF87
:1003600000281CBF4FF0FF314FF0FF3000F00CB8F9
:10037000ADF1080C6DE904CE00F008F8DDF804E0FA
:10038000DDE9022304B07047704700BF2DE9F04754
:1003900086468C460846089E154674461946002B2C
:1003A00040F0C1808542B2FA82F245D94AB1C2F129
:1003B000200300FA02FC954094402EFA03F343EA2E
:1003C0000C0C4FEA154EA8B2230CBCFBFEF80EFB3A
:1003D00018CC08FB00F943EA0C43994528D9EB18DF
:1003E00008F1FF3704D2994502D9A8F102072B443E
:1003F000A3EB0903A4B2B3FBFEFC0EFB1C330CFB06
:1004000000F044EA0344A04214D92C190CF1FF3344
:1004100004D2A04202D9ACF102032C44241A43EACC
:1004200007401EB1D440002334607360BDE8F087FC
:100430004746DDE76346F1E792BB431B01214FEAE4
:10044000154EAFB2200CB3FBFEFC0EFB1C330CFBB5
:1004500007F840EA0343984561D9EB180CF1FF30E7
:1004600004D2984502D9ACF102002B44A3EB080357
:10047000A4B2B3FBFEFC0EFB1C330CFB07F744EAF3
:100480000344A7424DD92C190CF1FF3304D2A742E3
:1004900002D9ACF102032C44E41B43EA0040C0E75C
:1004A000C2F120039540944020FA03F12EFA03F3A1
:1004B0004FEA154E9040AFB20343B1FBFEFC0EFB7A
:1004C0001C10190C0CFB07F841EA0041884522D9A1
:1004D00069180CF1FF3004D2884502D9ACF1020052
:1004E0002944A1EB08019BB2B1FBFEFC0EFB1C11E1
:1004F0000CFB07F743EA01439F420ED9EB180CF1BE
:10050000FF3104D29F4202D9ACF102012B44DB1B24
:1005100041EA004193E76046E3E76146F7E760465A
:10052000A4E76346B8E7834206D916B90021084616
:100530007CE7C6E900E0F9E7B3FA83F78FB98342B5
:1005400001D3724508D8BEEB020460EB030301201F
:100550009C461EB9002169E73846FAE7C6E9004C17
:10056000F8E7C7F1200CBB400EFA07F522FA0CF4AD
:100570002EFA0CF1BA401C4320FA0CF3B8404FEAB3
:10058000144901431FFA84FEB3FBF9F809FB183044
:100590000B0C08FB0EFA43EA00439A4540D9E318D6
:1005A00008F1FF3004D29A4502D9A8F10200234491
:1005B000A3EB0A0389B2B3FBF9F809FB183308FB74
:1005C0000EFE41EA03418E452CD9611808F1FF3334
:1005D00004D28E4502D9A8F10203214443EA004027
:1005E000A1EB0E01A0FB02984145CE46434602D343
:1005F00006D14D4504D20138B9EB020E68EB040375
:10060000002EA7D0B5EB0E0261EB030101FA0CFC42
:1006100022FA07F3F9404CEA0303C6E9003199E7EF
:100620004046C5E74346D9E72DE9F3415B4DD5F890
:100630006031996811F001011AD140F6034001AA16
:1006400004F02EFE0446002840F0A3800198C36801
:100650001B785BB905F1CC03D3E8AF2F02F0090298
:10066000D3E8EF1FC3E8E42F002CF9D10DF03AF8DE
:10067000002141F2030001AA04F012FE0446002802
:1006800040F08780019E0822F1684548013117F04B
:1006900037F830460DF026F8214641F2010001AA54
:1006A00004F0FEFD0446002873D10198C3685A780F
:1006B00085F868205A88A5F86A201A7985F8692093
:1006C000B3F80720A5F86C20B3F80530A5F86E3014
:1006D0000DF008F8214641F2020001AA04F0E0FD05
:1006E0000446002855D1019C4022E1682D48013183
:1006F00017F006F820460CF0F5FF06F007FA04465E
:10070000002846D195F882309A0638D5072140F660
:10071000334004F07BFD0746002800F04D8107219F
:100720000C300DF0E5F821460722064616F0F3FFDF
:100730006FF009034FF0010833700623224634712D
:10074000394640F6334086F80180F37004F0A8FD86
:100750000446F0B9414640F6314004F057FD0646E4
:10076000002800F0298141460C3019F08FFB224609
:10077000314640F6314004F093FD044648B995F8FF
:1007800074305B0612D44521074815F072FC6FF0F7
:100790001204204602B0BDE8F08100BF0020002016
:1007A0007020002078200020109E0200002142F2DC
:1007B000030001AA04F074FD04460028E9D1019E5B
:1007C0000822F168B848013116F09AFF30460CF063
:1007D00089FF214642F2020001AA04F061FD0446AD
:1007E0000028D6D1019CE368B3F8012091B2A5F8A6
:1007F000FC2021B1DA78AD4811461AF061FF20469D
:100800000CF070FF95F8746016F0200618D10221E4
:1008100040F66D4004F0FAFC0446002800F0CC805D
:1008200002210C300DF064F801232146037046705C
:10083000324640F66D4004F033FD04460028A8D14E
:1008400095F894301F0712D5002142F21C0001AA2E
:1008500004F026FD044600289BD10198C368D3F814
:100860000120D3F80530C5E936230CF03BFF95F89D
:10087000D0309E0624D568460DF1020104F068FDD3
:100880000446002885D1042142F2240004F0BEFC75
:100890000646002800F0908004210C300DF028F866
:1008A000BDF8003022460380BDF802303146438057
:1008B00042F2240004F0F4FC044600287FF469AFFF
:1008C00095F8D0305C0610D5002142F22A0001AA2A
:1008D00004F0E6FC044600287FF45BAF0198C3688F
:1008E0005B7885F818310CF0FDFE082142F201001A
:1008F00004F08CFC044600285ED008210C300CF07B
:10090000F7FF95F8D01040F2022311F0400F08BF16
:100910000323024688074CBF43F02C0043F00C0031
:1009200095F8D1308F0648BF40F0400013F0090F12
:1009300095F89A3018BF40F4006003F00603CE0724
:1009400048BF40F01000062B08BF40F4C0700021E3
:1009500016F0DDFF2146002242F2010004F0A0FC67
:10096000044600287FF415AF95F87430B5F8FC10F4
:10097000980624D4C9B941F2050001AA04F090FCFC
:10098000044600287FF405AFB5F8FC30019C4BB954
:10099000E368B3F80120A5F8FC209A884348114683
:1009A0001AF08EFE20460CF09DFE082140F6014014
:1009B00004F02CFC044658B96FF06804E9E60029FD
:1009C000F3D145213A4815F054FB6FF00404E0E6FA
:1009D00008210C300CF08CFF95F8D0300246D90776
:1009E00057D44FF00051334816F091FF21460022B2
:1009F00040F6014004F054FC044600287FF4C9AEE0
:100A0000014601AA4FF6014004F04AFC044648BBE7
:100A100001980CF067FE21464FF6024001AA04F04F
:100A20003FFC0446F0B9019E0222F16822480131E0
:100A300016F066FE30460CF055FE95F8B9305B07AF
:100A400010D521464FF6034001AA04F029FC48B90D
:100A50000122019C1948E168114416F051FE20461C
:100A60000CF040FE17F0BDF8044600287FF491AE6C
:100A700007F09EF8044600287FF48BAEEB79002B3C
:100A80003FF487AE08210E4816F02DFF05F002F95D
:100A90007FE603A1D1E90001A6E700BFAFF3008024
:100AA0009088000200800020D0200020002100203B
:100AB000399E020010880002B9200020B8200020D2
:100AC000CC200020014B1878704700BF384600202A
:100AD00008B5044814F0F7FFBDE80840012019F0FC
:100AE0006ABC00BF568A020008B521B1BDE80840C3
:100AF000054814F0E8BF054814F0E5FFBDE80840DC
:100B0000012019F055BC00BF708A02008C8A0200D7
:100B1000CB0710B506D500F00104204602F092FD87
:100B2000014B1C7010BD00BF3846002070B5037823
:100B30008AB004460E4607AD032B20D8DFE803F049
:100B400002191B1D1149284616F066FD05956378AC
:100B50001E210493A37830460393E3780C4A029352
:100B60002379019363790093A37914F0B9FF0AB054
:100B700070BD0849E7E70849E5E70849E3E70A21C6
:100B80002846074A14F0ACFFE0E700BF978A02004E
:100B9000C08A02009E8A0200A58A0200AF8A020073
:100BA000B98A020030B5154689B00C4617F000FA34
:100BB0006946FFF7BBFF35B922466946054814F080
:100BC00082FF09B030BD2B4622466946024814F028
:100BD0007AFFF6E7E38A0200028B020010B50C46AA
:100BE00088B017F0E5F96946FFF7A0FF224669468D
:100BF000024814F068FF08B010BD00BF278B020048
:100C000010B50C4688B017F0D3F96946FFF78EFF90
:100C100022466946024814F056FF08B010BD00BFD6
:100C20004B8B020000B589B017F0C2F96946FFF797
:100C30007DFF6946024814F046FF09B05DF804FBE9
:100C40006E8B020010B50C4688B017F0B1F96946FA
:100C5000FFF76CFF22466946024814F034FF08B0E3
:100C600010BD00BF858B020030B5304889B014F04C
:100C70002AFF0EF085FE014628B12D4809B0BDE8D7
:100C8000304014F020BF2B480EF0AAFE044648B9AD
:100C9000294806F057FF60B1284809B0BDE8304048
:100CA00014F011BF0146264814F00DFF21462548D7
:100CB000E4E7254806F060FF08B12448EDE704F0BA
:100CC000FBFF014608B12248D8E7224814F0FBFE9A
:100CD00015F0C6FE204802F0ABFC014608B11F48E3
:100CE000CCE71F4D03AC0FCD0FC42B68022223604D
:100CF00001231C49009303A81B4B05F003FE044687
:100D000028B10146194814F0DEFE09B030BD18487C
:100D100014F0D9FE013404F0010100200EF0F0FEC1
:100D200000214FF4803013F015FDF3E79B8B020098
:100D3000C78B020011CB0000802100201E8C020016
:100D4000E28B0200018C0200702100204B8C02001B
:100D50007D8C02009D8C020068210020B48C020072
:100D6000D07F02009080020088800200D18C0200B7
:100D7000F78C0200014B1B68184700BF9821002028
:100D8000014B1860704700BF9821002007B50B4643
:100D9000002102460091034800F0E2FB03B05DF839
:100DA00004FB00BF75CD000030B5002587B0CDE94C
:100DB00003010446009503A90548059500F0D0FB02
:100DC000DDE904309842B8BF255407B030BD00BFFC
:100DD000A11A020070B589B306680122304614F0EA
:100DE000CEFE01460446304614F091FEC30708D4F7
:100DF0001349AF22134815F028F9AF21104815F018
:100E00001DF92146304614F098FE25182946002287
:100E1000304614F07CFE2D1AAC4206D00849B722A9
:100E2000084815F012F9B721E8E72146304614F0DA
:100E30008AFE2146BDE8704014F0C6BF70BD00BFF9
:100E4000358D0200568D02002DE9F8430F460668E5
:100E50001446B2684B1EB2F5004F34BF042108217E
:100E60003B4010D0C7F1000909EA0709494503F1E1
:100E7000FF3028BF494618420CD11F46BCB9002597
:100E80002846BDE8F8838F420FD82146BDE8F843D5
:100E900014F0DCBF2C492D484FF4A27215F0D5F8A0
:100EA0004FF4A271284815F0C9F89946E6E7B2EB6D
:100EB000D40FE4D9E319591A104614F06AFE01461A
:100EC000304614F0C0FE80460028D8D0B36809EB45
:100ED000C005B3F5004F34BF042308231D44354437
:100EE0007B1E1D447F423D40A5EB09052946304647
:100EF00014F045FE2C44073424F00704A41B80455D
:100F000007464FEAE40408D202464146304614F050
:100F1000D4FE4146304614F015FF3946304614F0F1
:100F20000CFE3844844208D239463046224614F03A
:100F3000C4FE2146304614F005FF012239463046F2
:100F400014F001FE9CE700BF358D0200568D0200B3
:100F5000B2F5802FF8B50CD2042A20D83B494FF4C3
:100F6000F9723B4815F071F84FF4F971374815F0F4
:100F700065F80823D21ACC1D114424F0070421F08F
:100F80000701091B17294FEAD1060AD82F4940F259
:100F9000FB122F4815F059F840F2FB11E6E7042345
:100FA000E8E70027046031463046A660E76014F0A9
:100FB000F9FD012185000246304614F0EAFD1B359B
:100FC000ED082844B04234D83B46384604F10C01C1
:100FD0009A4237DA2A462046002114F0CCFD00233D
:100FE00020461A46194614F09DFD771B19462046E7
:100FF000012214F0A8FD3A46294614F0BCFD2B4608
:1010000000222946204614F08DFD3146204614F07A
:10101000B2FD3B4631462046002214F083FD3146A6
:101020002046012214F08FFD2946BDE8F84014F057
:1010300089BE06494FF40372054815F006F84FF4CF
:10104000037193E741F8040F0133C1E7358D0200C6
:10105000568D02002DE9F84F0446A38B0846190768
:10106000164612D4022803F0070162D1204614F07C
:101070001FFF88B10138042800F22181DFE810F059
:1010800059001F017E00C400F10001280CBF43F08D
:10109000100143F02001A18304F1140011F056FC6B
:1010A000002800F0A98086F31188BFF36F8FBDE898
:1010B000F88F03F00702501F01281ED80020062ACF
:1010C0002768C4E9000014D13A4603E0E08B013000
:1010D000E0831268002AF9D123F0070343F00202EB
:1010E0002046A28314F0E4FE90B342F02002A283D3
:1010F0002EE023F007039AB2F2E7042A33D123F05B
:1011000007039AB22046A28314F0D2FE10B142F037
:101110002002A283A38B03F00709894540F0D88001
:10112000A18BCA0640F11E8121F01003A38301F0B8
:101130000701D4F81880A38BB8F1000FB9DA0022A8
:10114000276823F00703C4E9002243F00103A383C7
:10115000A38B03F00709894540F0BB80002FDFD047
:101160000025AA463EE0844940F21B12834814F051
:101170006CFF40F21B11804814F060FF41B17E49C2
:101180004FF4AB727D4814F060FF4FF4AB71F2E79F
:10119000236843B9784940F25712784814F055FF54
:1011A00040F25711E7E723691D6845B972494FF4CA
:1011B000AD72724814F049FF4FF4AD71DBE70F4692
:1011C00088464FF00609A38B23F0070343F006037C
:1011D0009BB2A383A268002A7DD1002F7ED1002D6F
:1011E0009ED0BA4643F0080304F1140B5846A3837B
:1011F00011F0ACFB002873D16149C2225F4814F0A2
:1012000024FFC2215E48B7E7022908D05A4940F2BC
:101210005D125A4814F019FF40F25D11ABE7E78BFD
:1012200047B155494FF4AF72544814F00EFF4FF4D4
:10123000AF71A0E723695D6845B94F4940F261127B
:101240004E4814F002FF40F2611194E7A38BB846B8
:1012500023F0070343F004039BB24FF00409A38378
:10126000B8E7012908D044494FF4B272434814F05A
:10127000ECFE4FF4B2717EE7236843B93E4940F279
:1012800065123E4814F0E1FE40F2651173E72369F0
:101290009D6845B938494FF4B472384814F0D5FE0A
:1012A0004FF4B47167E70027A38BB84623F0070318
:1012B00043F005039BB24FF00509A3838AE72E494B
:1012C00040F26B122D4814F0C0FE40F26B1152E751
:1012D000002700257EE74FF0010A83E7924681E769
:1012E00086F31188BFF36F8FBAF1000F17D14FBB90
:1012F00015B120462349A8474FF02003EFF311868C
:1013000083F31288BFF36F8F584611F011FB08BBAF
:101310001B499422194814F098FE942172E7A168A1
:101320000029E4D00E680029E1D043464A46204611
:10133000D1F804A0D0471EB1336831461E46F2E70B
:101340003346FAE7394643464A4620463F6814F09A
:10135000DBFDCCE7584611F007FBA38B23F0080315
:10136000A383DDE68B067FF597AE21F02003A383F0
:1013700001F007017AE600BF6E8D0200568D020073
:10138000908D020089D30000F8B504460D4600F1A7
:1013900014064FF02003EFF3118783F31288BFF395
:1013A0006F8F304611F0C4FA40B90A490A489422B6
:1013B00014F04BFE9421074814F040FE304611F023
:1013C000D3FAA5613A462046BDE8F8400121FFF76F
:1013D00041BE00BF908D0200568D02002DE9F047FE
:1013E00004460F4614F080FD051E5CDB04F1140971
:1013F0004FF02003EFF3118A83F31288BFF36F8F4E
:10140000484611F095FA804638B93249942232485C
:1014100014F01BFE94212F483AE0484611F0A4FA3C
:101420004FF6FF72E38BA68B934206F007063DD082
:10143000022E0ED135460133E383484611F086FA79
:10144000002839D12349C222234814F0FEFDC221CD
:10145000E1E7062E13D8DFE806F0092C1212090482
:1014600009006FF085054FF00008E6E700233B60B8
:1014700063687BB9C4E900777EB13546F3E7174965
:1014800015484FF4E47214F0E0FD4FF4E471134892
:1014900014F0D4FD1F606760EEE75246022120463B
:1014A000FFF7D8FD35462846BDE8F0876FF00A05FE
:1014B000D9E76FF00405D6E78AF31188BFF36F8F81
:1014C000B8F1000FEFD0002332463946204614F021
:1014D0001BFDE8E7908D0200568D02006E8D020024
:1014E00008B54268034602F00302022A81600AD06E
:1014F000032A4FF0000103D0012A0AD1596006E007
:101500001868596008BD186800225A6050B9002058
:10151000F8E706490648452214F097FD452103489F
:1015200014F08CFD13F0F4FFF1E700BFBD8D020055
:10153000568D020010B5094C0A44914200D110BDED
:1015400011F8013B58400309E35C0001C0B243407D
:101550001809205C1B01DBB25840EEE7E08D020069
:101560002DE9F04F81468B4617461C46002595B065
:10157000387808B9284657E37B1C2528039306D002
:101580005946C8470028C0F24F830135FBE11822B5
:1015900000210EA816F0BFF87B78252B7DD0002304
:1015A00098469E469C461E46781C014610F8012B24
:1015B0002B2A00F0A18000F29880202A00F09F8062
:1015C000232A00F09F802BB19DF8403043F0400368
:1015D0008DF84030B8F1000F05D09DF8403043F051
:1015E00020038DF84030BEF1000F05D09DF840304B
:1015F00043F010038DF84030BCF1000F05D09DF88A
:10160000403043F008038DF840302EB19DF8403053
:1016100043F004038DF840309DF8403003F044005F
:10162000442803D16FF386138DF840309DF8403085
:101630002A2A43F080038DF840307FD19DF8412065
:101640004B1C42F001028DF841201A782E2A0CBF63
:10165000012100219DF8412061F341028DF84120D4
:1016600078D15A782A2A6ED000224FF00A0C013322
:10167000194611F8010BA0F13006092E40F29580B1
:101680009DF840101292C1F3400040EAD2700A4621
:1016900060F341028DF840205CE0BA1C03928DF8A3
:1016A00043309DF84130DA0740F12E8154F8048B25
:1016B000B8F1000F07DA9DF84020C8F1000842F0A9
:1016C00004028DF840205E0740F1278154F804ABF6
:1016D000BAF1000F80F226819DF841306FF341038B
:1016E0008DF841304FF0FF3A1CE12D2A0DD0302A01
:1016F0007FF469AF012358E74FF0010C55E74FF035
:10170000010E52E74FF001084FE701264DE703466F
:101710000EFB0262303A184610F8016BA6F1300C4D
:10172000BCF1090FF3D999428FD09DF84010119266
:10173000D20F62F341018DF8401086E70B4600227C
:101740004FF00A0EE7E79DF84120023342F0040211
:101750008DF841201A786C2A47D02BD8682A31D0CE
:101760006A2A4BD04C2A51D01A4612F8013B782BEA
:1017700003928DF843309DF8412000F2BE806D2B1E
:1017800051D8692B00F2B980572B67D8412B03D071
:10179000453B022B00F2B18004229DF8423062F3F7
:1017A00002038DF84230012373E00CFB02020B466A
:1017B000303A5DE7742A25D07A2AD5D106219DF8E2
:1017C00041200CE05A78682A9DF8412006D1012179
:1017D00061F3C6028DF841200233C5E7022161F3AF
:1017E000C6028DF841200133BEE75A786C2A9DF875
:1017F000412001D10421EBE70321F0E705219DF809
:101800004120ECE707219DF84120E8E7BDF84020A2
:1018100022F4F04222F0020242F4804242F002023C
:10182000ADF84020DFE76E3BD9B201238B4040F298
:1018300082410B4237D113F0240F51D1D8075CD528
:1018400003219DF8423061F302038DF8423002F02B
:101850007803A3F140014B424B411AE00120A3F170
:101860005801C9B200FA01F111F4624F94D140F667
:10187000010631421DD111F4043F3ED09DF84230A3
:1018800060F3020302F07802402A8DF8423034D02F
:1018900000239DF84020C2F340010B4363F3410253
:1018A0008DF84020FDE602219DF8423061F30203ED
:1018B000E8E702209DF8421002F0780260F302018E
:1018C000402A8DF8421002BF9DF8401041F00101FE
:1018D0008DF84010632BDBD1131E18BF0123D8E70E
:1018E00003219DF8423012F0780F61F302038DF866
:1018F000423014BF01230023CBE79DF8403043F072
:1019000001038DF84030C3E79DF94020002AACBFA9
:101910004FF0FF38DDF84480D5E698077FF5E2AE5A
:10192000DDF848A00023CDE911339DF842309DF841
:10193000411003F00703012BC1F3C30133D1CB1EC8
:10194000042B04D8DFE803F0214646212100236858
:1019500001294FEAE372CDE90E321CD19DF93830EE
:10196000DA17CDE90E3204349DF8403013F0030647
:1019700050D03A4659464846039B14F048FB00288D
:10198000C0F252810544039FF2E554F8043BDA1794
:10199000CDE90E32E8E70229E5D11AB243F3C033AC
:1019A000CDE90E23DFE7022B24D1CB1E042B04D874
:1019B000DFE803F018101018180001294FF000029A
:1019C00054F8043B14D00229CDE90E32CCD19BB29D
:1019D0000E93C9E7073424F00704F4E80223CDE9A5
:1019E0000E23C1E754F8043B0E9300230F93BBE78B
:1019F000DBB2CDE7042B08D1073424F00704D4E987
:101A000000230834CDE90E23AEE7032BACD154F804
:101A1000043BDDE79DF843007828B4D862281CD841
:101A200025283FF4ADAD5828ADD1DDE90E010DF10B
:101A30003603009310AA08AB14F0A3FABAF1000F12
:101A4000074680F29980002F9DD00DF13603D81BF8
:101A5000002E00F0C0800130BDE06338152892D818
:101A600001A252F820F000BF3DDB00004FDB000078
:101A700087D9000087D9000087D9000087D90000E6
:101A80004FDB000087D9000087D9000087D900000C
:101A900087D90000DBDB000073DB000099DB00006E
:101AA00087D9000087D90000C1DA000087D900007B
:101AB00073DB000087D9000087D9000073DB0000CA
:101AC000BAF1000F0E9F35DB5146384615F0C9FDBF
:101AD00007EB000A002F3FF456AF00269DF8423076
:101AE00013F01002059200F0928002305B06119A0A
:101AF00048BF129B104448BFC018B8F1000F0492B1
:101B000040F39F809DF84020A8EB0008C2F38003BB
:101B10005007069300F19580510640F188803EB150
:101B200059463046C84700287EDB069B01351E46D5
:101B300030227DE0384615F08DFDC9E70E9B00266A
:101B400001208DF8203008AF0DF1210AC6E71907F2
:101B50005ABFC3F300135E012B26DDE90E23002BD1
:101B6000BFF663AF524263EB43032D26CDE90E234C
:101B70005BE7002659E700269DF840200DF136036B
:101B8000DB1B6FF386129A458DF840207FF65BAF22
:101B9000AAEB0303119356E70E9890B30DF13603A9
:101BA0000093002108AB10AA14F0EBF9BDF8423005
:101BB000BAF1000F03F0EF0343F4F04343F01003D6
:101BC0000746ADF84230D6DA00283FF4DCAE0026F6
:101BD0000DF13603181A9A4680E70E9B07293FF647
:101BE000D2AEDFE801F00C04060C08080C0C1D70E6
:101BF000C9E61D80C7E6EA17C3E90052C3E61D60C7
:101C0000C1E62F4F064607F1050A052066E71A07C9
:101C100048BF01306AE71046079306925946C84705
:101C2000DDE90623002804DA15B0BDE8F08F202294
:101C300043461946002903F1FF33ECDC454498463E
:101C40006D1A2EB159463046C8470028ECDB0135E5
:101C50009DF84230DA0601D41B0705D559463020DD
:101C6000C8470028E0DB0135059B33B159469DF894
:101C70004300C8470028D7DB0135049E2E4405E009
:101C800059463020C8470028CEDB0135731B002B96
:101C9000F6DC53463A465946484614F0B8F900284F
:101CA000C2DB0544A844A8EB0503002B7FF76BAE0D
:101CB00059462020C8470028B6DB0135F3E700BFAE
:101CC000F08D020008B54FF02002EFF3118382F38C
:101CD0001288BFF36F8F02F031FB034813F0F3FE5D
:101CE00001F04CFFFCE700BFF68D020008B5430988
:101CF0000CD0012B1BD01249124840F2472214F09D
:101D0000A4F940F247210E4814F098F94FF0FF3340
:101D1000C340DA07EFD50C4B03EB8003D3F8002266
:101D200022F0E04242EA0171C3F8001208BD4FF60A
:101D3000FF7300F01F00C340DB07DCD5034BEBE76C
:101D40001F8E0200568D020000258450002884500A
:101D5000F8B54FF02003EFF3118783F31288BFF338
:101D60006F8F0124234B244EC3F800450223032127
:101D7000C6F8D0360020FFF7B9FF20460321FFF751
:101D8000B5FF7E237F220025C6F80C37C6F83C3904
:101D90001A4B2146C3F81821194A2120C2F8045EC3
:101DA000C2F8085E02F54822C2F81051C3F8245167
:101DB000C3F82C5103F5FF1303F58053C3F8A05269
:101DC000C6F80447C6F80449C6F8004BFFF78EFF73
:101DD00021462020FFF78AFF21460B20FFF786FFD0
:101DE00021460A20FFF782FF87F31188BFF36F8F28
:101DF0002846F8BD00100050004000500020005060
:101E000000900350F8B50523194D1A4F2C781A4E3F
:101E10000134B4FBF3F303EB8303E41A18F0EDF998
:101E2000164A137873B157F82430C01A072809D816
:101E300033782BB95721124814F01BF90123337062
:101E40000020F8BD00214FF050233170D3F8140169
:101E500038B1C3F81411D3F814312C700CB9012324
:101E600013702C7818F0C9F947F824000120E8E72E
:101E70003B460020C8360020394600203A46002064
:101E8000528E020048B1054B054A1B68B3FBF2F3C2
:101E90005843044B43F00103184770476424002063
:101EA00040420F0080800200062807D10122044B27
:101EB000C3F80025BFF34F8F20BFFDE7704700BF79
:101EC000004000500DF0CABF2DE9F7430F4606460B
:101ED0000821C06A14F067F980463C68DFF8489032
:101EE000241A3C6004EA0905AC4203D8002003B080
:101EF000BDE8F08308236A462146304614F0C6F850
:101F00000028F4D16946304614F057F940B1BDF8C5
:101F10000230BDF8042005EA090513441D443C6065
:101F2000A4EB0804E0E700BF0000FFFF2DE9F04745
:101F3000044688B000F11407384619F08CFBA06AFB
:101F40008368DB689847E06248B94521AB4814F0E4
:101F500090F86FF01505284608B0BDE8F087A06A34
:101F60008368DB6898470368013B1F2B02D9452132
:101F7000A348ECE7A06A216805AA18F0A1F810B1FF
:101F80004521A048E3E7A5892DB1069BB5FBF3F2F7
:101F900003FB125515B145219B48D8E7E389012B76
:101FA00002D845219948D2E7E36A009593F8049056
:101FB0004FF0FF334FF0FF32384610F00BFD082191
:101FC000E06A14F0F0F8A8460646E3891FFA85FA9D
:101FD000534508D8E389434523D1384610F0B0FD76
:101FE0006FF02C05B7E7A1892B04891B13FA81F147
:101FF0004A4608232046009114F08DF878B16946CE
:10200000204614F051F808F1010808234A462046FA
:1020100000991FFA88F814F07EF80028DAD001350C
:10202000D3E753450BD1009908234A462046891B24
:1020300014F071F818B96946204614F035F869466D
:102040002046FFF741FF054618B1384610F078FDED
:1020500081E7009B4FEA13484FEA08486360C4F8E1
:102060000880D4E9011399420FD30823204601AA1E
:1020700014F00CF805460028E7D101AB13F8012B4A
:1020800091453CD10135082DF8D1636869461B0C98
:102090001B042046009314F007F84A462046A38903
:1020A000009914F038F8051ECFDB636869D04FF64D
:1020B000FF7906EB0308A3891FFA88F29B1B9A425B
:1020C000CDF8008037D34921514813F0D2FF204684
:1020D000616814F045F805460028B6D163684D4A9A
:1020E000A18913400B44A3EB4603636013402046D1
:1020F000A36014F044F90546002D5ED0A5E7204604
:1021000001A914F05AF8626810B9921B6260A8E73E
:10211000BDF80850BDF80610E06AC4F808802944EC
:1021200014F041F840449042A060EED1002DECD074
:102130006FF01C057AE008234146204603AA13F0FD
:10214000A5FF0546002880D1204603A914F035F8E4
:1021500038B1BDF80C304B4503D1BDF81030002B21
:102160006AD0B044A7E74A4620465B1A13F0D3FF73
:10217000051EFFF66AAF08D0E26AA368126813442E
:10218000A360D4E901318B42EDD86168A38901EBEA
:1021900046029A42B0D1DFF87C80A26801EA0803C7
:1021A0009A42A9D0204613F0DBFF054600287FF4B1
:1021B0004CAF636803EA0803A360A389A288A3EB7A
:1021C00046039A422ED0384610F0BAFC012349212A
:1021D000E28911482374A38913F04BFF62684921F7
:1021E00093B20E48120C13F044FFA268492193B237
:1021F0000B48120C13F03DFF0025ACE69D8E02004B
:10220000C48E0200E68E0200038F02001C8F0200C3
:102210008D8F02000000FFFF448F0200608F0200DC
:10222000778F0200204614F095F80546384610F0E6
:1022300087FC002DCAD08EE64921084813F019FF0B
:10224000636869461B0C20461B04009313F02CFFA7
:102250002046009913F084FF4DE700BFB98F0200BC
:102260002DE9F04F1D46037C04468946904689B00F
:102270004BB94521624813F0FCFE6FF00C06304666
:1022800009B0BDE8F08FC26A0821104613F08BFF39
:1022900082462946104613F086FFA3890746A3EB22
:1022A0008A039D4200F2A9801DB1B8F1000F00F031
:1022B000A48063680393204604AA03A9DDF80CB048
:1022C00013F0B3FF06460028D9D1BDF810304B45B6
:1022D00005D06268039B9A42EDD1E5B9CFE720466D
:1022E00004A913F06AFF0028F3D0BDF81200BDF86E
:1022F000143075B19D420ED14FEA1B4109040144CF
:102300002B464246204613F0DCFE002803DC06463E
:10231000B5E7002BB3D0002F3ED104F11403019395
:102320004FF0FF324FF0FF3304F1140010F052FB76
:10233000DFF8D0B0E3899E425CD0D4E90123F918DC
:102340008A422CD3ADF81A30FF2306A88DF81E3030
:10235000ADF81890ADF81C5013F01CFF2B46424608
:10236000A168204613F0ABFF29468246E06A13F0CD
:102370001AFFA2680244A260BAF1000F07D12046FA
:1023800006A913F0D6FF002814BF8246AA4601987A
:1023900010F0D6FB564672E75744BFB2BDE708219E
:1023A000E06A13F000FF4FF6FF73ADF8183000231A
:1023B000ADF81C301318ADF81A30A38902EA0B02ED
:1023C0001A44101A606006A813F0E4FE06A920461D
:1023D00013F0AFFF2046211D13F066FE6368204610
:1023E00003EA0B03A36013F0CAFF82460028CED194
:1023F00001369FE76FF01B0AC9E76FF015063EE74D
:10240000848E02000000FFFF2DE9FF471E46037C7B
:1024100004460F469046BDF8309043B92C484521FC
:1024200013F027FE6FF00C0004B0BDE8F087082120
:10243000C06A13F0B8FEA389A3EB40039E4243D8C1
:102440000025D4F804A0CDF804A0A9455146DDF834
:1024500004A009D2636853451ED1BDF80830BB42C1
:102460001AD06FF00100DFE7204602AA01A913F09D
:10247000DCFE0028D8D1BDF80830BB4206D120468A
:1024800002A913F09AFE08B10135ADB26268019B52
:102490009A42DAD15146E0E7BDF80C30002BE0D08B
:1024A000A945DED8BDF80A00090CB3424FEA014144
:1024B00028BF334601444246204613F0E7FD00287A
:1024C000B2D1BDF80C00AFE76FF01500ACE700BF6C
:1024D000848E020010B530B90B48452113F0C9FDB8
:1024E0006FF0150010BD836833B90848452113F01B
:1024F000C0FD6FF00400F5E71B6813B1BDE81040A4
:1025000018471846EEE700BFDA8F0200F08F02008E
:1025100070B508B101B132B90B48452113F0A9FDDE
:102520006FF0150070BD84680CB1E56835B90748D7
:10253000452113F09EFD6FF00400F3E741F8040B12
:10254000E368BDE87040184713900200F08F020066
:1025500070B51346044630B91048452113F089FD83
:102560006FF0150070BD006830B90D48452113F0BB
:1025700080FD6FF00100F5E782680AB1956835B912
:102580000848452113F075FD6FF00400EAE70A469C
:10259000AC466168BDE87040604700BF44900200EF
:1025A0005A900200F08F020008B504220021024870
:1025B00015F0B1F8002008BD0000072030B50C462A
:1025C0000E4985B00291D0F8AC110546CDE9003135
:1025D00000F1E0014FF0FF3320460FF0C9F950B988
:1025E000012384F86430D5F8A83123B1204605B022
:1025F000BDE83040184705B030BD00BF1F260200BF
:1026000038B50C461146054614F00BF8034638B9A8
:102610002846044914F005F803460020236038BD1D
:102620000120FBE7C1B302002DE9F04F01238146F1
:102630000569466885B005F55977D7E8EF2F002A78
:1026400003D1C7E8E13F0029F7D140F0B880B36873
:10265000B26A043B2632B3EB420F4FEA420126BF77
:10266000B3FBF1F3B3FA83F300234FF0010428BF67
:10267000C3F12003013B9C4005F5E47800F099800C
:102680001022082170689A4002EB440204309940FD
:102690000932C5F86002063122F003020A44B16A29
:1026A00001FA03FC510001EB4C01C5F86412B16A58
:1026B000994000EB4103C5F858320333134423F02B
:1026C0000303C5F854327368C5F85C42C5F850324C
:1026D0003C4B4046C5E9A963316800F01DFA044649
:1026E00030BBD9F804A0D9F81090DAE9073409F51D
:1026F000307B012B584608BF103C10F0EFFE002342
:10270000DAF8240030494FF4806201EB8021009315
:102710005846234610F0F8FE09F52C702B4910F0AE
:10272000EFFDDAF8140083685C681CB96FF0570499
:10273000002137E04B46264ADAF81810A047044635
:102740000028F5D1DAF8140083681B69002BEDD05E
:102750000122DAF81810984704460028E8D11D4BEA
:102760002846C5F8A8311C4BC5F8AC311B4B039368
:10277000D5F810320293D5F80832CDE90083D5F8A8
:102780006832B26AD5F8601300F08EF9044600286A
:10279000CED105F1E0000FF085FA0028C5F86803F6
:1027A0000ADB0221384613F071FF204605B0BDE870
:1027B000F08F6FF00B04BBE76FF01504B8E76FF014
:1027C0007704F2E775260200A84600205B26020087
:1027D0004F260200A5E800002D270200BD260200BA
:1027E0002DE9F84306464FF001090569D0F8048049
:1027F00005F55977D7E8EF3F022B03D1C7E8E29FF1
:10280000002AF7D149D1264805F1400114F032FFE2
:1028100020B16FF00F042046BDE8F883204805F191
:10282000B00114F027FF0028F3D12846D5F8601333
:1028300013F0AFFF044670BB71683669486983685E
:102840001B6933B3224689699847044618BB06F5CD
:1028500030764946304610F0B7FE304605F5E4764E
:1028600001F0B6FD3046D8F8001013F0CFFF044653
:1028700088B90146E822304614F04DFF21464FF456
:10288000E272284614F047FF2146384613F0FEFE58
:10289000C1E76FF057040221F7E76FF07704BAE75A
:1028A000C1B3020013B5044640B100230122CDE9B3
:1028B0000032074BD0E909120FF00EF8A36E1B6827
:1028C00023B1E06E02B0BDE81040184702B010BD61
:1028D000C1B3020013B504460846216901F55971D8
:1028E000D1E8AF1F022910D193B1A0B10121CDE9E8
:1028F00000311346D0E909120EF0EEFF074B984263
:1029000008BF6FF00B0002B010BD6FF00F00FAE7C8
:102910006FF04C00F7E76FF00100F4E72EF8FFFFCF
:102920002DE9F74388461546066906F55973D3E83D
:10293000AF3F022B5FD1136823B96FF0150003B0CE
:10294000BDE8F0831B78002BF7D0D6F86093B9F17F
:10295000000F33D106F5D8774FF0FF324FF0FF3339
:10296000384610F037F830462A6801A9FFF748FECC
:10297000019C1CB9384613F087FEDEE705F1080319
:10298000A3666B6984F86490E366E46360B13846DB
:1029900013F07AFE21463046236E2A68FFF70EFEBA
:1029A0000020C8F80040CAE72022296804F140004E
:1029B00014F03CFE384613F067FEF1E730460F494D
:1029C00013F02FFE04460028B7D005F108038366F4
:1029D0006B69C063C366002380F8643020222968D5
:1029E000403014F023FE22460121304600F03EF82C
:1029F0000028D5D0A1E76FF00F00A0E7C1B3020017
:102A00002DE9F04F05460E4690460027D0F8B0A0BD
:102A100085B0AAF5AE742146304614F02BFEE0B91D
:102A2000114BA4F1400B0293DAF810303246CDE995
:102A3000008329464FF0FF335846AAF5CE790EF0B1
:102A400097FF60B97023012203FB079383F864208A
:102A5000DAF80C300BB158469847703417B105B00E
:102A6000BDE8F08F0127D6E78F2702001FB5144677
:102A700090B18AB1012912D10A4B00F1E001029311
:102A8000D0F8AC31403201934FF0FF332046009331
:102A90000EF06EFF04B010BD6FF01500FAE70020D5
:102AA000F8E700BF8F2702002DE9F04387B00E46FC
:102AB000DDE90E811446DDE910251F4630B329B348
:102AC000DFF850C000F1E009002D08BF65469EB94F
:102AD000CDE9034400F5CE742046059618F08CFA33
:102AE00003ABCDE900432A463B46414648460FF03A
:102AF000FFF807B0BDE8F083002241460E92484639
:102B00002A4607B0BDE8F0430FF01CBA6FF015007D
:102B1000EFE700BF01EA0000F0B50E46044689B0B9
:102B200000286FD001230246C3630023D0F8981019
:102B3000364F403040F80C7C42F8301FCDE901336D
:102B40004FF0FF330093C36D17F0BFFD304A06AB63
:102B500092E8030083E8030018460EF0DDFD054609
:102B6000D8B904F134000EF0B7FD0546A8B93946CE
:102B7000284805AA17F081FD054670B9059B9A689B
:102B800072B10C33D4F89400C4F8A03013F030FEC6
:102B9000C4F8D40030B96FF00B05284609B0F0BD79
:102BA0000346EFE7D4F8940013F022FEC4F8D800EF
:102BB0000028F0D0D4F88C30D4F8A010C4F8A83095
:102BC0000423C4F8AC30C4F8C4300223A362124B0F
:102BD000B4F89420D4F8D470C4F8B810C4F8D01065
:102BE000D4F89010236204F1A403A4F8B020C4F830
:102BF000A470C4F8C010A4F8C820C4F8BC00A66132
:102C0000E362CAE76FF01505C7E700BF89900200CD
:102C1000E47F020093900200CC80020070B5114B5B
:102C20000D461C68DCB1104B196800238B4202DB97
:102C30006FF0010070BD224612F8106B864202D080
:102C400014460133F2E7E06810B96FF01200F1E7C3
:102C500018F0A9FC0028F8D000202C60EAE76FF0FB
:102C60000C00E7E7082200206881020070B588B0F8
:102C700005460C46C0B269461646FFF7CFFF00284E
:102C80001BDB0098C8B143682268029383680195F2
:102C9000CDE903360023CDE906230593C56813F07B
:102CA00024FE6DB12846084901AA17F00DFA0798CD
:102CB00008B9059B236008B070BD6FF01500FAE7F6
:102CC0006FF01200F7E700BF89290200F8B58368AA
:102CD0000446002B31D0D0E90476C06813F076FEAC
:102CE000A568B5FBF0F300FB13555DB1451BE0682B
:102CF0008368DB689847A368017920682A461844EE
:102D000014F009FDA368E06822683E442B44816802
:102D10004D683146A847054638B10246334645213D
:102D2000174813F0A6F92846F8BDE3695BB9236993
:102D3000A268134423610023A3600025F3E7535DD9
:102D4000DB4353550135A3682268AB42F7D8E068EE
:102D500081680D683146A847054628B145210246DD
:102D6000084813F086F9DEE73246E369A168206877
:102D7000984705460028DAD0024645210248F0E788
:102D80009B900200C4900200DF90020010B54368DF
:102D90000A680C469A4207D90548452113F069F99B
:102DA00000231846636010BD4A6801201344F9E708
:102DB000F89002002DE9F7430D46DDE90A869146B9
:102DC0001F46044680B179B172B1009300230846D2
:102DD000019313F0FBFDB7FBF0F303FB107040B160
:102DE0004521184813F045F96FF00D0003B0BDE818
:102DF000F0836A462846144917F066F9019B002BB8
:102E0000F2D008EB0602934202D245210F48E9E7CF
:102E1000284613F0DBFDB8FBF0F303FB108000281D
:102E2000F3D1C4E90097E5602061A060C4F8148084
:102E300016B9019EA6EB08060C9B0020A661E36173
:102E4000D4E700BF1D9102008DED000059910200F2
:102E50002DE9F0410F4B05461C680E461746ACB1F4
:102E60004FF0FF324FF0FF330B480FF0B3FD6368B4
:102E70003246D3F8088029463B462046C0470446E0
:102E800005480FF05DFE2046BDE8F0816FF00104BB
:102E9000F9E700BFDC360020842700200023036010
:102EA000044B5A6812B9C3E90000704710605860BB
:102EB000704700BFE0360020014B1860704700BF2C
:102EC000DC360020002330B585B00546CDE902335D
:102ED00001904FF0FF334FF0FF320B480FF07AFDB7
:102EE0000A4B1C684CB9284600F0DCF8044606483A
:102EF0000FF026FE204605B030BD636820461B68F3
:102F000001A998472468EDE784270020E0360020D7
:102F10001FB5CDE9010103924FF0FF334FF0FF32AF
:102F200009480FF057FD094B1C682CB906480FF0F3
:102F300007FE204604B010BD636820461B6801A947
:102F400098472468F1E700BF84270020E03600207E
:102F50000022024BC3E90022704700BFE036002088
:102F60000022024BC3E90022FFF7F2BFE83600203F
:102F70002DE9F74307460C4609B100230B600026F4
:102F8000234DDFF890904D4520D9234923489422C2
:102F900013F05BF89421204813F050F8D5F8008026
:102FA0003846414601AA13F062FD50B116B954B932
:102FB0002E4606E000224046316813F058FD0028F6
:102FC000F5D11435DFE7019B2360F1E7E6D3144B1D
:102FD0001D68C5B155F8148C3846414601AA143D08
:102FE00013F045FD50B116B954B92E4606E0002243
:102FF0004046316813F03BFD0028F5D16D69E8E7E4
:10300000019B2360F1E7304603B0BDE8F08300BFC9
:10301000447F0200BC7F02007F910200568D0200B7
:10302000E83600202DE9F341DDF8208004460D4606
:1030300016461F460190B8F1000F07D0D8F80010CF
:10304000C1B9D8F804E0BEF1000F1CD1204601A997
:10305000FFF78EFF98B13B46D0F8088032462946EC
:103060000198C047034650B1224645210C4813F051
:1030700000F804E001AA13F0FAFC0028E1D10020D6
:1030800002B0BDE8F081D8F80830324608932946EE
:103090003B46F446019802B0BDE8F041604700BFEE
:1030A000B1910200F8B5064600251C4C1C4FBC42ED
:1030B0001BD91C491C48F42212F0C7FFF4211948FF
:1030C00012F0BCFF2EB9E3685BB9284605461434FC
:1030D000EDE700223146206813F0C9FC0028F2D148
:1030E000F3E79847002DF0D1F0E7EBD30F4B1C68C6
:1030F00094B1143C1EB9E3684BB96469F8E7002247
:103100003146206813F0B3FC0028F4D1F5E7984766
:10311000002D08BF0546F0E72846F8BD447F0200B1
:10312000BC7F02007F910200568D0200E83600202D
:1031300038B50C4D4FF0FF334FF0FF320A480FF017
:1031400049FC2B783BB9FFF70BFF00F06DF8044604
:1031500010B901232B70002403480FF0F1FC204626
:1031600038BD00BF3C460020842700202DE9F047F1
:1031700080468946048FDFF8ACA0013498B0A4B231
:1031800000F10806651EADB2B5F5004F47D04A23E1
:10319000294605AA304613F0C3F904F57F543F349D
:1031A000A4B207462146012330460DF10B0213F06D
:1031B000B7F9002F014603DC002803DC2C46E1E7C9
:1031C000002816DCB8F83830AB4209D142466B1EF5
:1031D00022F8383F4FF4004102233046FFF740F811
:1031E0002946304613F098F92146304613F094F9F9
:1031F000E4E707F160030DEB03070023524607F8ED
:103200004C3C05A8CDF8009003AB0396ADF81040F8
:10321000FFF708FF0028D1D018B0BDE8F0870020E4
:10322000FAE700BFDF2A02007FB5012369460620C6
:103230000193FFF7F3FC0446002834D1062002AACC
:1032400001A9FFF713FD10F1130F04462BD038B17D
:103250000C3405D0404080F311884FF0040002DFA9
:103260000399B1F5803F23D200231846009A946851
:10327000084484421AD30133082BF9D10E4DA98298
:10328000EB8253682846AB60D368EB6313F0C1FC54
:10329000044640B9094E28466E60FFF7FFFD2846F8
:1032A0006E60FFF709FE204604B070BD9BB2E5E7F3
:1032B0006FF02004F7E700BFF0360020C82100209F
:1032C0002DE9F84305464FF02003EFF3118683F311
:1032D0001288BFF36F8F1B480FF02AFB40B91A49C1
:1032E00094221A4812F0B1FE9421174812F0A6FE5B
:1032F0004FF00C0913480FF037FB154B154F1C68A6
:10330000DFF8548054B90F480FF020FBA0B90E49E4
:10331000C2220E4812F099FEC221E6E7D4E9012349
:10332000002D18BF13462BB198F8142009FB02F2A8
:10333000B85C98472468E5E786F31188BFF36F8F80
:10334000BDE8F88330370020908D0200568D0200D2
:103350005037002044370020E8430020012270B598
:10336000164B1C7D04F01F039A40D043144B610997
:1033700003EB8103D3E8EF1F01EA0005C3E8E65F32
:10338000002EF7D10A4213D00E4B0F4D8BB10C23F8
:103390006343EA185178E85C12F065FE0020FFF7FD
:1033A0008FFF0C235C4300232A192B51C2E9013300
:1033B00070BD83F31188BFF36F8FEFE7E843002000
:1033C0005837002067200200443700202DE9F041E3
:1033D000404B07461D7D4FF02003EFF3118883F328
:1033E0001288BFF36F8F3C480FF0A2FA40B93B49F7
:1033F00094223B4812F029FE9421384812F01EFE18
:103400000C246C4334480FF0AFFA364B364E195D3E
:103410001A1991B107CA06EB040C8CE807000022C8
:103420001A552D480FF092FA044688B92B49C2224A
:103430002B4812F00AFEC221DFE73946284600F089
:103440005DF80028EDD007C8344484E80700E8E7B9
:1034500088F31188BFF36F8F0C236B43F218F35C72
:10346000ABB37B1C0FD04FF4004C0021D2F808E026
:103470001E480023EEFB0C011D4AFCF76DFF0121E5
:10348000381A11F01BFC10F075FC0120FFF718FF33
:10349000184B6A0903EB8203012205F01F018A40E1
:1034A000D3E8EF0F1043C3E8E10F0029F8D1124B26
:1034B00033B10C236B43F2185178F05CFEF7F4FC47
:1034C000FFF74CFF10F0A2FC2046BDE8F0811C463F
:1034D000FAE700BFE843002034370020908D020057
:1034E000568D020038370020443700203F420F003D
:1034F00040420F0058370020A9DE00002DE9F04FB0
:1035000085B00E4603A900F043F84FF40047044687
:103510004FF0000B1B4B039DD3F800A0431E1BB2C2
:1035200003EB4303DFF8608005EB830524B9A14674
:10353000484605B0BDE8F08FC44659466868002388
:10354000E0FB07C1114A6046FCF706FFC446594636
:103550000190A8680023E0FB07C10C4A6046FCF715
:10356000FBFEBAF1FF3FA94601D0824505D9731C85
:10357000DED0019B1844B042DAD9013CA4B20C3D24
:10358000D4E700BFDC2100203F420F0040420F0083
:1035900008B9024B0B600020704700BFF0800200AA
:1035A0004B1E59425941014B197070473E4600204D
:1035B00008B5012BBDF808100CD171B90A4B1B6876
:1035C0000BB9012008BD1078012809D800F00100CE
:1035D0009847F6E76FF00C00F4E76FF00600F1E7AC
:1035E0006FF01200EEE700BF5C3700202DE9FF41CD
:1035F0001F460D4B054658680C46164680B1D1F85B
:103600000C808047094B324618700123CDE90183B5
:10361000BDF828302146009328463B4615F0ADFC06
:1036200004B0BDE8F08100BF5C3700203D460020BB
:1036300020B1034B02681A6042685A60002070474C
:103640005C37002000B50E4B89B01B788DF8070061
:103650009BB10021182202A814F05DF8094B00204C
:1036600003930DF107030493012302A9ADF814306D
:1036700006F06AFD09B05DF804FB6FF00C00F9E795
:103680003E460020188102000449431E0F3013F803
:10369000012F8A5C83421A70F9D17047E5910200CC
:1036A000F0B50746264E8DB001AD0C460FCE0FC5C6
:1036B0000FCE0FC596E8070085E807003846002FB3
:1036C00039D0002C39D0381F0246214610344B78AF
:1036D0000D781B0443EA0563CD7804312B4311F8C0
:1036E000025C8C4243EA052342F8043FEFD10421F7
:1036F000144C8A07036916D1C3F30742A55C1A0E5E
:10370000A25C42EA0562C3F30725655DDBB2E35CB8
:1037100042EA054242EA032221F0030330336B44BC
:1037200053F82C3C534050F8042F013153402C29BE
:103730000361DED101200DB0F0BD2046FBE700BFE4
:10374000EC7F0200E59102002DE9F04F00270368AD
:103750009DB002934368DFF8BCA103938368DDE961
:1037600002460493C36805930369DDE904BE06932A
:10377000436907938369DDE9062C0893C36998467A
:103780000993089B0093CD590CAB2DBA5AF8049BB2
:10379000DD514FEAF223A94483EAB213009D83EA84
:1037A00072634B4425EA020502EA0C0985EA090521
:1037B0002B44434486EA0B054FEA743888EAB40880
:1037C000254006EA0B0985EA090588EAB45804375A
:1037D000A844402F03EB0E054344DE46DDF800808D
:1037E00040F088804FF0100A4B490A9151460AF187
:1037F000010A0DF1700E0AF00F070EEB870757F85C
:10380000407C01F00F094FEAB748019788EAF718A2
:1038100001F10E0707F00F070EEB870757F8407C02
:1038200009314FEAF74E8EEA774ECDF82CE001F0E1
:103830000F010DF1700E0EEB81010EEB890959F8A5
:1038400040EC51F8401CBAF1400F7144DDF804E03F
:1038500088EADE08DDF82CE041448EEA972E7144B8
:1038600005EA02084FEAF52E2CEA050787EA080761
:103870008EEAB51EDDF828808EEA756E774458F81A
:1038800004EF49F8401C77440F4400994FEA733E17
:10389000394484EA0607CDF828808EEAB30E07EA99
:1038A000030704EA06088EEAB35E87EA080777444E
:1038B0000F4401EB0B0ECDF800C0B34622D10299A4
:1038C0003944016003991944049B41602344836097
:1038D000059B3344C360069B73440361079B2B44E1
:1038E0004361089B13448361099B6344C3611DB01A
:1038F000BDE8F08FB346CDF800C0264694461C467E
:103900002A4640E7944626462A461C4675463B46CC
:103910006CE700BFEC8102002882020010B504466B
:10392000C8B17022002113F0A2F90B4B0B4A0C49CD
:10393000C4E900230B4B0C48C4E902130B4BC4E948
:10394000040301200A4BA36103F17453A3F523037D
:10395000A3F69243E36110BD85AE67BB67E6096AD3
:1039600072F36E3C3AF54FA57F520E518C68059B61
:10397000ABD9831F014811F0D1BE00BFEC82020019
:1039800038B5044618B90F4B0F485B689847616813
:10399000B1F5683F0FD0B1F5680F0CD00B4DA942BF
:1039A00009D011F4686107D0214609480EF072FE73
:1039B00000232360656038BD1422206813F0ABFE3D
:1039C000F8E700BF24250020E59202002C5F5CA9E7
:1039D000643C002008B560B34368B3F5683F0ED07F
:1039E000B3F5680F18D0144A934220D000684FF006
:1039F000FF324FF0FF330EF0EDFF58B115E001221A
:103A00000368D3E8EF1F002903D1C3E8E02F0028A3
:103A1000F7D10AD1002008BD0368084A1B7803F5D6
:103A2000807352F82330002BF4D00548F3E70548A3
:103A3000F1E76FF4E040EEE72C5F5CA90000035073
:103A4000E98FFFFFEA8FFFFF08B520B34368B3F5A6
:103A5000683F09D0B3F5680F13D0114A93421DD0C7
:103A600000680FF06DF814E000220368D3E8EF1F40
:103A7000012903D1C3E8E02F0028F7D109D0094874
:103A800008BD00210368084A1B7803F5807342F8DB
:103A900023100020F4E76FF4E040F1E70348EFE77C
:103AA0002C5F5CA9E98FFFFF00000350EA8FFFFF46
:103AB00010B5044618B91D4B1D485B6898476368EC
:103AC000B3F5683F2FD0B3F5680F2CD0194A934255
:103AD00019D1236803BB4FF0FF324FF0FF3321466B
:103AE00015480EF07FFD08B923681BB90F4B13482A
:103AF0005B68984714220021206813F00CFE4FF4F5
:103B00006863636008E0B3F5683F0DD83A2B03D0D3
:103B100040F6BA629342DED1206817F09CFD6368DC
:103B200043F03A03636010BD054AF3E72425002003
:103B3000E59202002C5F5CA9643C00200B9302001C
:103B40003A00003A08B5064940231422054817F008
:103B500057FDBDE808400449044811F051BE00BFBC
:103B600064370020643C0020F482020008830200D5
:103B7000014910220A60704710ED00E072B6404023
:103B800080F31188BFF36F8F01B5FEF73BF9002872
:103B900002D0BFF34F8F30BFBDE8014062B6BFF324
:103BA0006F8F704772B6494081F3118801B5FEF7F7
:103BB00029F9002802D0BFF34F8F20BFBDE8014094
:103BC00080F3118862B6704737B505460C46C9B117
:103BD0008B6810480093D1E90023452112F049FA7F
:103BE000636945210093D4E903230B4812F041FA9D
:103BF0004521E269094812F03CFA4521A2690848CA
:103C000012F037FA2146284603B0BDE830400EF0E6
:103C10009BBA00BF389302006C930200A09302008D
:103C2000B493020040B2002807DB01234109034A94
:103C300000F01F00834042F82130704700E100E0AF
:103C400040B200280CDB01220649430900F01F00A6
:103C50008240203341F82320BFF34F8FBFF36F8F93
:103C6000704700BF00E100E0054B420953F82220F5
:103C7000012300F01F0003FA00F01040704700BF5E
:103C800000E100E00131072908B508D90D490E48C7
:103C90005B2212F0DAF95B210A4812F0CFF940B248
:103CA0000028ACBF00F16040084B4FEA4111C9B297
:103CB000ABBF00F5614000F00F0080F8001319540D
:103CC00008BD00BFE7930200568D020014ED00E02E
:103CD00030BFFFF7FDBF00BF0B4A08B50B4B22F00A
:103CE0007F029A60BFF34F8FBFF36F8FD3F88820A6
:103CF00022F47002C3F888200EF0BEFA10F05CFEC9
:103D000000F0E0FA0EF0F8FA00C2000000ED00E06A
:103D1000094A0A49936809689867D96708494B684E
:103D200043F080534B60002383F31188BFF36F8F00
:103D30009368D86F704700BFE84300207489020081
:103D400000ED00E013498A684FF030001044EFF3B3
:103D5000098C80E8F01F202080F31288BFF36F8F5A
:103D60000D4F4FF00066CA698A603E60906F002375
:103D7000936780F3118802F1300090E8F01F8CF314
:103D8000098802F1000004B513F0C2FBBDE804404D
:103D900070470000E843002004ED00E01EF0040F2F
:103DA0000CBFEFF30880EFF30980816911F8021C62
:103DB0000229FFD001B513F09CFB01BD42F8203C65
:103DC000009B0B4942F81C3C019B21F0010142F889
:103DD000183C029B42F8081C42F8143C4FF08073D8
:103DE00042F8043C0023203A02658367704700BF15
:103DF000FB1A0200084B9860836E83F30B88104611
:103E000081F30988002163B681F31188BFF36F8FB6
:103E10000022002311F071FEE843002001B572B6C4
:103E20000B4A906900281EBF0021916117F004FC25
:103E300062B6EFF30580A0F110004FEAC00005491B
:103E4000014409C99847BDE80140034908470000FB
:103E5000E84300202C7B02005DFE0000044B9968C3
:103E6000D869884203D003494FF080520A607047F6
:103E7000E843002004ED00E038B5214C45212148FD
:103E800012F0F7F8A36A9D0103D545211E4812F0F0
:103E9000F0F8A36ADC0103D545211C4812F0E9F8CB
:103EA000174DAC6A14F4801404D04521184812F060
:103EB000E0F80224AB6A180303D54521154812F037
:103EC000D8F80F4DAB6A590303D54521124812F0BB
:103ED000D0F8AB6A9A0303D54521104812F0C9F80F
:103EE000074DAB6ADB0303D545210D4812F0C1F83D
:103EF000AB6A20466FEA03436FEA1343AB6238BDF7
:103F000000ED00E01D9402003A9402005294020079
:103F100071940200A0940200C3940200ED94020088
:103F20000C95020070B5234C06460D4622484521EB
:103F300012F09FF8A36AD90403D545211F4812F057
:103F400098F8A36A1A0503D545211D4812F091F887
:103F5000184CA36A9B0510D51A48452112F089F820
:103F6000A26BA36A180408D54521174812F081F8FE
:103F70001EB1A36A23F40043A3620E4CA36A590541
:103F800003D54521114812F074F8A36ADA050BD560
:103F900045210F4812F06DF80020064A936A43F459
:103FA0007F439362287070BDA36A9B04F4D54521BA
:103FB0000848EFE700ED00E03C950200579502004D
:103FC0006D95020085950200A3950200BD95020043
:103FD000DD950200FA95020070B52E4C06460D469E
:103FE0002D48452112F045F8A36ADB0603D545218B
:103FF0002A4812F03EF8A36A1C0703D54521284839
:1040000012F037F8234CA36A980710D545212548AC
:1040100012F02FF8626BA36A190608D545212248D1
:1040200012F027F81EB1A36A23F08003A362194C93
:10403000A36ADB0703D545211C4812F01AF8A36ACE
:104040009E0603D545211A4812F013F8114B9A6ABF
:10405000D40602D49A6A90070DD59B6AD9060AD570
:10406000144915484FF4AE7211F0EFFF4FF4AE71E2
:10407000104811F0E3FF0020064B9A6A920642BFF7
:104080005A6A22F400525A629A6A42F0FF029A6215
:10409000287070BD00ED00E02E96020049960200E7
:1040A0006D950200819602009E960200B99602006C
:1040B000FA950200DD960200568D020070B5694B3C
:1040C0000546586800268AB0C0F3080386F31188B5
:1040D000BFF36F8F02F07F44B4F17F4F07D102F03E
:1040E0000C04082C0ED145215F4811F0C2FF5F4936
:1040F0004FF484625E4811F0A8FF4FF484615B487E
:1041000011F09CFF14074CBF0D460126002DEED088
:104110000024DA1E8DF80740092A00F29280DFE8B9
:1041200002F00585897090909090908D45215148BE
:1041300011F09FFF8DF807404A4CE36A9A0705D5B6
:1041400045214D4811F095FF002429E0E36A002B3A
:1041500002DA45214948F5E7E36A5B005DD5452170
:10416000474811F086FF6369AA6943F4807363616D
:10417000BFF34F8FBFF36F8F636932F8022C23F4C4
:1041800080736361BFF34F8FBFF36F8F4DF6027380
:104190009A421ED145212A683A4811F06AFF2C68DC
:1041A0009DF807309BB92022294602A813F0A8FAEF
:1041B000099B002E51D0C3F3080222B96FEA5323A2
:1041C0006FEA43230993204602A9FFF7FDFC0AB0DA
:1041D00070BDA36ADBB233B101200DF10701FFF717
:1041E000FBFE0446DCE7A36A13F47F4F05D00120F1
:1041F0000DF10701FFF796FEF3E7A36AB3F5803FE1
:1042000002D3FFF739FEECE7184940F2F2221848D2
:1042100011F01BFF40F2F22171E7144940F2F6223F
:10422000134811F012FF40F2F62168E700200DF16B
:104230000701D4E700200DF10701DBE74521124813
:1042400080E7124910F4F87F114A124808BF0A4665
:10425000103B452111F00DFF76E723F4FF7323F0A7
:104260000103AFE700ED00E045970200DD96020094
:10427000568D02007597020091970200B7970200D1
:10428000CA970200EE9702000F98020017970200EB
:104290002C97020038980200044B5A6942F0100231
:1042A0005A615A6942F480625A61704700ED00E039
:1042B000EFF30880EFF3098101B57246FFF7FEFEC8
:1042C00001BD00BF002320210348C2180133452B44
:1042D00082F80013F9D1704700E100E0002080F37C
:1042E0001488BFF36F8F002080F30A8880F30B8857
:1042F000FDF7E8FD00200E490860BFF34F8F0D4821
:1043000080F3088800F03EF8202080F311880A48E6
:104310004FF40061401880F30988EFF31480022104
:10432000084380F31488BFF36F8FFFF7D5FC0000BC
:1043300094ED00E090800020506F0020BFF34F8F7D
:104340000549064BCA6802F4E0621343CB60BFF331
:104350004F8F00BFFDE700BF00ED00E00400FA054D
:10436000002318460649D1F89020C2F30722934251
:1043700000DB7047C1F89830C1F8A0000133F6E7C0
:1043800000ED00E010B572B6002484F31388FFF747
:10439000E7FF23464FF0FF300C4A03F120010133C1
:1043A000102B42F82100F8D100234FF0FF30074ACC
:1043B00003F160010133102B42F82100F8D162B6FD
:1043C000BFF34F8FBFF36F8F10BD00BF00E100E060
:1043D000084B9B6883420BD1EFF3058343B1064B37
:1043E0005A6842F080525A605A6A22F400425A6275
:1043F00010F0E2B9E843002000ED00E01FB5094CE1
:10440000094A23460121094800F024F900230393B7
:10441000074B0121E41A01A80193029400F034F93A
:1044200004B010BD00000720002000201883020007
:10443000B829002010B50C7A0B6804F01F0223F095
:104440001F031A43CB68640923F01F03054943EA9D
:10445000440343F00103C1F89800C1F89C20C1F85F
:10446000A03010BD00ED00E030B50C684B6885B0A1
:104470000A894D890094013B24F01F04234402F073
:104480001F0242EA451223F01F03072804468DF855
:104490000820039309D902464521064811F0E9FD99
:1044A0006FF01504204605B030BD6946FFF7C2FF26
:1044B000F8E700BF549802002DE9F04F89461446F2
:1044C00006464FF00008544D85B0C84527DAD6F8A7
:1044D00004A0BAF1000F44D0BAF11F0F18D91AF096
:1044E0001F0F15D1D6F800B01BF01F0F10D1584682
:1044F00013F012F807460AEB0B00013813F00CF822
:10450000874210D06FF015073A464521434802E034
:1045100042464521424811F0ACFD6FF0150420469B
:1045200005B0BDE8F08F17F1160FEDD0BC42EBDD02
:10453000C5F89870D5F89C10C5F89870D5F8A030DB
:1045400021F01F0143F01F0BD6E900321A449942B3
:1045500002F1FF3A1DD1D34507D13146F8B2FFF73A
:1045600083FF08F101080C36AFE73146C5F89870B3
:10457000D5F89C3022F01F0203F01F031343C5F847
:104580009C30E0B2FFF770FF10F1160FC5D0441C4D
:10459000E7E7C5F89870D5F8A020013B23F01F038A
:1045A00002F01F021343D3453146E0B2C5F8A030F4
:1045B000E8D0FFF759FF10F1160FAED0C5F898708C
:1045C000D5F89C209DF808300BF1FF3B62F3040303
:1045D0008DF80830D5F8A0309DF808205B0863F30B
:1045E0004712D6E900310B44009323F01F0301303A
:1045F0005B44A3EB0A03C0B223F01F0307288DF826
:104600000820039303D902464521064883E76946FB
:10461000FFF710FFBBE700BF00ED00E0A798020026
:104620007F980200549802000522044BC3F894209E
:10463000BFF34F8FBFF36F8F704700BF00ED00E0F7
:10464000BFF35F8F0022024BC3F89420704700BF76
:1046500000ED00E010B5094C2278FFF72DFF207027
:1046600016300AD1064907484FF48D7211F0EDFC5F
:104670004FF48D71024811F0E1FC10BD3F4600205F
:10468000CF980200568D02002DE9F74F2E4D8A4635
:1046900006464FF00008AB462C4FD04502DB03B076
:1046A000BDE8F08FD6F80490B9F1000F47D031681B
:1046B0000846019112F030FF0199044609EB010010
:1046C000013812F029FF84424FF01402204B10D021
:1046D00002FB08F36FF015024BF803201D491E483A
:1046E0004FF4957211F0B1FC4FF49571194811F027
:1046F000A5FC14F1160F2C60F0D01978A142EDDD65
:1047000002FB08B0C7F89840C7F89840D7F89C401B
:1047100000F10801007B64F304000871D7F8A000E1
:104720000C79400860F347140C71D7F89C1021F005
:104730001F016960D7F8A01021F01F01296108F15D
:10474000010814350C36A8E7843C002000ED00E099
:104750003F460020CF980200568D020038B51A4D12
:104760002C68082C0AD9194940F25112184811F046
:104770006CFC40F25111154811F060FC0020FFF76D
:104780005FFF144B144AC3F8C020844213D1134B6B
:104790001C70FFF749FF0F4BD3F89030C3F307238A
:1047A000082B0FD0094940F2BB12094811F04DFC0B
:1047B00040F2BB11DFE7696801EB0011FFF73AFE39
:1047C0000130E2E7002038BD24830200CF980200C8
:1047D000568D020000ED00E0AAFF44003F46002095
:1047E000014B1860704700BF2C2200200CB410B59C
:1047F00086B009B90DF10B000024CDE9040109AB25
:10480000089A009404A905480393FCF7A9FE049BA9
:104810001C7006B0BDE8104002B070472F37020090
:104820001022044B0020C3F840244FF05023C3F85B
:10483000140670470030005030B503788BB0044642
:1048400007AD032B21D8DFE803F0021A1C1E124922
:10485000284612F0E1FE059563781E210493A378A3
:104860000E4A0393E3780E48029323790193637908
:104870000093A37911F034F909480BB030BD094910
:10488000E6E70949E4E70949E2E70A212846084A38
:1048900011F026F9DFE700BF978A0200C08A020004
:1048A000404600209E8A0200A58A0200AF8A0200CC
:1048B000B98A020008B508490848CA79C2EBC202A1
:1048C000FEF7C6FA024628B1BDE808404521044873
:1048D00011F0CFBB08BD00BF002000204F9902009F
:1048E00055990200F7B5054616461F461A4CD4E8FE
:1048F000AF3FDA0729D538B94521184811F0B9FB7F
:104900006FF0010003B0F0BD01A912F0D4F8144912
:104910000246284612F0BAFE0028F1D1D4E8AF3F93
:10492000C3F3C0051B0710D4CC3C072221463846F0
:10493000B04706280BD845210A4811F09AFB0722F8
:104940002946204612F0E7FEE5710020DAE707234A
:10495000B0FBF3F0E071F8E7CC200020759902007D
:10496000AC8A02009B9902002DE9F04188B0DDF885
:1049700038809C795D791E79DF7893F802C093F8CE
:1049800001E01B78B8F1000F0ED0CDE90638CDE973
:1049900004CE1346CDE90267CDE90045084A11F07F
:1049A0009FF808B0BDE8F081CDE905E3CDE9037CCF
:1049B0001346CDE90156034A009411F091F8F0E74F
:1049C000C5990200E999020001480EF033BD00BF0D
:1049D00030220020F8B5184DD5E8AF3F13F0010F95
:1049E0002E4627D015F8C53CA5F1CC0783B901F0B8
:1049F000A3FC044628B14521104811F03AFB20469B
:104A0000F8BDFB7923B901F0D9FC04460028F2D1A6
:104A1000D5E8AF3F5A0701D401F03CF9D6E8EF3FA3
:104A200023F48032C6E8E12F0029F7D1DB0301D55A
:104A3000FFF7CAFF0024E2E7CC2000200A9A020018
:104A400010B5FEF775FB044620B102464521024829
:104A500011F00FFB204610BD339A020030B5002440
:104A6000094D0A4B85B02846029303940EF036FD9B
:104A700002AB284600934FF4A3620A2304490EF0C8
:104A800043FD204605B030BD282D00206C9A020061
:104A9000A84A0020014601480EF032BE282D002011
:104AA000014601480EF092BE282D0020034630B486
:104AB0001A780846012A13D0022A26D072B9154A5C
:104AC00002F1100452F8045BA24241F8045BF9D1F0
:104AD00012780A705B8843731B0A837330BC70477B
:104AE0000C4A02F1100452F8045BA24241F8045B44
:104AF000F9D112780A705B68C3F3072243731B0C69
:104B0000C3731B0A82730374E8E7112230BC194691
:104B100012F0F6BD759A020038B50546012D104613
:104B200019460CD0032D16D0052D14D00C490D4874
:104B30003D2211F08AFA3D21094811F07FFA0A4816
:104B400015F076F9044620B101210C3008F0F2FC92
:104B50002576204638BD02460B460448F0E700BFE4
:104B6000869A0200568D0200B028002014280020EA
:104B700010B50B460A490246D1F8380120B9BDE804
:104B800010400120FFF7C8BF08F0EEFD012100230F
:104B90000446017603820C3008F0CCFC204610BDA0
:104BA0000020002070B504460F2C0D461046194613
:104BB00005D80D2C0DD9BDE87040FFF7D9BF132CD7
:104BC00007D10C4815F034F9044638B900242046C2
:104BD00070BD02460B4645B10748F3E701210C3092
:104BE00008F0A8FC01232376F1E70120BDE870401E
:104BF000FFF792BF4C2900207C28002038B5C368FD
:104C0000B3F801401B7863B9204602F085FB0546E6
:104C100040B9084B1A8822B96FEA04506FEA105065
:104C2000188038BD012102F07FFB2846BDE83840DE
:104C300002F04ABB1C460020F8B5C5682E78BEB904
:104C4000B5F80170384602F067FB044630B93A46C1
:104C5000BDE8F8404521074811F00BBAEB78314622
:104C6000037302F061FB2046BDE8F84002F02CBB64
:104C7000F8BD00BFB59A020010B5C368B3F8014093
:104C8000204602F049FB30B92246BDE810404521DC
:104C9000034811F0EEB9BDE8104002F015BB00BFAB
:104CA000E09A020010B5C3681C88204602F034FB6D
:104CB00030B92246BDE810404521034811F0D9B96A
:104CC000BDE8104002F000BBE09A0200012108B5E7
:104CD0000C3008F0F3FDBDE808400278452101489A
:104CE00011F0C7B9099B0200014608B5074808F052
:104CF00041FC0749074816F046FD021E05DABDE8EB
:104D000008404521044811F0B4B908BD3C210020F9
:104D10007C220020482E0020309B020010B5084C59
:104D20000146052294F8670002F03CFD38B994F87A
:104D300067000422BDE81040024902F033BD10BDF7
:104D4000002000202E99020070B5C568B5F80160FA
:104D5000304602F0E1FA044630B93246BDE8704010
:104D600045210A4811F085B92B7823B90822E91C9E
:104D7000B53012F0C5FC201D4FF4805112F0B3FD88
:104D80002046BDE8704002F09FBA00BFE09A0200E2
:104D900030B405461446084602EBC3039C4201D1D9
:104DA00030BC7047224612F8081BA9420CD1028A77
:104DB0006378934205D92B4630BC4521034811F056
:104DC00058B9636830BC18471446E7E7529B0200A5
:104DD00010B5012104460C3008F070FD2146BDE8F5
:104DE00010400A23014A0078FFF7D2BFE483020093
:104DF00070B5444808F010FC0446002800F081809B
:104E0000027E012A4DD0032A78D1038A032B0BD8C6
:104E100040F2ED123C493D4811F017F9404080F353
:104E200011884FF0030002DF042104F10C0008F0A8
:104E300045FDFF22438806886276228AC6F30B006E
:104E40009342608307D04521314811F012F9204682
:104E500008F048FC14E002F05FFA054628B9452145
:104E6000628B2C4811F005F9F1E702F00FFB2146A7
:104E70006076320B284602F015F9284602F024FA33
:104E8000254BD3F83C31002B3BD02449244816F065
:104E90007AFC021E35DABDE870404521214811F048
:104EA000E8B8038A012B0BD840F66D121649174853
:104EB00011F0CBF8404080F311884FF0030002DF7F
:104EC000022104F10C0008F0F9FC0546007812F00C
:104ED000DCFC83070BD440F671120B490B4811F030
:104EE000B4F8404080F311884FF0030002DF06233E
:104EF00021460D4A2878FFF74BFFA8E745210B48CC
:104F0000B0E770BD3C210020799B0200568D020065
:104F1000AD9B0200D69B0200002000207C220020D6
:104F2000482E0020309B0200B4830200FD9B02004B
:104F3000F8B50746907A0E46144608F0D3F9284B88
:104F400083424BD1204608F0D5F90C23254D03FBB5
:104F500000504388BB4241D1234FD7F8380120B1DC
:104F600008F0C0FB0023C7F83831204608F0C2F92A
:104F70000C2707FB005043689BB196B9204608F008
:104F8000B9F9012107FB00504268D2E90003127A07
:104F900003F01F07B9405B09D2B100EB830012F0A8
:104FA000A2FC204608F0A6F90C2707FB00508368F6
:104FB000A3B1204608F09EF978432E54204608F00D
:104FC00099F907FB0055A868BDE8F8400DF008BF47
:104FD000C94300EB830012F091FCE2E7F8BD00BF8B
:104FE00018290020983C00200020002038B504211A
:104FF00004460C3008F062FC45780178224640886F
:10500000FFF796FF25B1BDE8384002480DF0E8BE35
:1050100038BD00BF2021002038B5032104460C30E4
:1050200008F04CFCE368057822461978B0F80100D6
:10503000FFF77EFF25B1BDE8384002480DF0D0BE35
:1050400038BD00BF202100202DE9F0470025A846EB
:10505000C768DFF8D0903B789D4201DBBDE8F08760
:1050600007EB8503B3F801A0B3F80360504602F0E4
:1050700053F90446D0B100F1280A46B34FF020039B
:10508000EFF3118283F31288BFF36F8FE369A3B14B
:10509000013BE36182F31188BFF36F8F204601F07B
:1050A0008FFF013E0DF09CFEB6B2E6E75246452169
:1050B0001D4810F0DEFF0135CDE763695BB982F36F
:1050C0001188BFF36F8F4521484610F0D2FF20466C
:1050D00002F0FAF8EFE7A16918688B42606108BF37
:1050E000A06182F31188BFF36F8F4FF02002EFF3BE
:1050F000118182F31288BFF36F8FDA68E261C3F81F
:105100000C80C3F80080626A4AB9C4E9083381F3AD
:105110001188BFF36F8F50460EF08CF9BEE7136015
:105120006362F4E7379C0200169C020073B5C56801
:10513000B5F80160304602F0EFF8044638B932465F
:105140004521284802B0BDE8704010F092BF2B788E
:10515000061D1A2B19D1C378012B2AD14FF4806177
:10516000304612F0C0FB42050FD4D4F8A83069468F
:105170000093D4F8B0302046019302F045FE20465B
:1051800002B0BDE8704002F09FB82B788BB9B5F83B
:105190000330A4F8A630B5F80530A4F8AC30B5F863
:1051A0000730A4F8AE306FF48071304612F0A6FBE1
:1051B00014E0D6E8AF3FDB05F5D52B78202BF2D1F4
:1051C00094F8B430002BEED0013B84F8B4304FF4A7
:1051D0002032002304F160000EF0F2FA204602F0C3
:1051E0009DF9CCE7E09A020010B5C1E900239DF8D3
:1051F00008300C460B7208F07DF80C22024B02FBC3
:1052000000335C6010BD00BF983C00202DE9F047E2
:105210004FF0FF3206464FF0FF331D480F4614F0A3
:1052200007FE044650B91B491B4840F2011210F01A
:105230000CFF40F20111174810F000FF4FF000087A
:1052400000F10C0A0121504608F074F9204684F858
:10525000188008F04FF84FF00C09104D09FB005072
:105260004680204608F046F809FB0050C0F8088048
:10527000204608F03FF809FB005503215046C5F8C9
:10528000048008F035FB068087702046BDE8F08773
:1052900018290020799B0200568D0200983C0020BE
:1052A00070B515460C4686B021B9FFF7AFFF04462E
:1052B000002841D001220021684616F001FA20465C
:1052C00008F018F80C231E4E03FB0060C0F808D04D
:1052D000204608F049FA01461A4808F0E3F94FF46D
:1052E000A022002368460DF0B5FD58B140F24912E6
:1052F0001549164810F0A9FE404080F311884FF080
:10530000030002DF204607F0F5FF0C235843365C0C
:1053100056B1204608F0E6F9092E14BF6FF00400DC
:105320006FF06E0006B070BD15B12C600020F9E77B
:10533000204608F0D7F9F9E76FF06800F2E700BF00
:10534000983C002044210020799B0200568D0200E9
:1053500073B506460D4642F22F00002101AAFFF761
:105360009FFF044630B14521084810F082FE2046D8
:1053700002B070BD0198C368B3F801203280B3F861
:1053800003302B8008F0AEF9F1E700BF539C020018
:10539000F7B5144B054693F993300C46002B1DDAF4
:1053A00014B9204603B0F0BD082C4FF0000142F2C2
:1053B000180001AA264628BF0826FFF771FF00281B
:1053C000F0D1019F3246F9682846013112F098F970
:1053D000384608F087F93544A41BE1E76FF08500F3
:1053E000E0E700BF002000202DE9F047B0F8017091
:1053F00000266FEA07536FEA135305468B4A9BB2A8
:10540000118888B0994204BF1680012600F0B4FDCF
:105410002C781FFA87F8F4B13C2C44D101F03AF90A
:105420006FF08001103012F069FA0020FFF776FC6F
:10543000054630B945217E4808B0BDE8F04710F078
:1054400018BE0473002101F06FFF284608B0BDE8C4
:10545000F04701F039BF2B7905F10409023B012B1C
:1054600024D8494606A812F03BFA9DF818300622C7
:10547000023B05F111010DF111008DF8183012F009
:105480003FF901238DF81030EB78012B21D04846ED
:10549000FFF7D2F945210246664810F0EAFD1F21C8
:1054A000404612F044FA08B0BDE8F087EB78494670
:1054B000012B04BF604B93F86740204612F052FB6B
:1054C000014606A812F00CFA494604A812F008FAA0
:1054D000DAE706A8FFF722FCEB780446012B0AD195
:1054E00001F0D8F882466FF08001103012F006FA11
:1054F000504612F051FC002CC9D0204606A920F8D5
:10550000907B12F0EDF90022B5F81730A4F8A63020
:10551000B5F81930A4F8AC30B5F81B30A4F8AE30AB
:10552000EB782273012BE37015D104A904F19700E5
:1055300012F0D6F901F0AEF8217A3F4DC1EBC1016E
:10554000294404F19E0012F0CBF9D5F8DC305D0659
:1055500001D501F04BFA0721204601F0E5FE1EB10E
:105560000121204601F0E0FE204612F09AFC637B08
:10557000072B53D1231DD3E8AF3F13F4805F2E4E8A
:105580001FD1E3781BB196F8D030180719D5022146
:1055900042F21600FFF73AFE0546002842D00221EB
:1055A0000C3008F0A5F9238800220380294642F236
:1055B0001600FFF775FE024618B145211F4810F08E
:1055C00058FD96F8D130D9070CD50021022320468A
:1055D0001A46009112F0E4F9024618B14521184824
:1055E00010F047FD96F8D0309A0617D5D6F86031FE
:1055F0009B689B0712D50DF10E0103A8FFF7A8FECB
:1056000060B9BDF80E202046BDF80C1012F0AAF9C2
:10561000024618B145210B4810F02BFD204601F041
:1056200053FE40E76FF06802C7E700BF1C4600204A
:10563000789C02009E9C020000200020BF9C02007B
:10564000E59C0200019D020010B5C16888B00B788E
:10565000164C8DF80030B1F8013001A8ADF80130DA
:10566000CB7804318DF80330B1F80730ADF817303E
:10567000B1F80930ADF81930B1F80B30ADF81B3086
:105680004B7B8DF81D3012F02BF9214606220DF1CF
:105690000B0012F035F8062221460DF1110012F030
:1056A0002FF86846FFF7A0FE08B010BD429902002F
:1056B00029289ABF014B185C09207047AC9E020054
:1056C00070B5C368B3F801601D78304601F024FE60
:1056D000044630B93246BDE870404521154810F007
:1056E000C8BC65B12846FFF7E3FF294602462046BD
:1056F00001F0ECFF2046BDE8704001F0E5BD837885
:10570000012BEFD106F05EF9204612F0D1F8002807
:10571000E8D10520FFF7CCFF05210246204601F025
:10572000D5FF4521044810F0A4FC0521204612F0C5
:10573000C1FBDFE7B59A0200229D0200F8B5C668FA
:10574000B6F801703578384601F0E6FD044630B908
:105750003A46BDE8F84045211A4810F08ABC65B1C8
:105760002846FFF7A5FF29460246204601F0AEFF76
:105770002046BDE8F84001F0A7BD8278F378012A01
:10578000C37205D00020FFF793FF00210246ECE72B
:105790000BB106F017F9204612F08AF80028F1D173
:1057A0000520FFF785FF05210246204601F08EFF08
:1057B0004521054810F05DFC0521204612F07AFBDA
:1057C000D6E700BFB59A0200229D0200024BD3F833
:1057D00060315B69184700BF0020002038B50546DE
:1057E0000C4619B9FFF712FD0446C0B140F6354327
:1057F0009D420ED12046FFF7E9FF054668B10246FB
:105800004521084810F035FC204607F06BFF28467C
:1058100038BD2146044807F045FF0025F7E76FF043
:105820006805F4E74D9D020044210020F8B50446C8
:10583000458B467E807A07F055FD214615F036FFF0
:105840001B4B93F882309B0631D5304602F0A8F905
:1058500068B3437B073B012B03D9BDE8F84001F057
:1058600033BD01F031FD052140F63540FFF7CEFC98
:10587000044628B9BDE8F84045210E4810F0F9BBB0
:1058800000F10C070121384608F032F80126042106
:105890000670384608F02CF8002305808670C37027
:1058A0002146BDE8F84040F63540FFF797BFF8BD08
:1058B00000200020749D0200F0B5C46887B02688DF
:1058C000B7B2384601F028FD054638B93A464521B9
:1058D000204807B0BDE8F04010F0CBBB02AFD4F8D1
:1058E0000220D4F8063001976189009113F01CFE64
:1058F000F8B1122142F21A00FFF788FC044640B9C1
:105900004521154810F0B5FB284601F0DDFC07B035
:10591000F0BD12210C3007F0EBFF3946102220F8C1
:10592000026B11F0EDFE214642F21A00FFF756FF1E
:10593000EAE7022142F21B00FFF768FC0446002858
:10594000DED002210C3007F0D3FF2146068042F260
:105950001B00EBE7E09A02009C9D020070B5064632
:105960000D4642F221000321FFF750FC044628B9FE
:10597000BDE870404521084810F07BBB03210C3086
:1059800007F0B6FF068085702146BDE8704042F200
:105990002100FFF723BF00BFB89D0200F7B5C36821
:1059A000D9789A781F8842EA0122ADF80020597907
:1059B0001A79BCB242EA0122ADF802209A79D9796B
:1059C000204642EA0122ADF804201A7A5B7A42EAC4
:1059D0000323ADF8063001F09FFC064650B945217F
:1059E0001C48224610F045FB02212046FFF7B6FF77
:1059F00003B0F0BD694601F0E1FD38B91E21204633
:105A0000FFF7ACFF304601F05FFCF1E70E2142F2F8
:105A10002000FFF7FBFB05460028F3D00E210C30D9
:105A200007F066FF04460E22002111F074FE278065
:105A3000BDF8003029466380BDF8023042F22000F4
:105A4000A380BDF80430E380BDF806302381FFF762
:105A5000C5FED7E7E09A02002DE9F047414FDFF895
:105A6000088107F11409FB6848466FF39433FB6023
:105A700001F0CEFB451C4FF0FF324FF0FF332946BB
:105A800038480FF093FC58B140F6E61241463748CB
:105A900010F0DBFA404080F311884FF0030002DF82
:105AA000304E15B90EF058FDDDE7F368C3F38633C9
:105AB000042B4CD1337B002B4CD1002200232C48EB
:105AC00014F0BBF9044658B94FF418624146274810
:105AD00010F0BBFA404080F311884FF0030002DF62
