:020000040100F9
:10000000880D00211121000143410001E52000017C
:10001000E5200001E5200001E520000100000000CE
:10002000000000000000000000000000551C00015E
:10003000E520000100000000E5200001E5200001AE
:10004000B11C0001B11C0001B11C0001B11C000178
:10005000B11C0001B11C0001B11C0001B11C000168
:10006000B11C0001B11C0001B11C0001B11C000158
:10007000B11C0001B11C0001B11C0001B11C000148
:10008000B11C0001B11C0001B11C0001B11C000138
:10009000B11C0001B11C0001B11C0001B11C000128
:1000A000B11C0001B11C0001B11C0001B11C000118
:1000B000B11C0001B11C00010000000000000000A4
:1000C0000000000000000000000000000000000030
:1000D0000000000000000000000000000000000020
:1000E0000000000000000000000000000000000010
:1000F0000000000000000000000000000000000000
:1001000000000000000000000000000000000000EF
:1001100000000000000000000000000000000000DF
:1001200000000000000000000000000000000000CF
:1001300000000000000000000000000000000000BF
:1001400000000000000000000000000000000000AF
:10015000000000000000000000000000000000009F
:10016000000000000000000000000000000000008F
:10017000000000000000000000000000000000007F
:10018000000000000000000000000000000000006F
:10019000000000000000000000000000000000005F
:1001A000000000000000000000000000000000004F
:1001B000000000000000000000000000000000003F
:1001C000000000000000000000000000000000002F
:1001D000000000000000000000000000000000001F
:1001E000000000000000000000000000000000000F
:1001F00000000000000000000000000000000000FF
:10020000DEE61E284CBBCE8F023500003C0000000D
:10021000665A00000100000000000001000000011B
:10022000FFFF02910000000000000000000000003D
:10023000000000000000000000000000FFFFFFFFC2
:1002400053B94AB9002908BF00281CBF4FF0FF313D
:100250004FF0FF3000F00CB8ADF1080C6DE904CEA2
:1002600000F0D0F9DDF804E0DDE9022304B07047C6
:10027000704700BF30B44FF0000310F8014B11F885
:10028000015B013A84EA050443EA0403F5D1A3F1D2
:1002900001034FEAD37030BC704700BF4FF000033A
:1002A00010F8012B013943EA0203F9D1A3F101034C
:1002B0004FEAD370704700BF30B411F8014B12F809
:1002C000015B6C4000F8014B013BF6D130BC70473C
:1002D0002DE9F04F90E8F00F00F140004FF0040ED0
:1002E00059E0F0B4826BC36B046805252426875956
:1002F0003C444FEA724787EAF24787EA92273C4438
:1003000042684FEAF21787EAB24787EAD2073C44CD
:1003100040F8044B032D08BF6FF01B0687593A4481
:100320004FEA734787EAF34787EA93273A444368DB
:100330004FEAF31787EAB34787EAD3073A4440F80E
:10034000042B87593B444FEA744787EAF44787EA0E
:1003500094273B4444684FEAF41787EAB44787EA96
:10036000D4073B4440F8043B013DC0D1A0F13C0020
:10037000076A3C444FEA724787EAF24787EA9227C6
:100380003C4402684FEAF21787EAB24787EAD2078D
:100390003C44C463F0BC4FF0020288EA781C8CEA4B
:1003A000F84C0BEBBC1C8AEA090303EA080383EA56
:1003B0000A039C4450F8043B9C4451F8043B9C4481
:1003C000674444EA050B0BEA060B04EA05034BEA13
:1003D000030BE34484EAF42383EA34530BEBB30BBB
:1003E00087EA771C8CEAF74C0AEBBC1C89EA080305
:1003F00003EA070383EA09039C4450F8043B9C4446
:1004000051F8043B9C4466444BEA040A0AEA050A94
:100410000BEA04034AEA030AE2448BEAFB2383EA79
:100420003B530AEBB30A86EA761C8CEAF64C09EBDE
:10043000BC1C88EA070303EA060383EA08039C441A
:1004400050F8043B9C4451F8043B9C4465444AEA00
:100450000B0909EA04090AEA0B0349EA0309E14422
:100460008AEAFA2383EA3A5309EBB30985EA751C51
:100470008CEAF54C08EBBC1C87EA060303EA05038B
:1004800083EA07039C4450F8043B9C4451F8043B26
:100490009C44644449EA0A0808EA0B0809EA0A038A
:1004A00048EA0308E04489EAF92383EA395308EB70
:1004B000B30884EA741C8CEAF44C07EBBC1C86EA93
:1004C000050303EA040383EA06039C4450F8043B53
:1004D0009C4451F8043B9C44E34448EA090707EA7A
:1004E0000A0708EA090347EA0307674488EAF8238A
:1004F00083EA385307EBB3078BEA7B1C8CEAFB4C8F
:1005000006EBBC1C85EA040303EA0B0383EA05033C
:100510009C4450F8043B9C4451F8043B9C44E24406
:1005200047EA080606EA090607EA080346EA030658
:10053000664487EAF72383EA375306EBB3068AEA71
:100540007A1C8CEAFA4C05EBBC1C84EA0B0303EA28
:100550000A0383EA04039C4450F8043B9C4451F88A
:10056000043B9C44E14446EA070505EA080506EA1F
:10057000070345EA0305654486EAF62383EA365312
:1005800005EBB30589EA791C8CEAF94C04EBBC1C39
:100590008BEA0A0303EA090383EA0B039C4450F83D
:1005A000043B9C4451F8043B9C44E04445EA060467
:1005B00004EA070405EA060344EA0304644485EAFE
:1005C000F52383EA355304EBB304013A7FF4E5AE37
:1005D000A0F14000BEF1010E7FF483AEA0F1400C0B
:1005E0009CE80F00001949199219DB19ACE80F00BB
:1005F0009CE80F004044494452445B44ACE80F007F
:10060000BDE8F08F2DE9F04786468C460846089EE7
:10061000154674461946002B40F0C1808542B2FA57
:1006200082F245D94AB1C2F1200300FA02FC95409A
:1006300094402EFA03F343EA0C0C4FEA154EA8B28D
:10064000230CBCFBFEF80EFB18CC08FB00F943EAB8
:100650000C43994528D9EB1808F1FF3704D2994586
:1006600002D9A8F102072B44A3EB0903A4B2B3FB00
:10067000FEFC0EFB1C330CFB00F044EA0344A042DA
:1006800014D92C190CF1FF3304D2A04202D9ACF1D9
:1006900002032C44241A43EA07401EB1D44000232D
:1006A00034607360BDE8F0874746DDE76346F1E7F5
:1006B00092BB431B01214FEA154EAFB2200CB3FB96
:1006C000FEFC0EFB1C330CFB07F840EA0343984585
:1006D00061D9EB180CF1FF3004D2984502D9ACF186
:1006E00002002B44A3EB0803A4B2B3FBFEFC0EFBF9
:1006F0001C330CFB07F744EA0344A7424DD92C19DD
:100700000CF1FF3304D2A74202D9ACF102032C440E
:10071000E41B43EA0040C0E7C2F120039540944047
:1007200020FA03F12EFA03F34FEA154E9040AFB2D0
:100730000343B1FBFEFC0EFB1C10190C0CFB07F86D
:1007400041EA0041884522D969180CF1FF3004D2F2
:10075000884502D9ACF102002944A1EB08019BB203
:10076000B1FBFEFC0EFB1C110CFB07F743EA014337
:100770009F420ED9EB180CF1FF3104D29F4202D9EF
:10078000ACF102012B44DB1B41EA004193E76046D8
:10079000E3E76146F7E76046A4E76346B8E78342CC
:1007A00006D916B9002108467CE7C6E900E0F9E75A
:1007B000B3FA83F78FB9834201D3724508D8BEEBF1
:1007C000020460EB030301209C461EB9002169E787
:1007D0003846FAE7C6E9004CF8E7C7F1200CBB4001
:1007E0000EFA07F522FA0CF42EFA0CF1BA401C436B
:1007F00020FA0CF3B8404FEA144901431FFA84FE73
:10080000B3FBF9F809FB18300B0C08FB0EFA43EAAE
:1008100000439A4540D9E31808F1FF3004D29A45C5
:1008200002D9A8F102002344A3EB0A0389B2B3FB67
:10083000F9F809FB183308FB0EFE41EA03418E4527
:100840002CD9611808F1FF3304D28E4502D9A8F1E2
:100850000203214443EA0040A1EB0E01A0FB0298F1
:100860004145CE46434602D306D14D4504D2013818
:10087000B9EB020E68EB0403002EA7D0B5EB0E0215
:1008800061EB030101FA0CFC22FA07F3F9404CEA90
:100890000303C6E9003199E74046C5E74346D9E777
:1008A0002DE9F04D0FF2D82BDBE900AB0027B2B0F9
:1008B000CDE900AB0FF2D02BDBE900AB1446CDE95C
:1008C00002AB0FF2CC2BDBE900AB0546CDE904AB64
:1008D0000FF2C42BDBE900ABCDE93072CDE906ABFA
:1008E000002A78D180273A2101200E236E46CDF8C8
:1008F00081200DEB07080DF185028DF8807000272F
:10090000022B176021D0032B57601ED0042B976059
:100910001BD0052BD76018D0062B176115D0072BDD
:10092000576112D0082B97610FD0092BD7610CD0DB
:100930000A2B176209D00B2B576206D00C2B97623B
:1009400003D00E2BD76208BF1763B1EB830F00EB08
:10095000830012D0431C002232A901443B2B01F832
:10096000482C0AD032A90B4403F8482C392800F14E
:1009700002031CBF5B1803F8482C630F8DF8BB30D3
:10098000630D8DF8BC30630B41468DF8BD303046A9
:100990006309E4008DF8BE308DF8BF4003F042FAE1
:1009A000DDE90001DDE9022306BA14BA18BA09BA72
:1009B000DDE9042312BA69602A6119BADDE9062368
:1009C00012BA1BBA2E60AC60E8606961AA61EB6183
:1009D00032B0BDE8F08D6E463046884603F0C4F96B
:1009E000241A034608EB0401002800F0B880421ED8
:1009F000022A45D958F8042020928208012A3AD0C8
:100A00004868022A219036D08868032A229032D082
:100A1000C868042A23902ED00869052A24902AD079
:100A20004869062A259026D08869072A269022D070
:100A3000C869082A27901ED0086A092A28901AD067
:100A4000486A0A2A299016D0886A0B2A2A9012D05E
:100A5000C86A0C2A2B900ED0086B0D2A2C900AD055
:100A6000486B0E2A2D9006D00F2A886B18BFCA6BD0
:100A70002E9018BF2F9223F00307BB42394414D0A5
:100A8000087832AA3A4402F8480C7A1C93420CD9EE
:100A900032A8024402374878BB4202F8480C04D915
:100AA0008A7832A90F4407F8482C8021581C32AAB2
:100AB0001A443828309302F8481C5AD93F282DD8B8
:100AC000002232A908443E2B03F1020100F8482C11
:100AD00024D032A801443D2B01F8482C03F1030136
:100AE0001CD001443C2B01F8482C03F1040115D023
:100AF00001443B2B01F8482C03F105010ED00144C1
:100B00003A2B01F8482C03F1060107D003463E2991
:100B10000B4403F8482C01D18DF8BF200DF180085B
:100B20004146304603F07EF93A28319C3FF625AF26
:100B3000431C3B2BC0F13A02C0F13B0188BF0121AD
:100B4000022A7FF608AF002300F18002B3508B0821
:100B50003244012B02F104027FF4D1AEF5E680228B
:100B600030903A210120319C0DEB02088DF8802055
:100B7000E9E7319C0DF18008DAE700BFAFF30080B0
:100B800067E6096A85AE67BB72F36E3C3AF54FA51E
:100B90007F520E518C68059BABD9831F19CDE05B4A
:100BA0002DE9F04385B0324803F064FD28B931489F
:100BB00005B0BDE8F04303F072B94FF408414FF0BF
:100BC000807003F0B0FC38B12B4803F068F905B031
:100BD000BDE8F04302F0CABB02F0C0FB054602F0DC
:100BE000CDFBE8B903F017FD04460146284603F0A3
:100BF000D6FC10B92146214805E01D4802F0D0FB83
:100C0000014618B11E4803F04AF9E0E72946284694
:100C100003F0C5FC10B102F0FFFBFEE72946EAE74E
:100C20004FF45E31174803F07EFC014608B11648C8
:100C3000E9E70446DFF85490DFF8548001AF59F833
:100C4000046B98E807002E4487E807000C22394619
:100C5000304603F08DFA00B91EB90134052CEED1EF
:100C60000026304605B0BDE8F04302F0B1B900BF40
:100C700018470001E44A0001FC4A00012A4B000128
:100C8000544B000100880001734B0001D84800015B
:100C900090480001014B1B68184700BF000000216D
:100CA000014B1860704700BF0000002107B50B46DC
:100CB000002102460091034800F008FA03B05DF8F5
:100CC00004FB00BF950C00012DE9F0471646028B8E
:100CD0000446100712D4022902F007025BD1204615
:100CE00003F0EAF888B10138042800F21081DFE847
:100CF00010F052000E017400B300E00001290CBF97
:100D000042F0100242F02002228386F31188BFF3E2
:100D10006F8FBDE8F08703F00701481F01281ED838
:100D2000002006292768C4E9000014D1394603E0F1
:100D3000608B0130608309680029F9D123F0070333
:100D400043F002012046218303F0B6F890B341F04E
:100D5000200121832EE023F0070399B2F2E7042952
:100D600030D123F0070399B22046218303F0A4F881
:100D700010B141F020012183238B03F00709914535
:100D800040F0CE80228BD10640F1F68022F0100395
:100D9000238302F00702D4F81480238BB8F1000FEC
:100DA000B9DA0021276823F00703C4E9001143F0F2
:100DB00001032383238B03F00709914500F0E580AD
:100DC000002536E07C4940F21B127C4803F04CF9C8
:100DD00040F21B11784803F040F942B176494FF4D4
:100DE000AB72764803F040F94FF4AB71F2E7236839
:100DF00043B9714940F25712704803F035F940F297
:100E00005711E7E723691D6845B96B494FF4AD7287
:100E10006A4803F029F94FF4AD71DBE717469046B5
:100E20004FF00609238B23F0070343F006039BB220
:100E30002383A268002A76D1002F40F0AA80002DDB
:100E4000A0D043F00803238386F31188BFF36F8F8C
:100E500020465B49A84782E0022A08D0564940F262
:100E60005D12564803F000F940F25D11B2E7678B5E
:100E700047B151494FF4AF72504803F0F5F84FF4C1
:100E8000AF71A7E723695D6845B94B4940F261122C
:100E90004A4803F0E9F840F261119BE7238BB8461A
:100EA00023F0070343F004039BB24FF004092383AC
:100EB000BFE7012A08D040494FF4B2723F4803F01F
:100EC000D3F84FF4B27185E7236843B93A4940F249
:100ED00065123A4803F0C8F840F265117AE72369D1
:100EE0009D6845B934494FF4B472344803F0BCF8F6
:100EF0004FF4B4716EE70027238BB84623F0070345
:100F000043F005039BB24FF00509238391E72A497B
:100F100040F26B12294803F0A7F840F26B1159E731
:100F200000273D4685E743F00803238386F31188B5
:100F3000BFF36F8FA168002932D00E6881B343469A
:100F40004A462046D1F804A0D0471EB13368314646
:100F50001E46F3E73346FAE7002D7FF479AF4FF0F2
:100F60002003EFF3118683F31288BFF36F8F238B77
:100F700023F00803238305E793067FF5C6AE22F02E
:100F80002003238302F00702A9E6002F3FF4FAAE04
:100F9000002543F00803238386F31188BFF36F8F86
:100FA000002FD9D03E68394643464A46204602F0D3
:100FB000AFFF3746F4E700BFA64B0001C84B000166
:100FC0003D3F000170B505460E4602F091FF041E3C
:100FD00015DB4FF02003EFF3118283F31288BFF388
:100FE0006F8F4FF6FF716B8B2C8B8B4204F00704D5
:100FF00007D182F31188BFF36F8F6FF00A04204688
:1010000070BD022C0CD101336B8382F31188BFF3C6
:101010006F8F002322463146284602F079FFEEE723
:10102000062C11D8DFE804F0041E1010042504007B
:10103000002333606B6893B9C5E9006604BB0221E5
:101040002846FFF741FEDAE7104911484FF4E472F1
:1010500003F00AF84FF4E4710C4802F0FEFF1E6042
:101060006E60EBE782F31188BFF36F8F6FF00404BB
:10107000C5E782F31188BFF36F8F6FF08504BEE779
:1010800082F31188BFF36F8FB9E700BFA64B000151
:10109000C84B000108B54268034602F00302032A68
:1010A000816002D02AB1002000E0006800225A606E
:1010B00008BD04490448452202F0D6FF45210148F5
:1010C00002F0CBFFE04B0001C84B00012DE9F04FCF
:1010D00081468B4617461C46002595B0387808B9DE
:1010E000284657E37B1C2528039306D05946C8475A
:1010F0000028C0F24F830135FBE1182200210EA821
:1011000003F051F87B78252B7DD0002398469E462E
:101110009C461E46781C014610F8012B2B2A00F035
:10112000A18000F29880202A00F09F80232A00F0FE
:101130009F802BB19DF8403043F040038DF8403044
:10114000B8F1000F05D09DF8403043F020038DF832
:101150004030BEF1000F05D09DF8403043F0100341
:101160008DF84030BCF1000F05D09DF8403043F0C1
:1011700008038DF840302EB19DF8403043F0040351
:101180008DF840309DF8403003F04400442803D1EE
:101190006FF386138DF840309DF840302A2A43F0D3
:1011A00080038DF840307FD19DF841204B1C42F0E8
:1011B00001028DF841201A782E2A0CBF012100214E
:1011C0009DF8412061F341028DF8412078D15A7891
:1011D0002A2A6ED000224FF00A0C0133194611F86A
:1011E000010BA0F13006092E40F295809DF84010C9
:1011F0001292C1F3400040EAD2700A4660F3410205
:101200008DF840205CE0BA1C03928DF843309DF8C5
:101210004130DA0740F12E8154F8048BB8F1000F09
:1012200007DA9DF84020C8F1000842F004028DF86A
:1012300040205E0740F1278154F804ABBAF1000F5B
:1012400080F226819DF841306FF341038DF84130E3
:101250004FF0FF3A1CE12D2A0DD0302A7FF469AF00
:10126000012358E74FF0010C55E74FF0010E52E70C
:101270004FF001084FE701264DE703460EFB0262DF
:10128000303A184610F8016BA6F1300CBCF1090F8A
:10129000F3D999428FD09DF840101192D20F62F38A
:1012A00041018DF8401086E70B4600224FF00A0EF0
:1012B000E7E79DF84120023342F004028DF8412017
:1012C0001A786C2A47D02BD8682A31D06A2A4BD09A
:1012D0004C2A51D01A4612F8013B782B03928DF814
:1012E00043309DF8412000F2BE806D2B51D8692B10
:1012F00000F2B980572B67D8412B03D0453B022B16
:1013000000F2B18004229DF8423062F302038DF8AE
:101310004230012373E00CFB02020B46303A5DE7DA
:10132000742A25D07A2AD5D106219DF841200CE0D7
:101330005A78682A9DF8412006D1012161F3C6023E
:101340008DF841200233C5E7022161F3C6028DF812
:1013500041200133BEE75A786C2A9DF8412001D123
:101360000421EBE70321F0E705219DF84120ECE79C
:1013700007219DF84120E8E7BDF8402022F4F04223
:1013800022F0020242F4804242F00202ADF8402014
:10139000DFE76E3BD9B201238B4040F282410B4222
:1013A00037D113F0240F51D1D8075CD503219DF814
:1013B000423061F302038DF8423002F07803A3F16A
:1013C00040014B424B411AE00120A3F15801C9B240
:1013D00000FA01F111F4624F94D140F60106314256
:1013E0001DD111F4043F3ED09DF8423060F302035A
:1013F00002F07802402A8DF8423034D000239DF864
:101400004020C2F340010B4363F341028DF84020BA
:10141000FDE602219DF8423061F30203E8E7022075
:101420009DF8421002F0780260F30201402A8DF824
:10143000421002BF9DF8401041F001018DF84010AC
:10144000632BDBD1131E18BF0123D8E703219DF8BE
:10145000423012F0780F61F302038DF8423014BF6E
:1014600001230023CBE79DF8403043F001038DF8C2
:101470004030C3E79DF94020002AACBF4FF0FF3851
:10148000DDF84480D5E698077FF5E2AEDDF848A0A8
:101490000023CDE911339DF842309DF8411003F04F
:1014A0000703012BC1F3C30133D1CB1E042B04D896
:1014B000DFE803F0214646212100236801294FEA95
:1014C000E372CDE90E321CD19DF93830DA17CDE93F
:1014D0000E3204349DF8403013F0030650D03A46E3
:1014E00059464846039B02F0A1FD0028C0F25281F4
:1014F0000544039FF2E554F8043BDA17CDE90E32B8
:10150000E8E70229E5D11AB243F3C033CDE90E234F
:10151000DFE7022B24D1CB1E042B04D8DFE803F035
:1015200018101018180001294FF0000254F8043B5D
:1015300014D00229CDE90E32CCD19BB20E93C9E76B
:10154000073424F00704F4E80223CDE90E23C1E7B1
:1015500054F8043B0E9300230F93BBE7DBB2CDE7B7
:10156000042B08D1073424F00704D4E900230834FD
:10157000CDE90E23AEE7032BACD154F8043BDDE7F5
:101580009DF843007828B4D862281CD825283FF459
:10159000ADAD5828ADD1DDE90E010DF13603009354
:1015A00010AA08AB02F0FCFCBAF1000F074680F26B
:1015B0009980002F9DD00DF13603D81B002E00F02E
:1015C000C0800130BDE06338152892D801A252F8DE
:1015D00020F000BFA9160001BB160001F3140001A2
:1015E000F3140001F3140001F3140001BB16000111
:1015F000F3140001F3140001F3140001F3140001CB
:1016000047170001DF16000105170001F314000160
:10161000F31400012D160001F3140001DF16000180
:10162000F3140001F3140001DF160001BAF1000FFA
:101630000E9F35DB5146384602F091FD07EB000A5C
:10164000002F3FF456AF00269DF8423013F01002F1
:10165000059200F0928002305B06119A48BF129BFF
:10166000104448BFC018B8F1000F049240F39F80A7
:101670009DF84020A8EB0008C2F3800350070693B2
:1016800000F19580510640F188803EB159463046C0
:10169000C84700287EDB069B01351E4630227DE0D0
:1016A000384602F055FDC9E70E9B002601208DF853
:1016B000203008AF0DF1210AC6E719075ABFC3F35E
:1016C00000135E012B26DDE90E23002BBFF663AF6E
:1016D000524263EB43032D26CDE90E235BE7002640
:1016E00059E700269DF840200DF13603DB1B6FF310
:1016F00086129A458DF840207FF65BAFAAEB030374
:10170000119356E70E9890B30DF136030093002124
:1017100008AB10AA02F044FCBDF84230BAF1000F49
:1017200003F0EF0343F4F04343F010030746ADF832
:101730004230D6DA00283FF4DCAE00260DF1360345
:10174000181A9A4680E70E9B07293FF6D2AEDFE8CB
:1017500001F00C04060C08080C0C1D70C9E61D8075
:10176000C7E6EA17C3E90052C3E61D60C1E62F4F82
:10177000064607F1050A052066E71A0748BF01304B
:101780006AE71046079306925946C847DDE90623E3
:10179000002804DA15B0BDE8F08F20224346194630
:1017A000002903F1FF33ECDC454498466D1A2EB155
:1017B00059463046C8470028ECDB01359DF84230D9
:1017C000DA0601D41B0705D559463020C847002842
:1017D000E0DB0135059B33B159469DF84300C8470E
:1017E0000028D7DB0135049E2E4405E05946302001
:1017F000C8470028CEDB0135731B002BF6DC5346AF
:101800003A465946484602F011FC0028C2DB05441E
:10181000A844A8EB0503002B7FF76BAE59462020A8
:10182000C8470028B6DB0135F3E700BF034C0001D1
:101830004FF02003EFF3118183F31288BFF36F8F12
:1018400001237F200B4AC2F840350B4BC3F8180127
:101850000020C2F8040EC2F8080EC3F82401C3F831
:101860002C0103F57F23C3F8100181F31188BFF326
:101870006F8F70470000084100200041F8B5052334
:10188000194D1A4F2C781A4E0134B4FBF3F303EBC5
:101890008303E41A02F0D1FD164A137873B157F8A6
:1018A0002430C01A072809D833782BB95721124899
:1018B00002F0E8FB012333700020F8BD00210F4B3C
:1018C0003170D3F8140138B1C3F81411D3F81431BE
:1018D0002C700CB9012313702C7802F0AEFD47F880
:1018E00024000120E9E700BF82010021E00000217F
:1018F0008001002181010021094C000100500041BC
:1019000020B1034B800143F001031847704700BF2B
:10191000D048000101F04ABE10B543680A680C4681
:101920009A4207D90548452102F0ACFB002318462E
:10193000636010BD4A6801201344F9E73B4C000185
:101940007FB50546C06801AA02F0D8FC044638B14C
:10195000024645210D4802F095FB204604B070BDBB
:1019600001992B6A8B42F8D0E868029A83689B68D9
:101970009847064630B102464521054802F082FBF1
:101980003446EAE7019B2B62E7E700BF604C0001A9
:10199000864C0001F8B58168054600293CD0D0E9A5
:1019A000043601391E443144FFF7CAFF041E07DA2A
:1019B0003346224645212A4802F064FB2046F8BD02
:1019C000E86802F06CFBAC68B4FBF0F300FB134476
:1019D0005CB1041BE8688368DB6898472F68AB68D4
:1019E00001792246F81802F0DEFBAB68E8682A6845
:1019F000234481684C683146A047044620B1024622
:101A0000334645211748D7E7EB695BB92B69AA68CC
:101A100013442B610023AB600024CFE7135DDB434D
:101A200013550134AB682A689C42F7D3E868816893
:101A30000C683146A047044628B1452102460A48B1
:101A400002F020FBBAE73246EB69A968286898479C
:101A500004460028DAD0024645210448F0E700BFDA
:101A6000A74C0001DA4C0001034D00011E4D00019E
:101A70002DE9F7430D46DDE90A8691461F460446E7
:101A800080B179B172B1009300230846019302F04E
:101A900006FBB7FBF0F303FB107040B1452119487A
:101AA00002F0F0FA6FF00D0003B0BDE8F0836A4673
:101AB0002846154902F026FC019B002BF2D008EBCA
:101AC0000602934202D245211048E9E7284602F077
:101AD000E6FAB8FBF0F303FB10800028F3D1C4E969
:101AE0000097E5602061A060C4F8148016B9019EDB
:101AF000A6EB08060C9B0020E3614FF0FF33A661C4
:101B00002362D1E7374D000119190001734D00011F
:101B1000014910220A60704710ED00E072B649409A
:101B200081F3118801B5FFF7A9FE002802D0BFF3A9
:101B30004F8F20BFBDE8014080F3118862B6704727
:101B400037B505460C46C9B18B6810480093D1E9FA
:101B50000023452102F096FA636945210093D4E9F8
:101B600003230B4802F08EFA4521E269094802F08E
:101B700089FA4521A269084802F084FA21462846DC
:101B800003B0BDE8304001F063BF00BF994D0001D4
:101B9000CD4D0001014E0001154E000140B200285C
:101BA00007DB01234109034A00F01F00834042F88C
:101BB0002130704700E100E0054B420953F8222034
:101BC000012300F01F0003FA00F01040704700BF2F
:101BD00000E100E00131072908B508D90D490E4898
:101BE0005B2202F041FA5B210A4802F036FA40B269
:101BF0000028ACBF00F16040084B4FEA4111C9B268
:101C0000ABBF00F5614000F00F0080F800131954DD
:101C100008BD00BF484E0001C84B000114ED00E0B4
:101C200030BFFFF7FDBF00BF08B5084B084A23F0DF
:101C30007F039360BFF34F8FBFF36F8F01F08EFF71
:101C400001F0D0FF00F058FA01F094FF000000010D
:101C500000ED00E01EF0040F0CBFEFF30880EFF37F
:101C60000980816911F8021C0229FFD001B502F038
:101C700060FA01BD0446084611461A46002383F364
:101C80000B880A4B2025A3F5806686F30B8883F327
:101C9000098863B64FF0000383F31188BFF36F8F99
:101CA000A04785F31188BFF36F8FFEE7880D0021F1
:101CB00001B5EFF30580A0F110004FEAC000044920
:101CC000014409C99847BDE801400249084700009E
:101CD00030470001D91C0001704700BF38B5214CC6
:101CE0004521214802F0CEF9A36A9D0103D5452183
:101CF0001E4802F0C7F9A36ADC0103D545211C4840
:101D000002F0C0F9174DAC6A14F4801404D04521D8
:101D1000184802F0B7F90224AB6A180303D545212D
:101D2000154802F0AFF90F4DAB6A590303D54521B1
:101D3000124802F0A7F9AB6A9A0303D5452110486F
:101D400002F0A0F9074DAB6ADB0303D545210D482E
:101D500002F098F9AB6A20466FEA03436FEA134337
:101D6000AB6238BD00ED00E07E4E00019B4E0001ED
:101D7000B34E0001D24E0001014F0001244F00017B
:101D80004E4F00016D4F000170B5204C06460D46C8
:101D90001F48452102F076F9A36ADB0403D54521EB
:101DA0001C4802F06FF9A36A1C0503D545211A48A7
:101DB00002F068F9154CA36A980510D5452117481B
:101DC00002F060F9A26BA36A190408D545211448F2
:101DD00002F058F91EB1A36A23F40043A3620B4C2E
:101DE000A36A5A0503D545210E4802F04BF9A36AB0
:101DF000DB0503D545210C4802F044F90020034AD5
:101E0000936A43F47F439362287070BD00ED00E055
:101E10009D4F0001B84F0001CE4F0001E64F000179
:101E2000045000011E5000013E50000170B5274CC7
:101E300006460D462648452102F024F9A36AD80635
:101E400003D54521234802F01DF9A36A190703D5DC
:101E50004521214802F016F91C4CA36A9A0710D5B7
:101E600045211E4802F00EF9626BA36A1B0608D5D5
:101E700045211B4802F006F91EB1A36A23F0800336
:101E8000A362124CA36AD80703D54521154802F076
:101E9000F9F8A36AD90602D4A36A9A070ED50B4BA8
:101EA0009B6ADB060AD5104910484FF4AE7202F067
:101EB000DBF84FF4AE710C4802F0CFF80020034A73
:101EC000936A43F0FF039362287070BD00ED00E059
:101ED0005B50000176500001CE4F0001AE50000172
:101EE000CB500001E65000010A510001C84B00012F
:101EF00070B5694B0546586800268AB0C0F30803E0
:101F000086F31188BFF36F8F02F07F44B4F17F4FE7
:101F100007D102F00C04082C0ED145215F4802F0D5
:101F2000B1F85F494FF484625E4802F09DF84FF4C7
:101F300084615B4802F091F814074CBF0D460126FE
:101F4000002DEED00024DA1E8DF80740092A00F299
:101F50009280DFE802F00585897090909090908DD6
:101F60004521514802F08EF88DF807404A4CE36A4B
:101F70009A0705D545214D4802F084F8002429E050
:101F8000E36A002B02DA45214948F5E7E36A5B0082
:101F90005DD54521474802F075F86369AA6943F4A5
:101FA00080736361BFF34F8FBFF36F8F636932F844
:101FB000022C23F480736361BFF34F8FBFF36F8FE5
:101FC0004DF602739A421ED145212A683A4802F022
:101FD00059F82C689DF807309BB92022294602A8A1
:101FE00002F0D6F8099B002E51D0C3F3080222B9A3
:101FF0006FEA53236FEA43230993204602A9FFF7B0
:102000009FFD0AB070BDA36ADBB233B101200DF1B0
:102010000701FFF70BFF0446DCE7A36A13F47F4FC9
:1020200005D001200DF10701FFF7AEFEF3E7A36A2B
:10203000B3F5803F02D3FFF751FEECE7184940F2B9
:10204000F222184802F010F840F2F22171E7144928
:1020500040F2F622134802F007F840F2F62168E752
:1020600000200DF10701D4E700200DF10701DBE7A7
:102070004521124880E7124910F4F87F114A1248AE
:1020800008BF0A46103B452101F0FCFF76E723F428
:10209000FF7323F00103AFE700ED00E07251000190
:1020A0000A510001C84B0001A2510001BE510001BC
:1020B000E4510001F75100011B5200013C520001A4
:1020C000445100015951000165520001044B5A6905
:1020D00042F010025A615A6942F480625A617047B4
:1020E00000ED00E0EFF30880EFF3098101B57246DF
:1020F000FFF7FEFE01BD00BF002320210348C218E8
:1021000001331E2B82F80013F9D1704700E100E083
:10211000002080F31488BFF36F8F002080F30A88BB
:1021200080F30B88FFF7F6FB00200E490860BFF331
:102130004F8F0D4880F3088800F03EF8202080F390
:1021400011880A484FF40061401880F30988EFF3C2
:1021500014800221084380F31488BFF36F8FFFF7C8
:1021600063FD000094ED00E0880D0021880100214E
:10217000BFF34F8F0549064BCA6802F4E062134370
:10218000CB60BFF34F8F00BFFDE700BF00ED00E065
:102190000400FA05002318460649D1F89020C2F33E
:1021A0000722934200DB7047C1F89830C1F8A000C5
:1021B0000133F6E700ED00E010B572B6002484F3B9
:1021C0001388FFF7E7FF23464FF0FF300C4A03F177
:1021D00020010133102B42F82100F8D100234FF0E9
:1021E000FF30074A03F160010133102B42F8210050
:1021F000F8D162B6BFF34F8FBFF36F8F10BD00BF32
:1022000000E100E0014B1860704700BF04000021AE
:10221000402373B50B4C0093041B0B460D460A4933
:10222000A41061430646094A094801F0DBFF011E7C
:1022300005DA30462B4602B0BDE87040184702B0C0
:1022400070BD00BF08010021B76DDBB6554200012B
:10225000E8460001C9B2012908B508D9084909486A
:102260007A2201F001FF7A21054801F0F6FE0C22E6
:10227000036901FB0233186C00F0070008BD00BFC2
:102280007D520001C84B000170B5C9B20129036934
:102290000AD91849184840F25D1201F0E5FE40F2F3
:1022A0005D11144801F0D9FE4FF02004EFF31185C1
:1022B00084F31288BFF36F8F0C2606FB0134246C65
:1022C00014F0C00408D0A24206D085F31188BFF3F1
:1022D0006F8F4FF0FF3070BD012271430B441A64C1
:1022E00085F31188BFF36F8F43680B445B68984791
:1022F0000020F0E77D520001C84B0001084B70B58B
:10230000C31A0D4607499B1004465943402206480C
:10231000FFF7BAFF2B4601462046BDE8704018473C
:1023200008010021B76DDBB6E846000170B5002258
:10233000012104460520FFF74DFC0F4801F00CFA7F
:102340000E4B984215D101F029FA26690C49304606
:1023500001F002FE00280BDB0125356424690849E1
:1023600004F11C0001F0F8FD002801DB0020E56409
:1023700070BD6FF00400FBE7B92300010000AD0B56
:10238000EC48000101460C23002270B54B4308487D
:10239000C4184033D4E90E561844A26301F00FFF6D
:1023A0002DB132462B46BDE870400248184770BD3B
:1023B00008010021E8460001012808B506D00328DD
:1023C00008D090B90E4B1B6C5B0717D1BDE80840D5
:1023D000FFF7D8BF0B4940F26E220B4801F044FED4
:1023E00040F26E21074801F038FE064940F27222A1
:1023F000054801F039FE40F27221F3E708BD00BF45
:10240000080100217D520001C84B000108B54FF0C2
:102410002003EFF3118183F31288BFF36F8F114A0A
:10242000136843F002001060DA0708D481F31188C2
:10243000BFF36F8FBDE80840012001F0D5B90A4B0A
:10244000D3F80C24D3F80C34D307EFD5074801F0A8
:10245000B6FE81F31188BFF36F8FBDE808400020FE
:10246000FFF790BF580100210050004148010021B2
:1024700010B54FF02003EFF3118483F31288BFF3FC
:102480006F8F074A136823F00201DB07116002D443
:10249000012001F005FA84F31188BFF36F8F10BD9E
:1024A000580100212DE9F843012206463E49D1E8B2
:1024B000EF3FC1E8E02F0028F9D19BB93B493C48E8
:1024C0004B60CB608A60FEF77DFD00280ADA39494F
:1024D0004FF40C72384801F0C7FD4FF40C713548C9
:1024E00001F0BBFD6EB3731E012B53D8012E06D134
:1024F000324BD3F81C3403F00303022B21D002F03B
:10250000C8F80546F8B92E4B1B78E3B102220746FE
:102510002A4BC3F808234FF00008284CDFF8A4909A
:10252000D4F81834D4F81824D20316D503F00303D2
:10253000022B01D0012E10D13DB387F31188BFF3D8
:102540006F8FBDE8F8834FF02003EFF3118783F31B
:102550001288BFF36F8F0125DDE73846FFF7DEFAFB
:10256000D4F81835DBB2012BDAD1D4F80421002AD3
:10257000D6D0C4F80481D4F804210222C4F8182566
:102580002022C9F88021A360CAE702220B4BC3F8BE
:102590000423D6E7074940F24222074801F064FDD0
:1025A00040F242219BE700BF04010021F40000211A
:1025B000240100217D520001C84B00010050004160
:1025C0008501002100E100E008B5074802F052F85B
:1025D00038B10648FFF716FE0448FEF761FB0020FD
:1025E00008BD6FF01200FBE700470001F125000174
:1025F0000A2838B50446074D04D1AB680D2128469A
:102600005B689847AB6803485B68E1B2984720462F
:1026100038BD00BF00470001024B0B60012313606F
:10262000704700BF5C01002100487047404900012D
:1026300010B502F01CF8034C206002F015F8606041
:10264000002010BD5C01002170B50C46154602F05B
:102650000BF829460646204601F00EFE10B3B4FBE7
:10266000F6F306FB134323B9B5FBF6F306FB13534E
:1026700043B12B46224645210D4801F003FD6FF082
:10268000150002E0AE4201D9002070BD01F0ECFF60
:10269000064604F18074204601F062F9AD1B344413
:1026A000F9D1F1E72B46224645210248E5E700BF74
:1026B000E352000107530001F8B50C4619462046C5
:1026C00016461D4601F0D8FD50B104F180772C4329
:1026D00014F003040DD02B463A4645210E4803E082
:1026E0002B46224645210D4801F0CCFC6FF0150029
:1026F000F8BD4DB12B19032BA7EB040006D8084AEF
:10270000D2F80034DB07FBD50020F1E7331B196852
:1027100001F056F9043CEDE729530001075300018D
:102720000000084170B50D461946284616461C465D
:1027300001F0A2FD40B12CB12246304605F1807176
:1027400001F026FD002007E0044823462A464521E3
:1027500001F098FC6FF0150070BD00BF0753000139
:10276000F8B504460D46076901F093FF90B92C4B6C
:102770001B787BB16426606801F013FEE0B901208C
:1027800001F059FF013EF6D1F4E786F31188BFF35B
:102790006F8FEFE74FF02003EFF3118683F312887A
:1027A000BFF36F8F6068314601F0FBFD90B986F38F
:1027B0001188BFF36F8FEDE74FF02003EFF3118621
:1027C00083F31288BFF36F8F6068314601F0E9FD33
:1027D0000028DAD03B691D70626838691368C3F855
:1027E00044050120C3F848050020C3F82001D3F8B0
:1027F0002051C3F858015268D3F85801D20608D5C1
:10280000082062681268C2F800054FF48002C3F81D
:10281000042301229A6081F31188BFF36F8FF8BD02
:1028200085010021F0B54B79012B29D0032B24D150
:1028300010278B79032B20D1CE790EB1012E1CD11C
:102840000A79012A1ED0022A20D0B2B914460B6898
:102850004568B3F5164FD5F800C06ED033D8B3F540
:10286000165F6DD01CD8B3F5966F6BD010D8B3F54A
:10287000967F6AD0B3F5167F6AD06FF085005BE073
:102880000027D6E74FF480740E22E0E70024FBE730
:10289000B3F5166F5FD0B3F5965FEED1384B3CE0E1
:1028A000B3F5E14F5AD007D8B3F5615F58D0B3F50F
:1028B000964FE2D1334B30E047F61225AB42DCD1E4
:1028C0004FF4000329E0B3F5613F4BD013D8B3F5C3
:1028D000963F4AD009D84DF6C025AB4247D0B3F554
:1028E000614FCAD14FF46B0317E0B3F5E13FC4D198
:1028F0004FF0EB7311E0B3F5612F3BD008D8224DB8
:10290000AB423AD0B3F5E12FB7D14FF0E86304E022
:102910001E4DAB42B1D14FF080530569CCF8243540
:1029200043683A431B6834432243C3F86C252B1D8C
:1029300003C983E803000020F0BD4FF41D03ECE75A
:10294000134BEAE74FF49E23E7E74FF4A033E4E7A5
:102950004FF41C33E1E74FF41D23DEE70D4BDCE7BA
:102960000D4BDAE74FF06C73D7E70C4BD5E74FF41C
:102970006503D2E74FF07063CFE74FF08063CCE799
:1029800000B0130000A04E0090D0030040420F00A2
:102990000050270000C0750000F03A0000903A0196
:1029A0002DE9F7438046002201211320FFF712F999
:1029B0001320FFF7F3F80021D8F80470D8F810605E
:1029C0003C6801AAC4F80015C6F80080D7F80C903E
:1029D000484601F036FD051E1EDB019BD9F800209C
:1029E0001979186801F040FD051E15DB4046311DC0
:1029F000FFF718FF054678B97B6899072BD506F1D4
:102A0000180000F09BFF284B984209D04521274829
:102A100001F038FB6FF00405284603B0BDE8F083F1
:102A2000337E14F10C0F43F00043C4F8A0310AD1F7
:102A30001F49204840F24E2201F016FB40F24E2181
:102A40001B4801F00AFBC4F88C300123327E93400E
:102A5000194AC2F804350823C4F800353B7A53B943
:102A6000C4F81031D4F810317369C4F83435012337
:102A7000C4F8383523607B689A075CBF4FF48073D5
:102A8000C4F804337B68DB0644BF4FF48003C4F80A
:102A900004333369C4F844350023C4F848350123AE
:102AA000A360E360B8E700BF0000AD0B7053000106
:102AB00094530001C84B000100F000410D4B186811
:102AC000010A0006BFF35F8F0B4BD3F804351818CB
:102AD00041F10001B3F5801F0AD2084BD3E900236E
:102AE000904271EB030303D210F1807041F10001B9
:102AF000704700BF6C0100210060014158000021B7
:102B00002DE9F7432E4BD3F8042390070BD5D3F8C8
:102B1000042142B10022C3F804212A4AD3F8043127
:102B2000136801331360264AD2F80433D90327D53A
:102B3000254BD3E8EF1F21F00100C3E8E40F002C80
:102B4000F7D1CB0702D4D2F84031CBB100251C4CD1
:102B5000C4F84051D4F84031FFF7B0FF4FF02003E4
:102B6000EFF3118283F31288BFF36F8F174BD3E912
:102B70000267B042B94106D282F31188BFF36F8F6A
:102B800003B0BDE8F0834FF0FF38D3E900104FF0F9
:102B9000FF391D60C3E902894FF48033C4F848331C
:102BA000C4F84051D4F8403182F31188BFF36F8FDD
:102BB0000029E5D0009032463B4628468847DFE7AB
:102BC000006001416C0100216401002140000021EE
:102BD0002DE9F74F4FF0010808FA00F814460646B1
:102BE0001D466FEA0802DFF830A1DAE8EF3F03EA9A
:102BF0000201CAE8E01F0028F7D14FF48037DFF860
:102C00001C91B740C9F80873BFF35F8FBFF36F8F94
:102C100008EA03030093FFF751FFA04271EB05039D
:102C20004BD23F4B201A65EB0101984271F1000134
:102C300056D23C4B03EB0613D3E902239D4208BF57
:102C4000944243D04FF0000B24F07F4EF446032013
:102C500006F150039B009BB203F1824303F5B033AE
:102C6000C9F84873C3F800B01A6806F5A872019253
:102C700001992CF07F4249F821206FF00202C9F837
:102C80004473D9F80415521A6244DFF89CC022F04C
:102C90007F4262451AD91A685AB1D9F80415A1EBD6
:102CA0000E0222F07F42B2F5000F0FD9C3F800B038
:102CB0001A6800EB010C0130DAE71C4BD3E8EF1F78
:102CC00041EA0801C3E8E21F002AF7D11549184874
:102CD0003301C850002301EB0612C2E902455360DC
:102CE000009BABB1DAE8EF3F43EA0803CAE8E23FF2
:102CF000002AF7D1094BC3F804730C4BD3E8AF3F5C
:102D0000F340DB0742BF4FF480020A4BC3F80021B7
:102D100003B0BDE8F08F00BF6801002100600141F1
:102D20000100800040000021FDFF7F0064010021C0
:102D3000A92D000100E100E070B54FF0FF30002543
:102D40004FF0FF31144C154BC4F80855C3E902018C
:102D50004FF4803302264FF48002C4F80433104B42
:102D60000121C4F804631620C3F880212A46FEF727
:102D700031FF1620FEF712FF01230A4AA3602846FE
:102D8000236013604FF480720023FFF721FF304669
:102D9000FFF788FB284670BD00600141400000211C
:102DA00000E100E068010021F8B5144922F07F45F8
:102DB000D1E90063921B140A22F0FF02921943F139
:102DC0000003C1E90023A5F50011B1F5400F0AD2B7
:102DD0000B4909684FEA112C09064E1909494CF1B3
:102DE0000007C1E9006712F5807243F10003FFF7A5
:102DF000EFFE2046BDE8F84000F054BF500000212F
:102E00006C0100215800002108B503685A090CD054
:102E1000012A12D00E490F4840F2472201F024F94E
:102E200040F247210A4801F018F94FF0FF3222FA28
:102E300003F3D907EED5084808E04FF6FF7203F018
:102E40001F03DA40D207E5D50360044808BD00BF80
:102E5000EA530001C84B000100058C4100088C4179
:102E600030B5024600240B490B4D0B6805EB0310EF
:102E7000D0F80808C0B218B904B10B60002007E010
:102E80000133072B4FF00104F0D96FF01B000B60EA
:102E9000136030BD7001002100000841F7B5434DBB
:102EA0000646D5F820320C46B3F5006F174608D019
:102EB0003F494048212201F0D7F821213C4801F048
:102EC000CCF801A8FFF7CCFF002867D1D5F8202265
:102ED000B6FBF2F302FB1363002B61D1D5F820227D
:102EE000B4FBF2F302FB1343002B59D1D5F8202297
:102EF000D5F824325343A34252D3002C50D0019B27
:102F0000072B07D92C4977222A4801F0ADF8772101
:102F10002948D4E7D5F82012B6FBF1F201FB126282
:102F200032B125497822234801F09EF87821EFE755
:102F3000D5F82022D5F824124A43944206D91E49D6
:102F400079221C4801F090F87921E1E7D5F82012A8
:102F5000B4FBF1F201FB124232B117497B22154852
:102F600001F082F87B21D3E71B0103F1824101F5D7
:102F70000021C1F80068C1F80448C1F80878D1F808
:102F8000002896420FD1D1F8042894420BD1D1F8F1
:102F90000838DBB29F4218BF6FF00D0003B0F0BDE0
:102FA0006FF01500FAE76FF00D00F7E70000FF0182
:102FB0001D540001C84B000149540001034845213C
:102FC00008B501F05FF80020FFF7D2F87B5400014C
:102FD00038B5044681692B4800F061FF00232A4A76
:102FE0002A49C2F800354FF0FF32C1F80823BFF379
:102FF0006F8F72B6264903F120000133102B41F880
:103000002020F8D100234FF0FF30214A03F1600166
:103010000133102B42F82100F8D14FF0E0230022B9
:103020001A61D3F8042D03F5506342F000725A6020
:103030005A6A22F4E0225A62EFF31482920707D50B
:10304000EFF3148222F0020282F31488BFF36F8F31
:10305000BFF34F8FBFF36F8FA26901219A602046A3
:10306000A56900F031FA58B1002383F30B8883F38C
:103070000A882A6882F3088883F309886B6898476E
:1030800038BD00BF9D540001003001410050004197
:1030900000E100E01FB50446074A01AB07CA83E818
:1030A00007000C221946204601F062F800280CBFE8
:1030B0002046002004B010BD9C48000170B50546B4
:1030C0000024054E56F8040B2844FFF7E3FF10B91F
:1030D0000134052CF6D170BD904900012DE9F04F67
:1030E000814687B010460E4614461D46D768D2F872
:1030F0001080FFF7CFFF38B915B96D4800F0CFFE4B
:10310000002007B0BDE8F08FA069484503D0002D2E
:10311000F6D16848F2E71DB9B0423DD06648EDE708
:103120003046FFF7CBFF8442EAD1226A634B9A42D2
:10313000E6D1E3192CBF012700270DF10A0018EB97
:10314000060A2CBF4FF0010B4FF0000B019301F06A
:1031500014FA0146002840D065BB594800F09FFE94
:10316000584800F09CFEADF80A50002F4BD1BBF13F
:10317000000F48D1B44246D3544544D2019B5F1E50
:10318000BE423DD8BA453BD918EB0908E3693CD3A8
:10319000002DB5D14C48B1E7FFF790FF844201D034
:1031A0004A48ABE7216A454B9942C2D0484800F0F3
:1031B00076FEA5E70022ADF80A20002FA0D1BBF1D2
:1031C000000F9DD1B4429BD3544599D2019B5F1E01
:1031D000BE4295D8BA45D7D892E76169BDF80A20B2
:1031E000914205D2002D8BD13A4800F058FE87E776
:1031F00037B9BBF1000F03D1B44201D35445BDD35D
:10320000002D7FF47DAF344878E74B45C0D343456C
:10321000BED2321DA2EB0902D358994504D9002D24
:103220007FF46EAF2D4869E79845F8D92769DFF834
:10323000B090374407F1050A0DF10C0899E8070032
:1032400088E807000C224146384600F091FF00B99B
:103250003FB90137BA45F1D1002D7FF451AF214874
:103260004CE7FA68A3699A4209D1246901F062F92E
:10327000014648B1002D7FF443AF1B4897E7002D6E
:103280007FF43EAF194839E72146304607F1100276
:1032900001F057F9014620B1002D7FF431AF1448F9
:1032A00085E715B9134800F0FAFD012029E700BFB2
:1032B000AF540001CF54000102550001FFFF0291FD
:1032C0007F550001A6550001565600012F550001FB
:1032D00058550001E95500012956000182560001A8
:1032E000A8480001AF56000113570001E056000145
:1032F000335700015F5700012DE9F041154B074698
:10330000D3F8B030BFF34F8F1422134D02FB035597
:10331000284600F083FB012803D000242046BDE8A6
:10332000F0814FF000082C1DAE1C304600F076FBFB
:103330004045F2D9A01C00F071FB0546204600F084
:103340006DFBB842EAD0023504EB450408F10108F0
:10335000EBE700BF00850001B4850001024BD3F804
:10336000A800BFF34F8F7047008500014FF0005356
:10337000014A1A60704700BF15FCBA254FF0005390
:103380001868054B984205D0044B98420CBF0120A9
:103390000220704700207047B6B3B4B55DCE03F18C
:1033A00030B54FF00055184B2A6801469A42ADF5EA
:1033B0000F7D26D10023CDE90133EB680EAA0093DF
:1033C00005A84FF40073FEF753FB044640B14521B6
:1033D00002460E4800F056FE20460DF50F7D30BD2A
:1033E0000123D5E9011205A800F05FFE044618B1DB
:1033F000024645210648EDE74921064800F042FE15
:10340000EAE76FF00D04E7E7B6B3B4B5795700010A
:103410009B570001C55700014FF00053014A1A6045
:10342000704700BF5DCE03F12DE9F043224885B01F
:1034300001F0F5F8002504461F4B204ED3F83880E4
:10344000DFF87C90A84503D8002005B0BDE8F083E4
:10345000636A96E807001F6801AB83E807000C2247
:103460001946384600F084FE88B987B1636A21693D
:103470001B681A6991420AD19A69A169914206D8DA
:10348000E169914203D962695B699A430AD0276A6C
:1034900067B10C4800F003FD404080F311884FF005
:1034A000040002DFE36801351C44CBE7484600F026
:1034B000F6FC636A1F60F5E700020001B4480001F2
:1034C00005580001DC5700012DE9F04F0F46064674
:1034D00087B0A0B301F0A3F84FF000080446B36B27
:1034E00043454ED94FF00009DFF8ACB04FF0000A69
:1034F0005BF8043B0093294B53F8045B0193009B5A
:103500001D44274B93E8070003AB83E807001946E7
:103510000C22284600F02CFE019B00B99DB90AF14F
:10352000010ABAF1050FE7D11E4B09F101099945CE
:10353000DCD317B10022636A1A60236A33B3002018
:1035400007B0BDE8F08F2B6A174A9342ECD1AE4228
:10355000EAD0696B05F13C038842E5D025691A6918
:1035600095420AD19A69A569954206D8E5699542BE
:1035700003D962695D69AA4305D0DA680130134452
:10358000EAE70120DCE70FB1626A1360E36808F143
:1035900001081C44A3E700BF245A0001A44900010C
:1035A000C048000101000000FFFF02910022D3008B
:1035B00003F1FF7303F58033D3F80013013107D013
:1035C000D3F800130132D3F80433202A0B60EED174
:1035D000144BD3E94C32072B07D1023A032A124B82
:1035E0000CD9D3F80024D10716D4104B1A68104B0D
:1035F000C3F844250F4B104A1A6070470F498A5C84
:10360000002AEED0D3F80024D207EAD50022C3F86E
:103610001421C3F81821E4E76FF00102C3F8002475
:10362000E3E700BF0000FF01005000410080FF0100
:1036300000600041240000210090D00338580001B0
:1036400070B501250268B2FA82F3C3F11F03DBB241
:1036500005FA03F422EA0404D0E8EF6F964204D19D
:10366000C0E8EC4FBCF1000FF6D1EBD101480B7074
:1036700070BD00BF0000AD0BF7B5334B044650B131
:10368000012825D031493248D82200F0EDFCD8215C
:103690002E4800F0E2FC0222C3F80823C3F804011C
:1036A000D3F8042101220746DA60012342F21075A3
:1036B000254E8DF80730B4B1012C32D0254924486D
:1036C00040F2473200F0D0FC40F247312148E0E7B9
:1036D0000022C3F80803C3F80021D3F800210DF13C
:1036E00007075860E1E78FB1D6F8183403F00303F9
:1036F0003B70D6F81834DA0311D59DF8070001287D
:103700000DD100F098FF013DD5D108E0D6F818346E
:10371000D90304D5012000F08EFF013DF6D103B09E
:10372000F0BD3FB1D6F80C3403F001033B70D6F87E
:103730000C34E0E7D6F80C34DB03F0D5012000F0C0
:103740007AFF013DF6D1EAE7005000413C58000104
:10375000C84B00017958000108B550B90A490B4817
:1037600040F2151200F080FC40F21511064800F0FE
:1037700074FC074B1A7922B90122186005481A71A6
:1037800008BD0548FCE700BF3C580001C84B0001DC
:10379000740100210000AD0B0C00AD0B08B50E4B01
:1037A0001B7953B90D490E484FF4977200F05CFC39
:1037B0004FF49771094800F050FC0520FEF7FCF922
:1037C00010B90520FEF7EAF90122064BC3F81825C7
:1037D000C3F8142508BD00BF740100213C58000146
:1037E000C84B00010050004108B5294B1B7953B963
:1037F00028494FF4B472284800F036FC4FF4B471F5
:10380000244800F02AFC254B50B1012836D021492C
:103810004FF4D372204800F027FC4FF4D371EFE748
:10382000D3F81824D3F81814C90311D502F00303F0
:10383000022B1CD1194AC2F818350023C2F80431F2
:10384000D2F804310223C2F80433012393600DE05F
:10385000D3F81424D2070FD5D3F81C2402F00302A6
:10386000013A012A05D80222C3F8042308BD012B1E
:1038700002D00020FFF700FF0123DBE70022C3F89E
:103880000021D3F80021C3F804031860EEE700BF5D
:10389000740100213C580001C84B00010050004158
:1038A00008B5094B1B7953B90849094840F2AD12D4
:1038B00000F0DAFB40F2AD11044800F0CEFBBDE8A9
:1038C0000840FFF7D9BE00BF740100213C58000139
:1038D000C84B000110B5174BD3F8002152B100209E
:1038E000C3F80001D3F800210122C3F80823124BCA
:1038F0001B6898470F4BD3F804218AB10022C3F804
:103900000421D3F80421D3F81824D3F8181402F0B2
:103910000302012A4FF0020103D1C3F818159A607F
:1039200010BDC3F80813044B0120BDE810401B680C
:10393000184700BF005000417401002101460148B2
:10394000FFF77EBE28000021044AD2F80034DB07CE
:10395000FBD50160BFF35F8F704700BF00000841D7
:1039600008B500F17F43B3F5802F04D2C0F30A03FA
:1039700063B10E4819E00E490E484FF4837200F00F
:1039800073FB4FF483710A4800F067FB02220A4B75
:10399000C3F804254FF0FF320260D3F80024D207A9
:1039A000FBD500220548C3F8042508BD0A00AD0B6D
:1039B000C2580001C84B0001000008410000AD0BD7
:1039C000F8B50D460121044600F037FE50B9104904
:1039D0004FF4CA720F4800F047FB4FF4CA710C480D
:1039E00000F03BFB14F0030708D0094940F29512A0
:1039F000084800F039FB40F29511F0E7064E2046EA
:103A0000C6F804152946FFF79FFFC6F80475F8BDF0
:103A1000C2580001C84B000100000841C10708B5A9
:103A20000AD50949094840F2EB1200F01DFB40F2AB
:103A3000EB11054800F011FB20F003031B6882071F
:103A40000CBF98B2180C08BDC2580001C84B000149
:103A500073B504460D464FF02003EFF3118683F350
:103A60001288BFF36F8F0022042896BF164B174BA6
:103A700053F82030009245210246154800F002FB21
:103A80003DB1EB69C3F308031BB14521114800F0B8
:103A9000F9FA00224521104B104800F0F3FA2946AC
:103AA0002046FFF78BFA042C08D10D490D489322CC
:103AB00000F0DAFA93210A4800F0CFFA86F3118871
:103AC000BFF36F8F02B070BDB8490001FE5800010E
:103AD0000C590001395900015F5900016759000173
:103AE00084590001C84B00010F4B70B553F82040BA
:103AF000013053F82060A64200D870BDD4E90035EB
:103B0000284698476DB138B10028B8BF4042FF2819
:103B1000A8BFFF20EB681870EA68537843F00103F0
:103B200053700834E7E700BFCC490001012208B513
:103B3000084B03201A70FFF7D7FF00F00FF904209D
:103B4000FFF7D2FFFDF72CF8034A137B23F00103A4
:103B5000137308BD850100216000002108B50348EA
:103B6000034A0021121A00F090FD08BD4000002118
:103B70008801002108B50020FFF7B6FF164B03F5BA
:103B8000006282F3088883F30A880025E023134C3F
:103B900084F82230E57725766576A57684F820507E
:103BA000636A43F4E023636284F82350FEF78EFADD
:103BB000FDF7AEFF4FF0FF33A362E36200F059FD63
:103BC0000120FFF791FF0220FFF78EFF2B462A46C8
:103BD00029460348FEF74EF88801002100ED00E079
:103BE0002D3B000108B50648064A0749121A00F0A5
:103BF0004EFDBDE80840054A0549064800F047BDAE
:103C0000000000213A000021285A000100000000B5
:103C1000285A000100000021034B1B680BB900F07B
:103C20000ABC0020704700BF7C01002110B50E4B7C
:103C30001C689C4204D1FFF7EFFF6FF0004010BDFD
:103C4000FFF7EAFF002CF8D0D4E904321B1A62EB2C
:103C5000E072B3F1004F72F10001EEDA002AACBF5E
:103C600018460020EBE700BF2C00002130B570B1F2
:103C70000B4B5B6898420AD0036843B1D3E9042137
:103C8000D0E90445121941EB0501C3E90421D0E94B
:103C9000003213605A600023C0E9003330BD00BF1A
:103CA0002C0000212DE9F84303464FF02002EFF3EA
:103CB000118482F31288BFF36F8F254FDFF8949041
:103CC000D9F80000DFF890C048453B604FEAE37543
:103CD000DCE9001E0CD058B1D0E90486434575EBF1
:103CE000060217DAB8EB030266EB0506C0E9042604
:103CF00059184EEB0505CCE9001500253D60FFF78E
:103D000095FF294600F096FB84F31188BFF36F8F6F
:103D1000BDE8F88318EB01014EEBE8730022CCE913
:103D200000130023C0E90423FFF7A0FF84F31188E8
:103D3000BFF36F8F836898474FF02003EFF3118430
:103D400083F31288BFF36F8F3B68A3EB0803B7E7D9
:103D50007C0100212C000021D8000021014800F046
:103D60009EB800BFF35900013F2A2DE9F0411746E4
:103D700053D905460C46A2F1400626F03F064036D0
:103D8000DFF89C800E44236840341BBA2B6454F83F
:103D90003C3C41461BBA6B6454F8383C28461BBA7D
:103DA000AB6454F8343C1BBAEB6454F8303C1BBA97
:103DB0002B6554F82C3C1BBA6B6554F8283C1BBA95
:103DC000AB6554F8243C1BBAEB6554F8203C1BBA95
:103DD0002B6654F81C3C1BBA6B6654F8183C1BBA93
:103DE000AB6654F8143C1BBAEB6654F8103C1BBA93
:103DF0002B6754F80C3C1BBA6B6754F8083C1BBA91
:103E0000AB6754F8043C1BBAEB67FCF761FAB442A9
:103E1000B9D107F03F00BDE8F0811046BDE8F08160
:103E2000E44900010A4610B514681A4924BA04642A
:103E3000546824BA4464946824BA8464D46824BA64
:103E4000C464146924BA0465546924BA4465946945
:103E500024BA8465D46924BAC465146A24BA046691
:103E6000546A24BA4466946A24BA8466D46A24BA2A
:103E7000C466146B24BA0467546B24BA4467946B09
:103E800024BA8467D26B12BAC267FCF721FA002009
:103E900010BD00BFE44900017047002070470FB417
:103EA00007B504A951F8040B0191FCF7FFFE03B01C
:103EB0005DF804EB04B07047038B13F0070305D1E2
:103EC0000368002B0CBF002003207047022B05D194
:103ED000408BB0FA80F0400980007047012B05D17B
:103EE0000368002B0CBF002005207047002070479E
:103EF00010B50C4600B111B96FF0150010BD081DCA
:103F000000F03DF80028F9D1A368032BF6D9F3E7B8
:103F10002DE9F0410D4607461946281D90461E46DC
:103F2000FDF7B8F8044638B13346424629463846CC
:103F3000A446BDE8F0416047BDE8F08110B44FF001
:103F40002004EFF3118284F31288BFF36F8F416175
:103F500010BC0121FCF7B8BE38B50C46054658B177
:103F600051B10B6843B14B6833B11C22002100F002
:103F70001AF900202C6138BD6FF01500FBE70346ED
:103F800058B1426802F00302012A03D0032A04D187
:103F9000026812B10020986070476FF015007047FA
:103FA0002DE9F84F9A46D37880466F2B0F46154679
:103FB000A3F1410B29D024D8582B0CBF10260A2678
:103FC000DDF828903246002340463946FCF738F9A0
:103FD000092AD4B21ED83034B045E4B277F10007D4
:103FE00009F8014D01D3D14511D82B789B0605D591
:103FF000082E15D1AB7843F00803AB704846BDE8F6
:10400000F88F03F0F703702BD7E70826D8E7804630
:104010000F46D7E7BBF1190F94BF37345734DBE7AE
:10402000102EEBD1AB7843F01003E6E72DE9F04119
:104030000746884615461E461446B44205D30EB1BF
:10404000601B08E02378002BFAD0414614F8010BDE
:10405000B8470028F1DABDE8F081404080F31188CC
:104060004FF0040002DF70470FB407B504A951F800
:10407000040B0191FCF71AFE03B05DF804EB04B0E9
:10408000704770470FB407B504A951F8040B0191AC
:10409000FCF70CFE03B05DF804EB04B0704708B504
:1040A0008368DB689847006808BD2DE9F0478946BA
:1040B00016469846044698B3826803691344826999
:1040C0003344934230D80025D4E90170A6EB050AA9
:1040D0003F1ABA4515D2B54209D223685246184450
:1040E00009EB050100F054F8A3685344A360B8F14C
:1040F000000F1CD0A068A8B12046BDE8F047FDF72E
:1041000049BC23683A46184409EB050100F040F821
:1041100063682046A360FDF73DFC18B93D44D3E732
:104120006FF00D00BDE8F0876FF00B00FAE7404636
:10413000F8E701460068FDF703BD00210120FDF707
:10414000FFBC08B5FDF76CFDBDE80840FDF7C4BD38
:10415000034600201A5C02B970470130FAE70346B3
:1041600000201A5C0AB1884200D170470130F8E79C
:1041700010B55AB10139841810F8012B11F8013F1C
:10418000A04201D09A42F7D0D01A10BD1046FCE7E9
:1041900010B5431E0A44914200D110BD11F8014BE5
:1041A00003F8014FF7E70346C9B20244934200D136
:1041B000704703F8011BF9E74FF0FF3070474FF0ED
:1041C0002003EFF3118283F31288BFF36F8F03682C
:1041D00003F0C00343F00203036082F31188BFF3CE
:1041E0006F8F7047F8B5069F0469C9B24FF020057C
:1041F000EFF3118685F31288BFF36F8F0C256943A7
:104200000C44256C05F0070CBCF1010F0BD12764A1
:1042100086F31188BFF36F8FC4E90E2343685B58A0
:1042200098470020F8BD05F0C005AF4286F311881D
:10423000BFF36F8F0CBF6FF077004FF0FF30F1E7E7
:1042400013B580240094FFF7CDFF02B010BD6FF0CE
:104250008500704710B41C240069CBB203FB040036
:10426000002110BC10470020FFF7BEBA0020FFF766
:1042700017BB8022FEF708B838B505460C4600F09B
:10428000F0F9002D07DBA84205D9401B84428CBF02
:104290000020012038BD0020FCE7F7B51C460023B4
:1042A000164682682360A3600D461369694601AA19
:1042B0009847019B5A1E01921BB96FF0150003B07D
:1042C000F0BD0098A26847682168676085B9B31A95
:1042D000D0F800C0634528BF634603FB07111A44AA
:1042E0002160A26002689A4206D808300090E0E798
:1042F0006B1AB3FBF7F3EBE70020E0E7134600226D
:10430000FFF7CBBF2DE9F0470024836886B08846CD
:1043100091461B6902AA01A99847A2462546029B1D
:10432000AB4202D806B0BDE8F0870026019F07EB3C
:10433000C5077B6804933A680AEB0603B24202D8C9
:104340009A460135EBE749460394059303A8C04715
:104350000028E7D0049B01361C44ECE70B460269B9
:10436000D2E9010183E803000020704743681B681D
:10437000D3F88004C3F880047047436802691B685F
:10438000D3F8100150B10020526912780A70C3F8B6
:104390001001D3F8102101221A6070474FF0FF304E
:1043A000704702680346D2F8580140B95B689B0722
:1043B00006D4D2F82001003818BF01207047012030
:1043C000704742681368D3F80413C90518D5D3F8A9
:1043D0002011A9B14FF02000EFF3118180F3128872
:1043E000BFF36F8FD3F8200130B10020C3F8200154
:1043F000D3F820010120D86081F31188BFF36F8FBB
:104400005268D20615D54FF02001EFF3118281F3E7
:104410001288BFF36F8FD3F8581111B10021C3F880
:1044200000154FF48001C3F8081382F31188BFF31D
:104430006F8F704770470020704708B5FEF73EFB4E
:1044400008BD30B543681360057A446804EBC504C1
:10445000A34202D36FF0010030BD5C798C4201D0E1
:104460000833F0E70020F7E72DE9F04F914680464A
:10447000012685B000EB8105454503D1002005B03C
:10448000BDE8F08FD8F8003003F07F07C3F3432472
:104490007F2F4FEA134308BF4FF0FF37032B3FD85E
:1044A000DFE803F0020F383BC9F80C7503A8039747
:1044B000FEF7AAFC039B4FF0010B06FA03F383609F
:1044C00003E0C9F814754FF0000B58F8043B03A83B
:1044D00003F40052002A0EBFDA464FF0010A4FF0F3
:1044E000000B01930397FEF78FFC039A019B00EBEF
:1044F0008200D0F80012C3F3C112230243EA820300
:1045000043EA0B0301F0E042134343EA4A03C0F8D5
:104510000032B1E7C9F80875C8E7C9F81075D2E7E5
:104520006FF08500ABE70222FEF7B8BC00207047B1
:104530000020704708B5FFF7F9FF08B9FFF7F8FF4B
:1045400008BD30B589B0154601230A4601466846C4
:1045500000F00EF8044640B9202269462846FBF7D1
:1045600089FE002808BF6FF06404204609B030BD02
:1045700008B5FCF795F9002008BD13B5044658B1FD
:1045800001200DF1060100F043F818B9BDF806301E
:104590005B08238002B010BD6FF01500FAE770B51C
:1045A000054608460C46FEF789FD214602460123D2
:1045B0002846BDE87040FEF791BD2DE9F8430D4651
:1045C0001646FEF799FE0446F8B1F5B10230FFF742
:1045D00025FA00278146B8460434B94507D8002497
:1045E00006B134600020A5F80080BDE8F8832046BD
:1045F000FFF714FAC3439BB2A21C002BF0D09845DE
:1046000038BF984614460137E7E76FF01500ECE72E
:104610000022FFF7D2BF4FF000535868704703469F
:104620005A6B00233C309A4200D17047C168013375
:104630000844F8E7004700F032B8034603F17F4230
:10464000B2F5802F08460AD351B103F17E4000F540
:104650000040B0F5607F2CBF002001207047012092
:1046600070474FF4802070474FF4006070478020FF
:104670007047704740B1C368587810F001001EBF02
:104680001878B0FA80F040097047FFF78CBDFFF74B
:104690007FBDEFF30580003818BF0120704708B1D7
:1046A000FDF72EB9704700005CBFFF7F01000000DE
:1046B00031180001000000002D230001E846000130
:1046C000A129000100470001C925000100000000E8
:1046D000392D0001000000003126000118470001BB
:1046E0002934000100000000BA520001F84800011E
:1046F0001049000134000021080100212C4800016C
:10470000CC530001484900017C49000138000021D8
:1047100008000021264800014C5300010000000061
:104720002C49000136000021000000002048000153
:10473000000000003B410001000000003B4100017F
:10474000000000003B410001000000003B4100016F
:10475000000000003B410001D53800013546000152
:10476000000000003B410001000000003B4100014F
:10477000000000003B410001000000003B4100013F
:10478000000000003B410001000000003B4100012F
:10479000000000003B410001000000003B4100011F
:1047A000000000003B410001000000003B4100010F
:1047B000000000003B410001000000003B410001FF
:1047C000000000003B41000100470001C34300011D
:1047D000000000003B410001000000003B410001DF
:1047E00000000000012B0001000000003B4100011F
:1047F000000000003B410001000000003B410001BF
:10480000000000003B410001000000003B410001AE
:10481000000000003B410001000000003B4100019E
:1048200000800080FF7F00800080FF7F008000808C
:10483000FF7FFFFFAD58000100000000B8580001E5
:10484000000000008C4D000103000000954B0001AA
:1048500003000000D5520001030000009154000144
:10486000030000006653000103000000F05900013E
:1048700003000000D857000103000000374C00017E
:1048800003000000DA53000103000000FFFFFFFFF8
:10489000DEE61E284CBBCE8F02350000DEE61E2869
:1048A0004CBBCE8F02350000DEE61E288384518685
:1048B00002350100DEE61E28EAAC45B802350000EC
:1048C000DEE61E284CBBCE8F023500000000000043
:1048D0000338FDD87047000000000000000200000F
:1048E0000004000000080000001000001122000178
:1048F000FD220001000000000D24000171240001D0
:10490000C9520001674200016D420001CF5200010F
:104910004F420001734200014142000100000000CB
:1049200055220001000000000000000025270001C2
:10493000B926000149260001292600011926000197
:1049400004000000FF0000000030014102000000F0
:104950000000000058490001003001416449000195
:10496000010000006C49000104000000210000006B
:104970000B000200A00101008A0103007B4300013B
:10498000612700016D430001252800015D430001FE
:104990000000000000020000000400000008000009
:1049A00000100000000000000002000000040000F1
:1049B0000008000000100000A6590001B4590001D1
:1049C000C8590001D7590001E3590001B046000160
:1049D000B0460001D0460001D8460001E84600017B
:1049E000E8460001982F8A4291443771CFFBC0B549
:1049F000A5DBB5E95BC25639F111F159A4823F92AA
:104A0000D55E1CAB98AA07D8015B8312BE85312402
:104A1000C37D0C55745DBE72FEB1DE80A706DC9BC3
:104A200074F19BC1C1699BE48647BEEFC69DC10F6F
:104A3000CCA10C246F2CE92DAA84744ADCA9B05CAB
:104A4000DA88F97652513E986DC631A8C82703B06E
:104A5000C77F59BFF30BE0C64791A7D55163CA067C
:104A600067292914850AB72738211B2EFC6D2C4D88
:104A7000130D385354730A65BB0A6A762EC9C28176
:104A8000852C7292A1E8BFA24B661AA8708B4BC20C
:104A9000A3516CC719E892D1240699D685350EF436
:104AA00070A06A1016C1A419086C371E4C774827ED
:104AB000B5BCB034B30C1C394AAAD84E4FCA9C5B63
:104AC000F36F2E68EE828F746F63A5781478C884B4
:104AD0000802C78CFAFFBE90EB6C50A4F7A3F9BE96
:104AE000F27871C6466C61736820646576696365A7
:104AF000206E6F742072656164790A004661696C8A
:104B0000656420746F2070726F7465637420623006
:104B10006E20666C6173682C2063616E63656C2027
:104B2000737461727475700A0D00556E61626C6504
:104B300020746F2066696E642076616C69642066FB
:104B400069726D7761726520696E7369646520258D
:104B5000700A0D004661696C656420746F20747280
:104B6000616E7366657220696D6167653A202564C0
:104B70000A0D004661696C656420746F2070726F65
:104B8000746563742061707020666C6173683A208C
:104B900025640A0D0063627072696E74665F7061ED
:104BA000636B61676500574553545F544F504449E8
:104BB000522F7A65706879722F6C69622F6F732F2C
:104BC0006F6E6F66662E6300415353455254494FD2
:104BD0004E204641494C20402025733A25640A0066
:104BE000574553545F544F504449522F7A6570686B
:104BF00079722F6C69622F6F732F6E6F746966798B
:104C00002E6300286E696C290025633A20416E6F7F
:104C10006D616C7920313630207472696767657216
:104C200020636F6E646974696F6E73206465746568
:104C3000637465642E0A00736F630025633A204233
:104C400075666665722073697A652069732062698A
:104C500067676572207468616E20706167650A001D
:104C600025633A204572726F722025642077686947
:104C70006C652067657474696E6720706167652074
:104C8000696E666F0A0025633A204572726F722062
:104C90002564207768696C652065726173696E6749
:104CA00020706167650A0025633A2073747265613C
:104CB0006D5F666C6173685F65726173655F70617B
:104CC000676520657272202564206F66667365745F
:104CD0003D30782530387A780A0025633A20666CB2
:104CE0006173685F7772697465206572726F722094
:104CF0002564206F66667365743D30782530387A98
:104D0000780A0025633A20666C61736820726561D9
:104D100064206661696C65643A2025640A00256335
:104D20003A2063616C6C6261636B206661696C65DB
:104D3000643A2025640A0025633A20427566666558
:104D4000722073697A65206973206E6F7420616CBC
:104D500069676E656420746F206D696E696D616C42
:104D60002077726974652D626C6F636B2D73697A3D
:104D7000650A0025633A20496E636F727265637439
:104D800020706172616D657465720A0053545245FA
:104D9000414D5F464C4153480025633A2072302F05
:104DA00061313A2020307825303878202072312F38
:104DB00061323A2020307825303878202072322F26
:104DC00061333A20203078253038780A0025633A5C
:104DD0002072332F61343A20203078253038782003
:104DE0007231322F69703A2020307825303878209F
:104DF0007231342F6C723A20203078253038780A9E
:104E00000025633A2020787073723A20203078258C
:104E10003038780A0025633A204661756C74696EF3
:104E20006720696E737472756374696F6E20616454
:104E3000647265737320287231352F7063293A20AC
:104E40003078253038780A00574553545F544F5016
:104E50004449522F7A65706879722F617263682FA6
:104E600061726D2F636F72652F6161726368333297
:104E70002F6972715F6D616E6167652E63002563D6
:104E80003A202A2A2A2A2A205553414745204641BA
:104E9000554C54202A2A2A2A2A0A0025633A20201F
:104EA000204469766973696F6E206279207A657231
:104EB0006F0A0025633A202020556E616C69676E89
:104EC0006564206D656D6F727920616363657373CE
:104ED0000A0025633A202020537461636B206F76AB
:104EE0006572666C6F772028636F6E7465787420C6
:104EF00061726561206E6F742076616C6964290A45
:104F00000025633A2020204E6F20636F70726F631C
:104F10006573736F7220696E737472756374696FF1
:104F20006E730A0025633A202020496C6C65676126
:104F30006C206C6F6164206F66204558435F52455A
:104F40005455524E20696E746F2050430A002563F9
:104F50003A202020496C6C6567616C207573652070
:104F60006F662074686520455053520A0025633AE5
:104F7000202020417474656D707420746F206578F2
:104F8000656375746520756E646566696E65642019
:104F9000696E737472756374696F6E0A0025633A83
:104FA000202A2A2A2A2A20425553204641554C5469
:104FB000202A2A2A2A2A0A0025633A20202053740C
:104FC00061636B696E67206572726F720A00256398
:104FD0003A202020556E737461636B696E6720659B
:104FE00072726F720A0025633A2020205072656346
:104FF00069736520646174612062757320657272E3
:105000006F720A0025633A20202042464152204117
:105010006464726573733A20307825780A002563DA
:105020003A202020496D7072656369736520646160
:10503000746120627573206572726F720A00256355
:105040003A202020496E737472756374696F6E2004
:10505000627573206572726F720A0025633A202AA6
:105060002A2A2A2A204D5055204641554C54202AA0
:105070002A2A2A2A0A0025633A20202053746163D1
:105080006B696E67206572726F722028636F6E7431
:105090006578742061726561206D6967687420624B
:1050A00065206E6F742076616C6964290A0025633F
:1050B0003A2020204461746120416363657373204A
:1050C00056696F6C6174696F6E0A0025633A20201F
:1050D000204D4D46415220416464726573733A20FD
:1050E000307825780A0025633A202020496E7374B1
:1050F00072756374696F6E204163636573732056C4
:10510000696F6C6174696F6E0A00574553545F5440
:105110004F504449522F7A65706879722F617263DB
:10512000682F61726D2F636F72652F6161726368A2
:1051300033322F636F727465785F6D2F6661756CA3
:10514000742E6300526573657276656420457863DA
:10515000657074696F6E20280053707572696F7581
:105160007320696E7465727275707420284952518B
:10517000200025633A20535053454C20696E20741B
:105180006872656164206D6F646520646F6573206B
:105190006E6F7420696E646963617465205053504A
:1051A0000A0025633A202A2A2A2A2A204841524402
:1051B000204641554C54202A2A2A2A2A0A002563CF
:1051C0003A202020427573206661756C74206F6EE2
:1051D00020766563746F72207461626C65207265FD
:1051E00061640A0025633A202020446562756720C7
:1051F0006576656E740A0025633A20202046617545
:105200006C7420657363616C6174696F6E202873C0
:1052100065652062656C6F77290A0025633A204135
:105220005243485F4558434550542077697468207D
:10523000726561736F6E2025780A0A0025633A2033
:105240002A2A2A2A2A204465627567206D6F6E69B2
:10525000746F7220657863657074696F6E202A2A96
:105260002A2A2A0A0025633A202A2A2A2A2A2025BD
:105270007320256429202A2A2A2A2A0A00574553FE
:10528000545F544F504449522F7A65706879722F99
:10529000647269766572732F636C6F636B5F636FA3
:1052A0006E74726F6C2F636C6F636B5F636F6E7481
:1052B000726F6C5F6E72662E6300636C6F636B401F
:1052C0003431303035303030006866636C6B006CE0
:1052D00066636C6B00636C6F636B5F636F6E74729D
:1052E0006F6C0025633A20756E616C69676E65644A
:1052F00020616464726573733A2030782530386CAD
:10530000783A257A750A0025633A20696E76616CD1
:10531000696420616464726573733A203078253063
:10532000386C783A257A750A0025633A206E6F74D6
:1053300020776F72642D616C69676E65643A203006
:10534000782530386C783A257A750A00666C617376
:10535000682D636F6E74726F6C6C6572403431309F
:10536000383030303000666C6173685F6E72660092
:1053700025633A204661696C656420746F20616C16
:105380006C6F6361746520505049204368616E6E94
:10539000656C0A00574553545F544F504449522F8F
:1053A0006D6F64756C65732F68616C2F6E6F7264BE
:1053B00069632F6E7266782F68656C706572732FE3
:1053C0006E7266785F677070692E680075617274BE
:1053D00040343130313330303000756172745F6E7B
:1053E0007266785F756172746500574553545F54F7
:1053F0004F504449522F6D6F64756C65732F68610F
:105400006C2F6E6F726469632F6E7266782F68619D
:105410006C2F6E72665F6770696F2E680057455318
:10542000545F544F504449522F6E72662F6C69621C
:105430002F6670726F746563742F6670726F746517
:1054400063745F61636C2E6300574553545F544F20
:10545000504449522F6D6F64756C65732F68616C91
:105460002F6E6F726469632F6E7266782F68616C3D
:105470002F6E72665F61636C2E680025633A20525E
:105480006573657474696E672073797374656D0AEA
:1054900000666174616C5F6572726F7200426F6F5B
:1054A00074696E67202830782578292E0D0A004906
:1054B0006E76616C6964206669726D7761726520D1
:1054C000696E666F20666F726D61742E0A0D0054EE
:1054D0006865206669726D7761726520646F6573B7
:1054E0006E27742062656C6F6E672061742064653E
:1054F0007374696E6174696F6E20616464722E0AE0
:105500000D0073726320616E6420647374206D7586
:10551000737420626520657175616C20666F7220FE
:105520006C6F63616C2063616C6C732E0A0D0046B6
:1055300069726D7761726520696E666F20646F6550
:10554000736E277420706F696E7420746F20697495
:1055500073656C662E0A0D00466972776D6172651F
:1055600020686173206265656E20696E76616C6982
:1055700064617465643A20307825782E0A0D004302
:10558000616E6E6F74207265616420746865206658
:1055900069726D776172652076657273696F6E2EC0
:1055A0002025640A0D00576520617373756D6520B1
:1055B000746869732069732064756520746F207442
:1055C0006865206669726D776172652076657273B1
:1055D000696F6E206E6F74206265696E6720656EFC
:1055E00061626C65642E0A0D004669726D776172A6
:1055F000652076657273696F6E202825752920698C
:105600007320736D616C6C6572207468616E206DBF
:105610006F6E6F746F6E696320636F756E74657201
:1056200020282575292E0A0D004669726D77617252
:105630006520696E666F206973206E6F74207769CC
:105640007468696E207369676E6564207265676946
:105650006F6E2E0A0D00426F6F7420616464726574
:105660007373206973206E6F742077697468696E34
:10567000207369676E656420726567696F6E2E0AB4
:105680000D0052657365742068616E646C657220EC
:105690006973206E6F742077697468696E2073690E
:1056A000676E656420726567696F6E2E0A0D004330
:1056B0006F756C64206E6F742066696E642076610D
:1056C0006C6964206669726D776172652076616CC1
:1056D00069646174696F6E20696E666F2E0A0D00D1
:1056E00056616C69646174696F6E20696E666F20C3
:1056F000646F65736E27742062656C6F6E672074CB
:105700006F2074686973206669726D776172652EA7
:105710000A0D00626C5F63727970746F5F696E6905
:105720007428292072657475726E65642025642E54
:105730000A0D004669726D776172652076616C6949
:10574000646174696F6E206661696C656420776955
:105750007468206572726F722025642E0A0D0046EF
:1057600069726D7761726520686173682076657211
:1057700069666965642E0A0D0025633A20737472A8
:1057800065616D5F666C6173685F696E69742066E0
:1057900061696C65643A2025640A0025633A2073C8
:1057A000747265616D5F666C6173685F6275666671
:1057B000657265645F7772697465206661696C3AC9
:1057C0002025640A0025633A205472616E73666571
:1057D0007220646F6E650A00706364004552524F18
:1057E000523A2043616E6E6F742066756C66696C08
:1057F0006C204558545F415049207265717565733E
:10580000742E0D0A005741524E494E473A204F70B0
:1058100074696F6E616C204558545F415049207225
:10582000657175657374206E6F742066756C66693A
:105830006C6C65642E0D0A0001000000574553543E
:105840005F544F504449522F6D6F64756C65732FD0
:1058500068616C2F6E6F726469632F6E7266782F49
:10586000647269766572732F7372632F6E726678D5
:105870005F636C6F636B2E6300574553545F544FE7
:10588000504449522F6D6F64756C65732F68616C5D
:105890002F6E6F726469632F6E7266782F68616C09
:1058A0002F6E72665F636C6F636B2E68004E52469C
:1058B000585F434C4F434B004E5246585F44505044
:1058C0004900574553545F544F504449522F6D6F10
:1058D00064756C65732F68616C2F6E6F7264696399
:1058E0002F6E7266782F647269766572732F737289
:1058F000632F6E7266785F6E766D632E6300556EF1
:105900006B6E6F776E206572726F720025633A203E
:105910003E3E3E205A455048595220464154414C43
:10592000204552524F522025643A202573206F6E35
:10593000204350552025640A0025633A20466175AE
:105940006C7420647572696E6720696E746572721A
:105950007570742068616E646C696E670A0A007500
:105960006E6B6E6F776E0025633A204375727265B9
:105970006E74207468726561643A20257020282551
:1059800073290A00574553545F544F504449522FCE
:105990007A65706879722F6B65726E656C2F6661BF
:1059A00074616C2E63004350552065786365707494
:1059B000696F6E00556E68616E646C656420696E17
:1059C0007465727275707400537461636B206F76C6
:1059D0006572666C6F77004B65726E656C206F6FD9
:1059E0007073004B65726E656C2070616E69630048
:1059F0006F73002A2A2A20426F6F74696E67205ADB
:105A00006570687972204F53206275696C642076E6
:105A1000332E322E39392D6E637332202A2A2A0A08
:105A200000000000000000019B3E0001B9410001A0
:105A30000000000000C2010000010300000000009F
:105A40008401002183010021000000000090D003A8
:105A5000FFFFFFFF2C0000212C00002100000000B0
:065A6000000015E015E056
:1085A800008800010088000101000000FFFFFFFFB4
:1085B800A00A14E2B002C51491C99F96A9D18FCF21
:0885C800010001000100F000B8
:10880000A05E002149D50201213203011DD50201DC
:108810001DD502011DD502011DD502010000000079
:1088200000000000000000000000000091D20201E2
:108830001DD502010000000039D202011DD5020140
:1088400011D3020111D3020111D3020111D302018C
