:020000040000FA
:10000000B8780020D5230000DD640000A92300009B
:10001000A9230000A9230000A9230000A9230000B0
:10002000000000000000000000000000491F000068
:10003000A923000000000000A9230000A92300005C
:10004000A51F0000A51F0000A51F0000A51F0000A0
:10005000A51F0000A51F0000A51F0000A51F000090
:10006000A51F0000A51F0000A51F0000A51F000080
:10007000A51F0000A51F0000A51F0000A51F000070
:10008000A51F0000A51F0000A51F0000A51F000060
:10009000A51F0000A51F0000A51F0000A51F000050
:1000A000A51F0000A51F0000A51F0000A51F000040
:1000B000A51F0000A51F0000A51F0000A51F000030
:1000C000A51F0000A51F0000A51F0000A51F000020
:1000D000A51F0000A51F0000A51F0000A51F000010
:1000E000A51F0000A51F0000A51F0000A51F000000
:1000F000A51F0000A51F0000A51F0000A51F0000F0
:10010000A51F0000A51F0000A51F0000A51F0000DF
:10011000A51F0000A51F0000A51F0000A51F0000CF
:10012000A51F0000A51F0000A51F0000A51F0000BF
:10013000A51F0000A51F0000A51F0000A51F0000AF
:10014000A51F0000A51F0000A51F0000A51F00009F
:10015000A51F000053B94AB9002908BF00281CBFD9
:100160004FF0FF314FF0FF3000F00CB8ADF1080C4C
:100170006DE904CE00F008F8DDF804E0DDE90223C3
:1001800004B07047704700BF2DE9F04786468C46A3
:100190000846089E154674461946002B40F0C1805B
:1001A0008542B2FA82F245D94AB1C2F1200300FA7F
:1001B00002FC954094402EFA03F343EA0C0C4FEAFC
:1001C000154EA8B2230CBCFBFEF80EFB18CC08FBA6
:1001D00000F943EA0C43994528D9EB1808F1FF3799
:1001E00004D2994502D9A8F102072B44A3EB0903D5
:1001F000A4B2B3FBFEFC0EFB1C330CFB00F044EA84
:100200000344A04214D92C190CF1FF3304D2A042AC
:1002100002D9ACF102032C44241A43EA07401EB170
:10022000D440002334607360BDE8F0874746DDE7C3
:100230006346F1E792BB431B01214FEA154EAFB273
:10024000200CB3FBFEFC0EFB1C330CFB07F840EA52
:100250000343984561D9EB180CF1FF3004D298455F
:1002600002D9ACF102002B44A3EB0803A4B2B3FB08
:10027000FEFC0EFB1C330CFB07F744EA0344A742C9
:100280004DD92C190CF1FF3304D2A74202D9ACF19D
:1002900002032C44E41B43EA0040C0E7C2F1200300
:1002A0009540944020FA03F12EFA03F34FEA154EDD
:1002B0009040AFB20343B1FBFEFC0EFB1C10190CC7
:1002C0000CFB07F841EA0041884522D969180CF176
:1002D000FF3004D2884502D9ACF102002944A1EBD9
:1002E00008019BB2B1FBFEFC0EFB1C110CFB07F7D7
:1002F00043EA01439F420ED9EB180CF1FF3104D2BF
:100300009F4202D9ACF102012B44DB1B41EA0041C0
:1003100093E76046E3E76146F7E76046A4E7634694
:10032000B8E7834206D916B9002108467CE7C6E93A
:1003300000E0F9E7B3FA83F78FB9834201D372453E
:1003400008D8BEEB020460EB030301209C461EB9F3
:10035000002169E73846FAE7C6E9004CF8E7C7F13B
:10036000200CBB400EFA07F522FA0CF42EFA0CF121
:10037000BA401C4320FA0CF3B8404FEA1449014339
:100380001FFA84FEB3FBF9F809FB18300B0C08FBCD
:100390000EFA43EA00439A4540D9E31808F1FF30CA
:1003A00004D29A4502D9A8F102002344A3EB0A0320
:1003B00089B2B3FBF9F809FB183308FB0EFE41EADA
:1003C00003418E452CD9611808F1FF3304D28E45C4
:1003D00002D9A8F10203214443EA0040A1EB0E0137
:1003E000A0FB02984145CE46434602D306D14D4577
:1003F00004D20138B9EB020E68EB0403002EA7D03B
:10040000B5EB0E0261EB030101FA0CFC22FA07F3D3
:10041000F9404CEA0303C6E9003199E74046C5E7D5
:100420004346D9E7F0B5394B394A4921C2F800367D
:10043000C2F80436C2F80836C2F80C36C2F81036D4
:10044000C2F81436C2F81836C2F81C3602F58052CB
:10045000C2F800362F48C2F8043685B0C2F8083614
:10046000C2F80C36C2F81036C2F81436C2F8183684
:10047000C2F81C3605F0A9FF00F07AF801A800F0D8
:1004800023FD254B1B68834204D04521234805F0FA
:100490009CFFFEE7039A4921214805F096FF492178
:1004A000204805F092FF4FF44041002003F024FC67
:1004B000044620B145211C4805F087FFFEE703F004
:1004C000B1FC69469DF8080000F032F8009B039DDE
:1004D0001D44019B1E8900F0C7FFAF1900F0A8FF63
:1004E00001F0BAFF84F30B8884F30A88AB5983F3D5
:1004F000088884F31488BFF36F8FBFF36F8F7B6816
:1005000098474521094805F060FFFEE73546526EE1
:10051000008001501A8E0000E0210020338E000080
:10052000568E0000858E0000AA8E0000DD8E000031
:10053000024608B538B105480023452105F045FFBE
:100540006FF0150008BD0860FCE700BF008F0000D9
:100550001FB50C46014601AA044806F072F918B905
:10056000019B2360029B636004B010BDF086000015
:100570004FF4C051014803F0A3BE00BFAC2F0020D0
:100580002DE9F04FDFF8E4A1F9B038A8DDE984489F
:1005900017461D46DAF8006007F0C5FD002138A8AF
:1005A00003F0A2FF3CB1B8F1000F04DD4246214642
:1005B00038A807F0BCFD4FF000097B89B7F8088028
:1005C0009844FB689844C84521D80DA938A807F07D
:1005D000E7FD869B23B1202218460DA905F0BCFF3C
:1005E00000232A46009339464FF6FF7307A805F00B
:1005F0009DFB044638B928460C9F00F0DDF9874280
:100600001BD94FF0FF34204679B0BDE8F08F839BB3
:10061000A8EB090B9B4528BF9B4649465B462846ED
:10062000829A05F0E0FE04460028ECD15A468299F1
:1006300038A807F07CFDD944C5E74FF0FF37DFF855
:1006400030910DF1160305AA06A907A805F0BCFB19
:10065000B0F10008C0F288807BD1BDF816B0BBF1C4
:10066000100F18D1BDF81440202CCAD123462846BB
:10067000069938AA05F0B7FE8046002874D12246B4
:1006800038A90DA805F0ECFB04463A4B1B688342E1
:10069000B9D10124D5E7BBF1010F37D1BDF8143032
:1006A000202BAED82846069938AA05F09CFE804635
:1006B000002859D19DF814B0BBF1200F03D94FF099
:1006C000FF384746BDE7D9F800302B4F0393039B13
:1006D0009845F4DA1DA807F026FD00211DA803F0B7
:1006E00003FF7A681DA8126857F8081B07F01FFD62
:1006F00015A91DA807F054FD5A4638A915A805F0FC
:1007000004FF0028DDD008F10108E0E7BBF1200F6D
:1007100097D17B1C95D0D9F80030BB4216DDBDF8CF
:100720001430B3F5807F7FF46CAF2846069938AA61
:1007300005F059FE8046B8B9FFB25946BDF81430ED
:10074000009738AA0DA800F019F806464FF0FF37B9
:1007500077E73CB1074B1B68B34218BFDAF800607B
:10076000344650E74FF0010844464CE70020002093
:10077000F8890000E0210020FC8900002DE9F04FFD
:100780001F46ADF54B7D6A4B804627A89DF8506308
:100790008A4691461D6807F083FC664B8AAA53F887
:1007A000364003EBC6035B6802941B6802A81C4436
:1007B0002146302306F008FA68BB029B8A9A13444C
:1007C0009C4228D1214629AA02A806F011FA10BBA2
:1007D0000DF1B00B5A46214602A806F009FA06466A
:1007E000C8B929A806F024FD029B28909C4212D18A
:1007F00033463246CDE9006B29A927A807F00DFC46
:1008000048B927A803F002FE28B929A806F010FD70
:10081000874228900AD027A807F04CFC27A807F0A9
:1008200049FC28460DF54B7DBDE8F08FB7F5807F7C
:1008300002D04FF0FF35F1E7BAF1200FF9D1494668
:100840008AAA27A803F008FE04460028F1D19DF8E3
:100850002733BC2BEDD152AFDF263D4603900CA8C9
:1008600007F061FC00210CA803F03EFE20220DF2EF
:1008700007310CA807F05BFC042203A90CA807F0C1
:1008800056FC04A90CA807F08BFC202EB146A8BF8B
:100890004FF020099DF80F30384601334A4604A92D
:1008A000A6EB09068DF80F3005F056FE002E4F44DA
:1008B000D5DC2F46294600228AAB087813F8016B55
:1008C00001327040DF2A01F8010BF6D12B7803F0DA
:1008D0007F032B7017F8016B002EAAD10134BE2CB8
:1008E000F8D195F8BE30012BA3D10CA807F01BFC62
:1008F00031460CA803F0F8FD08220F490CA807F0B8
:1009000016FC414620220CA807F011FC20220DF213
:1009100007210CA807F00BFC04A90CA807F040FC69
:1009200020220DF2073104A805F09AFA054682E765
:1009300000200020FC890000268F00002DE9F041F6
:10094000022386B00D466F460026DFF86880ADF8BA
:10095000003017F8010B01A901F0D8F90446A0B93D
:1009600001981023816802AA103905F03CFD044665
:10097000019805F037FD44B91022414602A805F060
:10098000C4FD40B12EB14FF0FF34204606B0BDE8A3
:10099000F0810126DDE7019806F01DF80423A0F19F
:1009A00008012A46019805F01EFD0446019805F04D
:1009B00019FDEAE70A8E000007B505F065FA6946F9
:1009C000FFF7C6FD38B10548452105F0FEFC0020C3
:1009D00003B05DF804FB0098FAE700BF2E8F00001B
:1009E0002DE9F041354B88B0064600200C461D68C5
:1009F00005F091F906A9C0B201F088F9002857D195
:100A0000214605F088F92C2507A9C0B205FB04652D
:100A100001F07CF9002833D02C27674306EB070848
:100A2000D8F81010069B11F0100138D14FF48072E5
:100A30000192234A08460092CDE903112A46029109
:100A4000FFF79EFD05461F4BF25906989A420CD1BE
:100A5000D8F80C20B8F808309B1806D28268934268
:100A600003D2194B1B68AB421FD02CB38268002104
:100A700005F0E3FC154A4521154805F0A6FC13E0F6
:100A8000079805F0F5FC0746079805F0ABFC6B1ED0
:100A9000EA1C13F8011FB942BED19342F9D11CB12F
:100AA0003046069905F0D4FA0125069805F09AFC1F
:100AB000284608B0BDE8F081064ADCE700200020A7
:100AC000AC4700203DB8F396E0210020718F000074
:100AD0007B8F0000698F000073B50D46002104462E
:100AE0002846CDE9001105F072FA30B3164E23689E
:100AF000B34203D1204601AA05F0FEF9E36AB342EE
:100B000004D16A460121204605F0F6F9DDE90032FC
:100B1000934288BF0193019BAB60019A294620460E
:100B200000F07CFB094B1A68002A03DD57210848B6
:100B300005F04BFC002002B070BD05F10801FFF785
:100B4000FDFEAB680193E8E73DB8F396442E002024
:100B5000A38F00002DE9F84F884691469A4600265B
:100B6000DFF88CB0234D244C0B9B9E4201D3002018
:100B70000FE00B9B40469F1BB7F5806F28BF4FF4DB
:100B800080671B4A3B4606EB0A0105F02CFC10B1BE
:100B90000120BDE8F88F0A993B465A46484671182D
:100BA00005F036FC0028F3D1144BC5F800463E444E
:100BB000C5F80446C5F80846C5F80C46C5F8104601
:100BC000C5F81446C5F81846C5F81C46C3F80046D3
:100BD000C3F80446C3F80846C3F80C46C3F81046E9
:100BE000C3F81446C3F81846C3F81C46BCE700BF58
:100BF000E4290020008001503546526E00900150DB
:100C00002DE9F0430F460021A54B87B04362A54B69
:100C100004460365084605F07EF804F12001C0B2E1
:100C200001F074F80121002005F075F804F14C0181
:100C3000C0B201F06BF80546204605F09EF9064665
:100C400068B900222046114605F040F9064600B377
:100C500000225721944805F0B8FB0123BCE0802214
:100C60005721924805F0B1FB01239E4284F8583089
:100C7000E7D194F85830042B8DF80F3000F2AF8094
:100C8000012B00F2B38000F0CA80FF2384F85830B3
:100C9000C5E0204600F0DAF90028DED002A805F011
:100CA0008DF90146204605F028FA18B13246572141
:100CB0007F48D0E702A805F08AF980F0010102AA76
:100CC0002046C9B205F002F902460028C0D102A8A8
:100CD00005F07DF9064660BB204602A9FFF7FCFE41
:100CE0009DF80F3084F85830033B012B06D830466E
:100CF00005F051FA10B1FF2384F858309DF80F30F9
:100D0000023B022B0BD8002005F033FA38B1FF2349
:100D100084F858304521674805F057FBFEE794F802
:100D20005830FF2BF6D00021204602AA05F0CEF85D
:100D300093E79DF80F30012B43D15F4B0192E26A9C
:100D4000D4F84C809A420CD10423A18E40460DEB7E
:100D50000302194405F047FB18B1052684F85860D2
:100D600087E7002003F0DCF8831E022B0646F5D847
:100D700001212046FFF734FE504B1B68984203D0F8
:100D80000128EAD10126E9E7019BB3F1807FE5D98B
:100D9000D8F8043049211E89D3F80C9048481E44E5
:100DA00005F013FB4946304603F032F80028D4D151
:100DB0004921444805F009FB4146204605F048F921
:100DC000E0E701212046FFF70BFE3C4B1B689842F1
:100DD00014BF05239DF80F3084F8583049E7052BE0
:100DE0007FF453AF002005F0D6F913E0204602A9A6
:100DF000FFF772FE94F858300546DA1E012A0CD827
:100E0000002005F0C8F9054600287FF43EAF002019
:100E100005F0AFF9054610B137E7022BF7D094F88B
:100E20005830FF2B04D14521224805F0CEFAFEE7C9
:100E3000012B10D00021204602AA05F047F80546F4
:100E400048B1E06C05F0CEFA206A05F0CBFA2846EE
:100E500007B0BDE8F08300212046FFF7C1FD06463C
:100E6000DFF85880D8F8003098420FD110220021C6
:100E700002A805F07CFB206A04F056FF3871236A53
:100E80005B683C60D8F80050BB60DAE7E06C05F0C6
:100E9000A9FA206A05F0A6FA002D08BF3546D6E764
:100EA000E4250020E421002014900000D28F0000EF
:100EB000409000006A9000003DB8F396E0210020C9
:100EC000769000009890000038B5064D04466022E8
:100ED0000021284605F04BFB21462846FFF790FEEF
:100EE00038BD00BFE42D002073B516461D4643B142
:100EF0005B79012B07D121B9204B2A681B689A42E4
:100F000017D8002418E0022BFBD12B68012B07D93E
:100F10001A4A12689342F4D8B1FA81F14909F0E70C
:100F2000EFD131B10129ECD12979023918BF012162
:100F3000E7E70021436A5C68002004F0ECFE01A9A9
:100F4000C0B200F0E3FE30B10124019805F04AFA86
:100F5000204602B070BD214620233246019805F09C
:100F600042FA04460028EFD1002DEED03468044B3D
:100F7000E41A18BF4FF0FF34E7E700BF0420002059
:100F80003DB8F3962DE9F04F07460C4685B0014673
:100F90000020164604F06BFF051E50DB3846E46D5A
:100FA00004F072FF5FFA84F94FF0000A4FF0010B72
:100FB0004FF0FF346B1E09FB03089DB9BAF1010F16
:100FC00003DD4521204805F000FA631C06D07F2C84
:100FD0002ADC40F2011301343460B380284605B0A6
:100FE000BDE8F08F6B1E00934146012338460DF19A
:100FF0000F0205F0F8F9031E019322DB01223846A7
:101000000DF10F0105F0FBFC019B40B15B4501D0E8
:101010000AF1010A9B46009DA8EB0908CDE7B4F14F
:10102000FF3F08BF2C46F5E70223803C7371631035
:1010300004F001040133013433603471CEE7072535
:10104000CCE70125CAE700BFB890000038B5816A37
:10105000426D914208D0531C8B4205D05721134852
:1010600005F0B3F9002038BD80291CD9572110485C
:10107000F6E7446A056D04EBC30405EBC305646839
:101080006D68AC4202D057210A48E9E701339A4221
:10109000EFD1914205D9436A03EBC2035B68A342D7
:1010A000F1D10120DFE700231C46F0E7DB900000D0
:1010B000139100004291000000B589B0022004A9FC
:1010C00005F00FFD9DF81020012A41D0254B26493F
:1010D000032A08BF0B469DF81320492102929DF870
:1010E0001220224801929DF811200092204A05F01A
:1010F0006CF9052006A905F0F4FC9DF81820012ADA
:1011000028D0184B1849032A08BF0B469DF81B200E
:10111000492102929DF81A20144801929DF8192045
:101120000092144A05F051F99DF81030012B13D1AB
:101130009DF81230032B0FD19DF81830012B0BD0E6
:101140000D48492105F041F9022009B05DF804FB82
:101150000A4BC0E7094BD9E70948492105F035F9A1
:101160000020F2E76E910000779100008B91000063
:101170007D910000CC910000DC9100007291000094
:10118000FB91000070B54B6814461E4A03F0FF2324
:10119000934206460D4686B02FD10B68012B2CD109
:1011A000204604A902F066FE9DF81020012A26D0F0
:1011B000154B1649032A08BF0B469DF813204921F9
:1011C00002929DF81220124801929DF8112000927F
:1011D000104A05F0FAF89DF81030032B0DD1214686
:1011E000304604F035FF204605F06EFC2046A96825
:1011F00004F05DFE204602F01DFE06B070BD064BF9
:10120000DBE700BF000100046E9100007791000051
:101210008B910000CC910000729100002DE9F04FFD
:1012200005460C467D48492189B0174605F0CDF8A2
:101230006B6A01225E6800233344BB42114602F10F
:101240000102F9D3764F2046396004F0C0FE08B39E
:10125000E86D04F007FEAB6A03F1FF380023334466
:10126000834202D208F1FF38F9E73B68434511D3C6
:1012700057216C4805F0A9F83A6808FB06F3572196
:1012800002FB0662684805F0A0F80123E37109B08B
:10129000BDE8F08F06A9022000F038FD07A905205F
:1012A00000F034FD21462846079AFFF76BFF63796B
:1012B000012B0BD1D7F80080DFF870B13B68DDF867
:1012C0001890B8F1000F11D10123236002234FF0D1
:1012D000010863713B68DDF818A0984549D950466C
:1012E00005F080F8079805F07DF8D0E72268013313
:1012F0009B1A98453AD86B6A012A196853F8380046
:1013000003EBC80353F8083CA0EB010AA3EB01036D
:10131000049311D1079B0393E368022B08D049463D
:10132000284604F095FE22464946284604F0C6FEAB
:101330002846039904F08CFE32465146484604F094
:1013400085FE049B4A4649462846CDE900A6FFF79C
:1013500001FC2146284604F047FE23680133236040
:1013600020B1DBF800300133CBF8003008F1FF3852
:10137000A4E7236898454ED36A6A4FEAC80352F837
:101380003810083B04911168DDF81CB00391D15866
:101390002A6DD0581368A0EB03092379012B38D1AB
:1013A000039B3246C91A5046059104F04FFE059939
:1013B0004B4652460091284659460196FFF7CAFB14
:1013C0002146284604F010FE0223237118B1174A63
:1013D00013680133136032464946584604F036FE1E
:1013E000DDE9032351469B1A28465A46CDE900966B
:1013F000FFF7B0FB2146284604F0F6FD23680133D1
:1014000023600123237130B1084A1368013313604C
:1014100001E0022BDFD008F101085BE71292000027
:10142000042000203B9200006A920000442E00201D
:10143000BFF36F8F72B600234FF0FF30094A03F1FC
:1014400020010133102B42F82100F8D100234FF086
:10145000FF30044A03F160010133102B42F82100F0
:10146000F8D1704700E100E038B501224FF0FF34B9
:1014700000251A4B29465A60C3F84843C3F808436D
:1014800003F580535A60C3F84843C3F80843A3F5F3
:101490005043C3F800558022C3F80843104805F0B4
:1014A00066F8802229460F4805F061F80E4B80222D
:1014B000C3F800552946C3F808430C4805F057F80F
:1014C000802229460A4805F052F80A4BC3F808451D
:1014D0004FF05023C3F8084338BD00BF004001500F
:1014E000808000508081005000900050809000501B
:1014F0008091005000700150014B1B68184700BFDD
:1015000008200020014B1860704700BF0820002011
:1015100007B50B46002102460091034800F014F97C
:1015200003B05DF804FB00BFF91400002DE9F0479B
:10153000058B04462807904611D4022905F00705BB
:1015400040F0CD80204604F066FE78B10138218B52
:10155000042811D8DFE800F0C3106D85950001293B
:101560000CBF45F0100545F02005258388F3118850
:10157000BFF36F8FBDE8F08701F0070AAA4500F0BE
:10158000A6800027B9463E46A368002B00F0BD8028
:1015900041F00801218388F31188BFF36F8FA168A0
:1015A000002900F0BB800D68002900F0B7803346A9
:1015B00052462046D1F80480C047002D76D02B68D3
:1015C00029461D46F0E701F007035A1F012A1BD8E0
:1015D000002221F00701062B276889B2C4E9002206
:1015E00009D13B4603E0628B013262831B68002B0A
:1015F000F9D141F002012046218304F00CFE0028BD
:101600007BD041F0200177E0042B0AD121F00701C3
:1016100089B22046218304F0FEFD10B141F0200183
:101620002183218B01F0070AAA4550D00027B94633
:10163000AAE7236921F0070141F00601062DD3F83E
:10164000009021832DD1B9F1000F40D041F0080165
:10165000218388F31188BFF36F8F20463949C8472B
:1016600029E021F00701236941F0040189B2042D2A
:10167000D3F804902183E6D000274FF0040A3E46B9
:1016800082E721F00701236941F0050189B2052DA8
:10169000D3F808902183D6D000274FF0050A3E46A4
:1016A00072E700274FF0060A3E466DE72B4687E7B4
:1016B000B9F1000FD1D14FF02003EFF3118883F37C
:1016C0001288BFF36F8F238B23F008032383258BAE
:1016D000EA062ED525F01003238305F00705666979
:1016E000218B002EBFF66FAF00232768C4E90033BB
:1016F00021F0070141F001012183218B4FF0000906
:1017000001F0070AAA457FF43FAF002F9BD041F0BC
:101710000801218388F31188BFF36F8F002FC7D092
:101720003D68394633465246204604F0A0FD2F4618
:10173000F4E7AB067FF51AAF25F02003238305F00D
:101740000705FFE69B6200002DE9F04F82464FF04F
:1017500000098DB01D46531E01910393039B5878D9
:101760005C1C252819D100204FF0FF381E46444646
:1017700003460236029031780396392955D81F293D
:1017800014D8002900F0F18101992520D047019952
:101790003078D04709F10209E0E7002800F0E58140
:1017A0000199D04709F101090394D7E7A1F120027B
:1017B000192AE9D801A757F822F000BF2518000020
:1017C00089170000891700002518000089170000FC
:1017D000A51800008917000089170000891700006C
:1017E00089170000F1180000251800008917000073
:1017F00005190000B118000089170000BF1800008B
:10180000DF180000DF180000DF180000DF180000FC
:10181000DF180000DF180000DF180000DF180000EC
:10182000DF18000008460136A5E7582900F0EE80D1
:10183000A1F16302D7B2172FA6D8172AA4D801A7FF
:1018400057F822F0B31A00002B1900008917000086
:1018500089170000891700000B1900002B190000E0
:1018600089170000891700000B1900008917000074
:101870008917000089170000E71900008917000088
:1018800089170000871A0000891700002B19000033
:101890008917000089170000E71900008917000068
:1018A0000B19000025200199D04709F1010955E7DE
:1018B000029A4FF0000802F0FE020292B3E7002CF9
:1018C0000DDAB8F1000F0DDA029A002A00F0458116
:1018D0000A2224EAE47402FB0414303CA3E7B8F1C2
:1018E000000FF5DB0A2202FB0812A2F130089AE78A
:1018F000B8F1000F55F8042B80F23181002A80F2F4
:1019000030815442022202928DE7682903D1682B6C
:1019100006D1482387E76C2902D16C2B00F0238184
:10192000002B7FF431AF0B467DE77A2B06D175296A
:1019300055F8046B14D14FF0000B0CE06C2BF6D073
:101940004C2BF4D1073525F00703752903F1080561
:10195000D3E9006B06D120283ED1864F013C09E037
:101960004FEAE67BBBF1000FF5DA7642824F6BEB74
:101970004B0B013C0DF12D030593002304933046DE
:1019800059460A220023FEF7E5FB049B303203F19F
:10199000FF3CCDF810C0DDF814C00CF8012DCDF8D7
:1019A00014C0B4465A46BCF10A0F72F10002064652
:1019B0008B46E4D2C3F1010B30330DEB0306B8F1D3
:1019C000000FA6F104066DDA029BD9077CD4A8EBC0
:1019D0000B03A4EB0B0413E02B280ABF674F684FDF
:1019E00004F1FF34C6E770290FD155F8042B00230A
:1019F000FAB96FF004034FF0050B624E053C604FDF
:101A0000029A92076FD4A04665E078216C2B03D12F
:101A1000002355F8042B08E04C2BF9D1073525F0AD
:101A200007031D465B6855F8082B232825D1880637
:101A300021D5554F023C002601F06001A1F1390B80
:101A40000DF12D0E02F00F01092988BF59443031E4
:101A50000EF8011D102A4FEA121141EA03714FEAF4
:101A6000131073F1000306F1FF3C08D2C6F1010B1D
:101A700006F13003A1E7454FDCE7414FDBE766465F
:101A80000A460346DEE755F8046B304604F036FD9F
:101A9000B8F1000F834602DB4045A8BFC3464FF0B4
:101AA0000008374FA8EB0B03002B92DDA4EB0804D2
:101AB000A6E755F8043B4FF0010B8DF81830013CB8
:101AC0004FF0FF3306AE9AE7A046EBE702932020E3
:101AD0000199D047029BB8F10108F7D524EAE472D6
:101AE000013C9144A41AB84606E00493029201997D
:101AF000D047029A049B9046424612F8010B0028F8
:101B0000F3D11A46013A15D5002BACBFC7EB03073A
:101B10007F425B46013B15D5BBF1000FA8BF5F4478
:101B200026464F44013E14D5002CA8BF3F1907EBB1
:101B3000080913E60493029230200199D047049BD0
:101B4000029ADFE70293019916F8010BD047029B36
:101B5000E0E701992020D047E4E70122D3E6904650
:101B600061E614465FE64C235DE648460DB0BDE8ED
:101B7000F08F00BFC0970000BA930000BC93000034
:101B80002B9E0000C4930000BE930000C193000090
:101B900008B54FF02002EFF3118382F31288BFF3F0
:101BA0006F8F00F047FC034804F028FB00F012F9A7
:101BB000FCE700BFCA930000054B03EB8000D0F8A0
:101BC000003223F0E04343F04053C0F80032704746
:101BD0000025845038B54FF02003EFF3118583F3CF
:101BE0001288BFF36F8F01211A4B1B4AC3F80015EF
:101BF00002230020C2F8D036FFF7DEFF0846FFF7C9
:101C0000DBFF7E237F20C2F80C37C2F83C39134B30
:101C1000134CC3F818010020C4F8040EC4F8080ED1
:101C200004F54824C4F81001C3F82401C3F82C01BA
:101C300003F5FF1303F58053C3F8A002C2F804179D
:101C4000C2F80419C2F8001B85F31188BFF36F8F27
:101C500038BD00BF00100050004000500020005070
:101C600000900350F8B50523194D1A4F2C781A4EE1
:101C70000134B4FBF3F303EB8303E41A04F089FEAD
:101C8000164A137873B157F82430C01A072809D8B8
:101C900033782BB95721124804F097FB0123337096
:101CA0000020F8BD00214FF050233170D3F814010B
:101CB00038B1C3F81411D3F814312C700CB90123C6
:101CC00013702C7804F065FE47F824000120E8E743
:101CD000AE480020482E0020AC480020AD4800202F
:101CE000F393000048B1054B054A1B68B3FBF2F3C0
:101CF0005843044B43F00103184770473C20002031
:101D000040420F00F089000002F016BD70B5114B83
:101D10000D461C68DCB1104B196800238B4202DBB6
:101D20006FF0010070BD224612F8106B864202D09F
:101D300014460133F2E7E06810B96FF01200F1E7E2
:101D400006F058FC0028F8D000202C60EAE76FF07D
:101D50000C00E7E70C200020088A000070B588B06E
:101D600005460C46C0B269461646FFF7CFFF00286D
:101D70001BDB0098C8B14368226802938368019511
:101D8000CDE903360023CDE906230593C56804F0A9
:101D900029FB6DB12846084901AA04F056FD0798B1
:101DA00008B9059B236008B070BD6FF01500FAE715
:101DB0006FF01200F7E700BF7F640000014803F0F6
:101DC00099BE00BF8C8A0000014910220A6070474A
:101DD00010ED00E072B6404080F31188BFF36F8FC2
:101DE00001B5FFF73FFF002802D0BFF34F8F30BF90
:101DF000BDE8014062B6BFF36F8F704772B64940CD
:101E000081F3118801B5FFF72DFF002802D0BFF341
:101E10004F8F20BFBDE8014080F3118862B6704744
:101E200037B505460C46C9B18B6810480093D1E917
:101E30000023452104F0C9FA636945210093D4E9E0
:101E400003230B4804F0C1FA4521E269094804F074
:101E5000BCFA4521A269084804F0B7FA2146284691
:101E600003B0BDE8304003F073BC00BF2594000010
:101E7000599400008D940000A194000040B2002805
:101E800007DB01234109034A00F01F00834042F8A9
:101E90002130704700E100E040B200280CDB012255
:101EA0000649430900F01F008240203341F82320F7
:101EB000BFF34F8FBFF36F8F704700BF00E100E0AB
:101EC000054B420953F82220012300F01F0003FABA
:101ED00000F01040704700BF00E100E040B2002871
:101EE00001F10101ACBF00F16040064B4FEA411126
:101EF000C9B2ABBF00F5614000F00F0080F80013DD
:101F00001954704714ED00E030BFFFF7FDBF00BF6C
:101F10000B4A08B50B4B22F07F029A60BFF34F8F3C
:101F2000BFF36F8FD3F8882022F47002C3F88820A3
:101F300003F086FC03F0CCFC00F040FA03F08CFCCC
:101F40000000000000ED00E01EF0040F0CBFEFF3F6
:101F50000880EFF30980816911F8021C0229FFD083
:101F600001B504F0B3FA01BD0446084611461A460D
:101F7000002383F30B880A4B2025A3F5205686F314
:101F80000B8883F3098863B64FF0000383F311884D
:101F9000BFF36F8FA04785F31188BFF36F8FFEE704
:101FA000B878002001B5EFF30580A0F110004FEAEA
:101FB000C0000449014409C99847BDE801400249ED
:101FC0000847000020870000CD1F0000704700BFB9
:101FD00038B5214C4521214804F0F7F9A36A9D0149
:101FE00003D545211E4804F0F0F9A36ADC0103D5AE
:101FF00045211C4804F0E9F9174DAC6A14F480142B
:1020000004D04521184804F0E0F90224AB6A180313
:1020100003D54521154804F0D8F90F4DAB6A590393
:1020200003D54521124804F0D0F9AB6A9A0303D5D1
:102030004521104804F0C9F9074DAB6ADB0303D50D
:1020400045210D4804F0C1F9AB6A20466FEA03430D
:102050006FEA1343AB6238BD00ED00E0D49400009A
:10206000F1940000099500002895000057950000A4
:102070007A950000A4950000C395000070B5234C2C
:1020800006460D462248452104F09FF9A36AD9046B
:1020900003D545211F4804F098F9A36A1A0503D512
:1020A00045211D4804F091F9184CA36A9B0510D5F1
:1020B0001A48452104F089F9A26BA36A180408D5CF
:1020C0004521174804F081F91EB1A36A23F40043A7
:1020D000A3620E4CA36A590503D54521114804F0AB
:1020E00074F9A36ADA050BD545210F4804F06DF9A0
:1020F0000020064A936A43F47F439362287070BDC0
:10210000A36A9B04F4D545210848EFE700ED00E001
:10211000F39500000E960000249600003C96000007
:102120005A9600007496000094960000B196000044
:1021300070B5264C06460D462548452104F045F964
:10214000A36AD80603D54521224804F03EF9A36AC4
:10215000190703D54521204804F037F91B4CA36A21
:102160009A0710D545211D4804F02FF9626BA36A28
:102170001B0608D545211A4804F027F91EB1A36AA9
:1021800023F08003A362114CA36ADE0703D5452127
:10219000144804F01AF9A36A980603D54521124899
:1021A00004F013F90020094B9A6AD10658BF9A6AC5
:1021B0009A6A920642BF5A6A22F400525A629A6A96
:1021C00042F0FF029A62287070BD00BF00ED00E08F
:1021D000E596000000970000249600003897000064
:1021E0005597000070970000B19600002DE9F0416E
:1021F0005C4B05465F6800268AB0C7F3080486F387
:102200001188BFF36F8F02F07F43B3F17F4F07D187
:1022100002F00C03082B14D14521534804F0D5F8E3
:10222000002635464FF00008E31E8DF80780092B85
:1022300000F28680DFE803F00A797D758484848467
:10224000848110074CBF0D460126EBE74521474826
:10225000444C04F0BAF88DF80780E36A9A0705D574
:102260004521434804F0B1F8002432E0E36A002B32
:1022700002DA45213F48F5E7E36A5B00F4D54521E2
:102280003D4804F0A2F86369AA6943F4807363616E
:10229000BFF34F8FBFF36F8F636932F8022C23F4C3
:1022A00080736361BFF34F8FBFF36F8F4DF602737F
:1022B0009A4208D0A36ADBB22BB301200DF10701CB
:1022C000FFF736FF2FE045212A682C4804F07DF8FF
:1022D0002C689DF807309BB92022294602A804F0FB
:1022E0003BF9099B002E38D0C3F3080222B96FEAEC
:1022F00053236FEA43230993204602A9FFF790FD79
:102300000AB0BDE8F081A36A13F47F4F05D0012025
:102310000DF10701FFF7B2FE05E0A36AB3F5803FB8
:10232000A2D3FFF755FE0446D3E700200DF10701C5
:10233000C6E700200DF10701ECE74521104891E7C1
:10234000104917F4F87F104A104808BF0A46A4F154
:102350001003452104F039F886E723F4FF7323F0D6
:102360000103C8E700ED00E0C2970000F29700000B
:102370000E98000034980000479800006B98000009
:102380008C98000094970000A9970000B598000071
:10239000044B5A6942F010025A615A6942F4806251
:1023A0005A61704700ED00E0EFF30880EFF3098118
:1023B00001B57246FFF71AFF01BD00BF00232021BF
:1023C0000348C2180133452B82F80013F9D1704736
:1023D00000E100E0002080F31488BFF36F8F00203D
:1023E00080F30A8880F30B88FFF78EFC00200E49EB
:1023F0000860BFF34F8F0D4880F3088800F03EF867
:10240000202080F311880A484FF40061401880F3BF
:102410000988EFF314800221084380F31488BFF386
:102420006F8FFFF775FD000094ED00E0B878002095
:10243000B8480020BFF34F8F0549064BCA6802F425
:10244000E0621343CB60BFF34F8F00BFFDE700BFD7
:1024500000ED00E00400FA05002318460649D1F813
:102460009020C2F30722934200DB7047C1F89830F6
:10247000C1F8A0000133F6E700ED00E010B572B638
:10248000002484F31388FFF7E7FF23464FF0FF3063
:102490000C4A03F120010133102B42F82100F8D13E
:1024A00000234FF0FF30074A03F160010133102B86
:1024B00042F82100F8D162B6BFF34F8FBFF36F8FA0
:1024C00010BD00BF00E100E00121024B024A0348B9
:1024D00000F016B90000072000200020948A0000B8
:1024E00010B50C7A0B6804F01F0223F01F031A4387
:1024F000CB68640923F01F03054943EA440343F012
:102500000103C1F89800C1F89C20C1F8A03010BDAB
:1025100000ED00E030B50C684B6885B00A894D8944
:102520000094013B24F01F04234402F01F0242EAFE
:10253000451223F01F03072804468DF80820039353
:1025400009D902464521064803F03FFF6FF0150404
:10255000204605B030BD6946FFF7C2FFF8E700BF6F
:10256000D19800002DE9F04F8946144606464FF0F9
:102570000008544D85B0C84527DAD6F804A0BAF152
:10258000000F44D0BAF11F0F18D91AF01F0F15D140
:10259000D6F800B01BF01F0F10D1584603F0A5FF6E
:1025A00007460AEB0B00013803F09FFF874210D06B
:1025B0006FF015073A464521434802E0424645215F
:1025C000424803F002FF6FF01504204605B0BDE855
:1025D000F08F17F1160FEDD0BC42EBDDC5F8987007
:1025E000D5F89C10C5F89870D5F8A03021F01F01DF
:1025F00043F01F0BD6E900321A44994202F1FF3A28
:102600001DD1D34507D13146F8B2FFF783FF08F15A
:1026100001080C36AFE73146C5F89870D5F89C3004
:1026200022F01F0203F01F031343C5F89C30E0B2F1
:10263000FFF770FF10F1160FC5D0441CE7E7C5F88F
:102640009870D5F8A020013B23F01F0302F01F0271
:102650001343D3453146E0B2C5F8A030E8D0FFF7C8
:1026600059FF10F1160FAED0C5F89870D5F89C2020
:102670009DF808300BF1FF3B62F304038DF808303E
:10268000D5F8A0309DF808205B0863F34712D6E91F
:1026900000310B44009323F01F0301305B44A3EB94
:1026A0000A03C0B223F01F0307288DF80820039304
:1026B00003D902464521064883E76946FFF710FF24
:1026C000BBE700BF00ED00E024990000FC9800008B
:1026D000D19800000522044BC3F89420BFF34F8F1C
:1026E000BFF36F8F704700BF00ED00E0BFF35F8F57
:1026F0000022024BC3F89420704700BF00ED00E0B9
:1027000010B5034C2278FFF72DFF207010BD00BFDD
:10271000AF48002038B50E4D2C68082C15D8002085
:10272000FFF7E4FF0B4B0C4AC3F8C020844205D1ED
:102730000A4B00201C70FFF7CDFF38BD696801EB24
:102740000011FFF7CDFE0130F0E74FF0FF30F4E766
:10275000A08A000000ED00E0AAFF4400AF4800207E
:10276000014B1860704700BF10200020084B70B567
:10277000C31A0D4607499B10044659434022064898
:1027800003F01DFF2B4601462046BDE87040184768
:10279000702E0020B76DDBB690860000402373B525
:1027A0000B4C0093041B0B460D460A49A4106143D1
:1027B0000646094A094803F02EFF011E05DA304695
:1027C0002B4602B0BDE87040184702B070BD00BF94
:1027D000702E0020B76DDBB6876600009086000083
:1027E00010B54FF02003EFF3118483F31288BFF389
:1027F0006F8F074A136823F00201DB07116002D4D0
:10280000012005F086FE84F31188BFF36F8F10BDA1
:10281000102F00202DE9F843002201210646052053
:10282000FFF75CFB114802F073F8114B984219D185
:1028300005F0FEFD00244FF01C090C27DFF8348062
:102840003569414609FB045003F035FD002807DBDC
:10285000012307FB04551C44042CAB67F0D1002076
:10286000BDE8F8836FF00400FAE700BFAD28000070
:102870000000AD0BC88A000001460C23002270B591
:102880004B430848C4187833D4E91C5618442267CF
:1028900003F082FE2DB132462B46BDE8704002485F
:1028A000184770BD702E002090860000052811D8B2
:1028B000DFE800F0030E10100C0A074B986F10F0C1
:1028C000070007D1FFF7D8BF0220FBE70320F9E795
:1028D0000120F7E7704700BF702E002008B54FF0C9
:1028E0002003EFF3118183F31288BFF36F8F124A35
:1028F000136843F002001060DA0708D481F31188EE
:10290000BFF36F8FBDE80840012005F0A3BD4FF075
:102910005023D3F80C24D3F80C34D307EED5074852
:1029200003F03AFE81F31188BFF36F8FBDE80840D2
:102930000020FFF7A1BF00BF102F0020E82E0020CD
:102940002DE9F843012207463449D1E8EF3FC1E8B9
:10295000E02F0028F9D133B9314932484B60CB60C0
:102960008A6003F0BBFC7B1E012B2DD8012F07D101
:102970004FF05023D3F81C3403F00303022B23D071
:1029800005F047FE054608BB274B1B78F3B14FF017
:10299000502302220646C3F808234FF050244FF07C
:1029A0000008DFF88890D4F81834D4F81824D2033B
:1029B00016D503F00303022B01D0012F10D13DB334
:1029C00086F31188BFF36F8FBDE8F8834FF02003C3
:1029D000EFF3118683F31288BFF36F8F0125DCE7D5
:1029E0003046FFF70BFAD4F81835DBB2012BDAD1F9
:1029F000D4F80421002AD6D0C4F80481D4F80421E4
:102A00000222C4F818252022C9F88021A360CAE751
:102A10004FF050230222C3F80423D5E76C2E002088
:102A20005C2E00208C2E0020B548002000E100E044
:102A300008B5074805F0DEFD38B10648FFF790FEFF
:102A40000448FEF75FFD002008BD6FF01200FBE7B1
:102A5000D8860000592A00000A2838B50446074DD8
:102A600004D1AB680D2128465B689847AB680348E2
:102A70005B68E1B29847204638BD00BFD8860000A9
:102A800030B5406801F01F04057BB2F5001F85B02A
:102A900044EA451405D1204602F0EAF9002005B0C9
:102AA00030BD0025B2F5800FCDE9025514D1B3F148
:102AB000007F0CBF042305238DF808300023204637
:102AC000194602AA02F012F81F4B984238D1012190
:102AD000204602F087F9E1E7B3F1C06F25D0B3F1EA
:102AE000007F14BF012302238DF808308368CB4098
:102AF000D907E3D4B2F1A07FE0D1144A14486109A8
:102B0000012908BF024604F01F03803352F8233026
:102B1000DB07D3D40DF107052946204602F00EF954
:102B20000C4B984203D00395C8E70323DCE7284603
:102B300002F052F9044B9842F5D06FF00B00AEE76B
:102B40006FF01500ABE700BF0000AD0B002584500F
:102B5000002884500400AD0B10B502F02DF9044696
:102B600068B902F001F9084B98420AD1214607489A
:102B700002F0DEF8224605210D20FFF7AFF9002014
:102B800010BD6FF00400FBE70000AD0B912B0000BF
:102B90004209034670B502D0012A17D070BD0D4E10
:102BA000326951680029F9D0012503F01F030C6830
:102BB0009D400029F2D08A682A4002D030464B68F6
:102BC00098472CB1236821461C46F2E7024EE7E7FE
:102BD0002346F8E7C0860000A88600002DE9FF41E3
:102BE000476801F01F053B7B144645EA43150E4636
:102BF00028460DF1030102F0A1F814F4403F80468D
:102C00000BD1284602F05CF93C4B984503D19DF866
:102C1000030002F0DBF800200CE0002328461946F0
:102C200002AACDE9023301F061FF344B984204D08F
:102C30006FF0150004B0BDE8F081804503D19DF828
:102C4000030002F0C3F8A30349D540F20633234042
:102C5000B3F5837F19D00CD8062B17D004D8ABB1AD
:102C6000022BE5D1042311E0B3F5807FE0D10123ED
:102C70000CE040F20222934226D0B3F5407F25D0EB
:102C8000B3F5007FD4D1022300E007238DF8043090
:102C900084F48033C3F30043E0068DF805304CBF65
:102CA0000323C4F3401321038DF8063010D501230C
:102CB0007A68B34093600022284601A901F0C4FF5E
:102CC0000E4B9842A7D0B3E70523DFE70323DDE7E8
:102CD000620341BF01237A68B340D360EBE7E306A8
:102CE0004FF000034CBF0324C4F340141A46284697
:102CF00001A98DF8044001F0F9FEE1E70000AD0BF9
:102D000000F1744000F5A6000A289ABF024B33F97F
:102D100010006FF00F007047F48D0000024B0B6045
:102D200001231360704700BFD08B0000004870473C
:102D3000648B000010B5084C23785BB90269074921
:102D4000406802F015FBFFF7DBFFB0FA80F35B0988
:102D5000237010BD0020FCE7B24800205767000038
:102D600037B50D464168B1B1D1E900138468A4B10B
:102D7000D4E9002494B18BB19C4208D10133092BD2
:102D800000780ED902465721104803F01EFB6FF061
:102D9000150003B030BD0B46E8E72246013323445B
:102DA000EDE78DF8013040F20113ADF80230002359
:102DB0008DF8000068468DF804308DF8055002F05B
:102DC000B1FB03B0BDE83040FFF79ABFAD990000FA
:102DD00010B5084C02F0E6FBA04205D102F004FC5D
:102DE0000022054B1A7010BD4CF2503005F017FC54
:102DF000F0E700BF0000AD0BB24800200C4B10B54F
:102E0000994204460FD14FF02003EFF3118083F372
:102E10001288BFF36F8F237833B10023237080F3C0
:102E20001188BFF36F8F10BDFEF7E8FFEBE700BF1F
:102E30000000AD0B2DE9F04F81460E461C46904632
:102E400085B07AB1002B00F092800029426803DB44
:102E50009269CB1893420BD9234632464521454807
:102E600003F0B3FA6FF01505284605B0BDE8F08F02
:102E7000FFF760FF0546002876D1754205F003058F
:102E8000A54228BF2546D8F1000303F0030308F04C
:102E9000030758BF5F427F4207F00307A74228BFDE
:102EA0002746631BE41B24F0030423F0030AA24516
:102EB000C8BFA24603F0030BC8BFA3EB040BBAF1D3
:102EC000000F19D008EB07037219514618460193F9
:102ED00005F088FB04460146D9F81000FFF78EFF85
:102EE000254A94423CD1BD4206D0019B5246194628
:102EF00008EB050003F019FBBDB1C5F1040704217F
:102F0000F21B02A805F06EFB04460146D9F810003A
:102F1000FFF774FF184B9C4222D107F108032A46A1
:102F200040460DEB030103F017FBBBF1000F16D079
:102F30000821721952440DEB010005F053FB0446C1
:102F40000146D9F81000FFF759FF0B4B9C4207D1FF
:102F50000AEB05005A4602A9404403F0FDFA064C6C
:102F60002046FFF7CDFE0546FFF732FF7CE71D4602
:102F70007AE700BFD59900000000AD0B2DE9F347BB
:102F800006460F461D4690469AB193B1042B01D9CF
:102F90009A070ED1BB070CD1002F726803DB926930
:102FA0007B1993420BD92B463A464521354803F00D
:102FB0000CFA6FF01504204602B0BDE8F0873046E9
:102FC000FFF7B8FE044650B903F0E4FB044648B1ED
:102FD000012003F0DFFB2046FFF792FE0446FFF7D7
:102FE000F7FEE8E7032D1ED804213A460DEB010059
:102FF00005F0F8FA044601463069FFF7FFFE224B60
:103000009C4233D12A46414601A803F0A5FA042187
:103010003A460DEB010005F0E2FA0446014630693C
:10302000FFF7ECFE22E008F06043B3F1005F24D02C
:10303000DFF854A0042DA94628BF4FF004094146EB
:103040004A4601A803F088FA04213A460DEB010034
:1030500005F0C5FA044601463069FFF7CFFE544536
:1030600004D1B5EB0905C8444F44E3D1012003F076
:1030700091FB002C08BF0446ADE73A46294640467E
:10308000C9E700BF239A00000000AD0B2DE9F84FFF
:1030900015460A1E8046D0F8049005DBD9F8183092
:1030A00051199942174609D92B464521334803F057
:1030B0008CF96FF015042046BDE8F88FC2F30B02BF
:1030C000002DF6D0C5F30B031343F2D1FFF732FE08
:1030D0000446F0B903F05EFB0446D0B9DFF8A0A0C7
:1030E000D9F81830AB4217D105F07FFAAB46064647
:1030F0003146D8F81000FFF781FE564532D1B5EBC6
:103100000B055F44ECD1012003F044FB002C08BF09
:103110000446FFF75DFECEE7B5F5803F09D3BBB2AD
:1031200053B93946012002F0ADFA4FF4803B064610
:10313000DEE7B5F5805F09D3C7F30B0030B9394638
:1031400002F0A0FA4FF4805B0646D1E72B463A46E0
:1031500045210C4803F039F90B49D8F81000FFF766
:103160004DFE094E2B4609483A46452103F02DF9FC
:103170003046FFF7C5FD0446C5E700BF729A000060
:103180000000AD0BC19A00000400AD0BE49A0000F2
:103190004FF0502302222DE9F041C3F8B8254368CF
:1031A0008AB01E6A05460021304607AA03F0F5FBE7
:1031B000041E2EDB079B32681979186800F0DCFCCE
:1031C000041E26DB002201212B20FEF787FE6E68FD
:1031D0002A693046474902F0CBF8FFF791FD041EFB
:1031E00017DBF37A023B012B17D996F80A80A8F176
:1031F0000308B8F1010F8CBF4FF000084FF0010831
:1032000003F0ADFA041E0BDA224645213A4803F0DA
:10321000DCF820460AB0BDE8F0814FF00108EFE786
:10322000E2B2C4F38014A04504AE05AF26D000235B
:10323000012182F0400207A8CDE90613ADF8103055
:1032400005968DF8102009938DF81C100897FFF74C
:1032500087FD041E0CD0DCDA2849294A2346B8F140
:10326000000F08BF0A462748452103F0AEF8D0E713
:1032700003F075FA041EEFDBE307F9D4FFF7A8FDAE
:103280004FF003080023CDE9068308939F232846C7
:1032900005968DF81C300997FFF74CFD014620B1CB
:1032A000FFF796FD6FF01204B3E707A8FFF758FD8C
:1032B0000446FFF78DFD002CF4D16D68424631467F
:1032C00005F11C0003F021F904460028A1D0AB7FD2
:1032D000452103936B7F9DF8102002932B7F0A48B2
:1032E00001939DF8123000939DF8113003F06DF8B2
:1032F000D8E700BF576700000D9B0000079B000048
:1033000079910000229B0000389B0000024B0B606B
:1033100001231360704700BF2C2F00200048704726
:10332000EC8B000010B505F054F9034C206005F05B
:103330004DF96060002010BD2C2F0020F8B50E461E
:10334000144605F043F921460546304603F037FAA6
:10335000374600B3B6FBF5F305FB136323B9B4FBA3
:10336000F5F305FB134343B12346324645210C4890
:1033700003F02BF86FF0150002E0A54201D9002000
:10338000F8BD05F023F90546384601F0AFFE641B91
:103390002F44F9D1F3E72346324645210148E7E7B8
:1033A000859B0000A99B0000F8B50E4619463046E3
:1033B00017461D4603F003FA40B92B463246452115
:1033C000114803F002F86FF01500F8BD46EA050455
:1033D00014F0030404D02B46324645210B48F0E795
:1033E0004DB12B19032BA6EB040006D8084AD2F8DE
:1033F0000034DB07FBD50020E7E73B1B196801F031
:1034000093FE043CEDE700BFA99B0000CB9B0000AE
:103410000090035070B50D461946284616461C46C6
:1034200003F0CDF940B9084823462A46452102F069
:10343000CCFF6FF0150070BD24B1224629463046FE
:1034400003F08AF80020F6E7A99B0000F8B50446CF
:103450000D46076905F0DDF890B92C4B1B787BB160
:103460006426606803F040FAE0B9012004F01BFF15
:10347000013EF6D1F4E786F31188BFF36F8FEFE7D3
:103480004FF02003EFF3118683F31288BFF36F8FA1
:103490006068314603F028FA90B986F31188BFF3CB
:1034A0006F8FEDE74FF02003EFF3118683F312885F
:1034B000BFF36F8F6068314603F016FA0028DAD048
:1034C0003B691D70626838691368C3F844050120C0
:1034D000C3F848050020C3F82001D3F82051C3F8F1
:1034E00058015268D3F85801D20608D508206268FE
:1034F0001268C2F800054FF48002C3F804230122C9
:103500009A6081F31188BFF36F8FF8BDB548002032
:10351000F0B54B79012B29D0032B24D110278B79BF
:10352000032B20D1CE790EB1012E1CD10A79012AAC
:103530001ED0022A20D0B2B914460B684568B3F5F4
:10354000164FD5F800C06ED033D8B3F5165F6DD0E6
:103550001CD8B3F5966F6BD010D8B3F5967F6AD0B0
:10356000B3F5167F6AD06FF085005BE00027D6E7E1
:103570004FF480740E22E0E70024FBE7B3F5166FEA
:103580005FD0B3F5965FEED1384B3CE0B3F5E14F39
:103590005AD007D8B3F5615F58D0B3F5964FE2D152
:1035A000334B30E047F61225AB42DCD14FF4000339
:1035B00029E0B3F5613F4BD013D8B3F5963F4AD01D
:1035C00009D84DF6C025AB4247D0B3F5614FCAD1FB
:1035D0004FF46B0317E0B3F5E13FC4D14FF0EB7349
:1035E00011E0B3F5612F3BD008D8224DAB423AD061
:1035F000B3F5E12FB7D14FF0E86304E01E4DAB42C5
:10360000B1D14FF080530569CCF8243543683A4373
:103610001B6834432243C3F86C252B1D03C983E880
:1036200003000020F0BD4FF41D03ECE7134BEAE765
:103630004FF49E23E7E74FF4A033E4E74FF41C3345
:10364000E1E74FF41D23DEE70D4BDCE70D4BDAE736
:103650004FF06C73D7E70C4BD5E74FF46503D2E717
:103660004FF07063CFE74FF08063CCE700B01300FA
:1036700000A04E0090D0030040420F0000502700F1
:1036800000C0750000F03A0000903A012DE9F743C0
:103690008046002201210820FEF720FC0820FEF7CA
:1036A000EDFB0021D8F80470D8F810603C6801AA3E
:1036B000C4F80015C6F80080D7F80C90484603F00F
:1036C0006CF9051E1EDB019BD9F8002019791868DA
:1036D00000F052FA051E15DB4046311DFFF718FFBA
:1036E000054678B97B6899071DD506F1180001F0E9
:1036F00077F9214B984209D04521204802F065FE18
:103700006FF00405284603B0BDE8F083337E43F034
:103710000043C4F8A031C4F88C300123327E9340BA
:10372000174AC2F804350823C4F800353B7A53B968
:10373000C4F81031D4F810317369C4F8343501235A
:10374000C4F8383523607B689A075CBF4FF48073F8
:10375000C4F804337B68DB0644BF4FF48003C4F82D
:1037600004333369C4F844350023C4F848350123D1
:10377000A360E360C6E700BF0000AD0B0F9C000034
:10378000007001500123834070B5DC430B4AD2E83E
:10379000EF1F01EA0405C2E8E65F002EF7D14FF4FF
:1037A000803282400648C0F80823BFF35F8FBFF322
:1037B0006F8F0B4214BF0120002070BD382F0020F6
:1037C0000050015070B40E4922F07F46D1E9003418
:1037D000D01AC31844F10004C1E90034A6F500135F
:1037E000B3F5400F09D2074B1B681A0A1B069C1938
:1037F000054B42F10005C3E9004570BC02F0C8B8B2
:10380000482100203C2F002050210020D9B1012365
:103810000D4A8340D2E8EFCF4CEA030CC2E8E1CF77
:103820000029F7D14FF48033084A8340C2F80433AB
:10383000074BD3E8AF3FC340DB0742BF4FF4001252
:10384000044BC3F800217047382F0020005001506E
:10385000342F002000E100E00D4B1868010A00063B
:10386000BFF35F8F0B4BD3F80435181841F10001FB
:10387000B3F5801F0AD2084BD3E90023904271EBC5
:10388000030303D210F1807041F10001704700BFC3
:103890003C2F002000500150502100202DE9F74F0F
:1038A00016461F460446FFF76DFF0090FFF7D4FF52
:1038B000B04271EB070350D2384B301A67EB01016D
:1038C000984271F1000165D2354B03EB0413D3E943
:1038D00002239F4208BF964249D04FF480393149B4
:1038E00009FA04F9204626F07F4BC1F8489303F00B
:1038F00044F84FF0030A584604F15005AD00ADB24C
:1039000005F1502504F5A873274A05F58035019384
:10391000DDF804C020F07F4341F82C30C1F8449317
:10392000D1F80485A0EB0800033820F07F409042D6
:103930001DD9286860B1D1F80485A8EB0B0020F0F0
:103940007F40B0F5000F12D9204603F016F8164A52
:103950000AEB08000AF1010ADAE70123134AA3403F
:10396000D2E8EF0F1843C2E8E10F0029F8D1002593
:103970000B490C98230101EB0412C850C2E90267FD
:103980000D9B536020460099FFF740FF284603B087
:10399000BDE8F08F6FF01505F4E700BF010080006F
:1039A0003821002000500150FDFF7F00342F0020FF
:1039B00073B500244FF0FF304FF0FF31164D174B19
:1039C000C5F80845C3E902014FF4803302264FF4DD
:1039D0000012C5F80433124B0121C5F80463152009
:1039E000C3F880212246FEF779FA1520FEF746FA41
:1039F00001230C4AAB602B6013600B4B0B4A009306
:103A0000204600230194FFF749FF3046FEF798FF58
:103A1000204602B070BD00BF005001503821002088
:103A200000E100E0382F0020C5370000FFFF7F00D5
:103A30002DE9F7432E4BD3F8042390070BD5D3F889
:103A4000042142B10022C3F804212A4AD3F80431E8
:103A5000136801331360264AD2F80433D90327D5FB
:103A6000254BD3E8EF1F21F00100C3E8E40F002C41
:103A7000F7D1CB0702D4D2F84031CBB100251C4C92
:103A8000C4F84051D4F84031FFF7E6FE4FF0200370
:103A9000EFF3118283F31288BFF36F8F174BD3E9D3
:103AA0000267B042B94106D282F31188BFF36F8F2B
:103AB00003B0BDE8F0834FF0FF38D3E900104FF0BA
:103AC000FF391D60C3E902894FF48033C4F84833DD
:103AD000C4F84051D4F8403182F31188BFF36F8F9E
:103AE0000029E5D0009032463B4628468847DFE76C
:103AF000005001503C2F0020342F0020382100209E
:103B0000431C13B521D0012821DD124A124B9042EB
:103B1000D4BF04461C46FFF79FFE104B0E49D3E965
:103B20000023801AB0F5000F28BF002404448C4203
:103B300028BF0C4600200A49A2180190009143F1C9
:103B40000003FFF7ABFE02B010BD034CE3E7012416
:103B5000E1E700BFFEFF7F00FFFF7F00482100205C
:103B6000C537000008B5FFF777FE024B1B68C01A87
:103B700008BD00BF482100204FF0010C2DE9F0479F
:103B80005B4E5C4F00EB8101814202D10020BDE819
:103B9000F087046804F07F03C4F343257F2B4FEACA
:103BA000144408BF4FF0FF33222C00F29D80DFE861
:103BB00004F0122328422B3E429B9B9B9B45729B09
:103BC0009B9B9B9B9B9B9B9B757D80839B9B9B86D1
:103BD0008C8F92959800C2F80C354FEA5318B8F1C3
:103BE000010F14BFB646BE4603F01F040CFA04F4DE
:103BF000CEF80840012402E0C2F814350024A6469D
:103C000023E0C2F80835E8E70024C2F808354FEA97
:103C10005319B9F1010F14BFB046B84603F01F0E97
:103C20000CFA0EFEC8F80CE04FF0010E0DE0C2F8E1
:103C30000C350124EBE7C2F81035DFE7C2F8083590
:103C4000002DDBD100240625A64650F804AB03F076
:103C50001F090AF40058B8F1000F4FEA53131CBFB4
:103C600001244FF0000E012B0CBFB846B04608EB04
:103C70008908D8F80032CAF3C11A03F0E0492B02D0
:103C800043EA8A0343EA0E0343EA440343EA09038F
:103C9000C8F8003278E7C2F80C35D1E7C2F86035D1
:103CA0000468C4F38034002CC3D096E7C2F86435AE
:103CB000F6E7C2F86835F3E7C2F86C35F0E7C2F80A
:103CC000243501244FF0000EBFE7C2F8283584E701
:103CD000C2F83035F5E7C2F83435F2E7C2F83835C6
:103CE000EFE7C2F83C35ECE76FF085004FE700BF27
:103CF000002584500028845040EA0103C3F30D03DB
:103D000030B58BB940F21515094C890BC0F38730DB
:103D1000994201D1002030BDC218D2B202F5C07262
:103D200044F822500133F3E76FF01500F3E700BFCA
:103D3000003000500348452108B502F046FB002042
:103D4000FEF778FB4D9C00004FF000531868054BC0
:103D5000984205D0044B98420CBF012002207047C6
:103D600000207047B6B3B4B55DCE03F138B5144644
:103D700001234FF05022C2F8143608B301B34FF0BC
:103D8000005399604FF408411A4DD960C3E90050BF
:103D9000002349211848C2F8143602F016FB34B348
:103DA000164D284604F03BFCFFF7CEFF04460028E2
:103DB000F7D002280ED14521114802F006FB07E09A
:103DC0006FF0150249210F4802F0FFFA6FF0150459
:103DD000204638BD4FF0502301224921C3F8142654
:103DE000094802F0F2FA0022084BC3F840240024EC
:103DF000EEE700BFB6B3B4B56F9C000040420F00C1
:103E0000B09C00008B9C0000D09C00000030005053
:103E10001022034BC3F840240122FFF7A7BF00BFC5
:103E2000003000504FF48272014BC3F800277047F6
:103E30000030005030B5816885B0103921F007049A
:103E4000054602F015FB10220146684602F08FFB82
:103E500010226846064902F07FFB10236A4621467D
:103E6000284602F0D5FA003818BF012005B030BD51
:103E70000A8E000030B50D46816887B0102302AA73
:103E80001039044602F0AFFA002802DA012007B028
:103E900030BD1022204602A902F0B1FD00283AD11F
:103EA00010221E4902A802F030FB00280CBF01239B
:103EB00002232B70204602F08EFD012301460DF1F6
:103EC0000702204602F08FFA0028DFDB9DF807305A
:103ED000204603F00F021B096A702B7101220DF1BD
:103EE000070102F08CFD10B96B78042B03D9012374
:103EF0006B7000232B71A2682046183A22F007024B
:103F0000083AA91C02F08EFD0028BFD12046E91C0A
:103F100002F0E1FDBBE70323CBE700BF0A8E000000
:103F20007FB505466946022002F0DBFD044610B16C
:103F3000FF2004B070BD052002A902F0D2FD0128C7
:103F400036D12A464921284802F03FFA274B8DF8FE
:103F50000C40029300229DF800509DF80860244C0C
:103F60002946207802F03DFD48B33146607802F0E2
:103F700038FD20B3A378042B03D09DF80310994299
:103F80001DD1E378042B03D09DF80B10994216D174
:103F90002379042B0FD16379022B1BD1154A1648C4
:103FA000492102F012FA6079831E022BC1D9BFE7C2
:103FB0000028CFD0BCE79DF802109942EBD0013227
:103FC000032A04F10604CBD10C48492102F0FDF983
:103FD0000120AEE7032B05D0094A0A49042B08BF8C
:103FE0000A46DCE7084ADAE7149D000003010303F0
:103FF000879D0000F69C00005F9D0000729D000000
:10400000FB9C00000D9D0000F19C000001680E4A21
:104010000346914215D1C169A2F11022A2F1EF121B
:1040200091420ED18268012A0BD8C26812B101698F
:104030008A4206D0586928B19B691B1A58425841D8
:1040400070470120704700BF55AA00FF70B50D4BA7
:104050009E68A6B13046FFF7D9FF044678B9F368E9
:104060006BB935690DB9204670BD2846FFF7CEFF04
:1040700028B9EB68B34202D12E462D69F2E701243C
:10408000F1E700BF402F00202DE9F8433F4F3C6887
:10409000D4B1BC68C4B100284AD0002948D001FB83
:1040A00000F5B5FBF0F0884242D1281D40D8A907A1
:1040B0000DD025F003060436FC6803E06368B342C4
:1040C00038D2A469002CF9D12046BDE8F8832E46E9
:1040D000F2E7FB6041E006F120016318203A5A60E4
:1040E0000022C3E902242A4822691A616050294942
:1040F000D96102B1D36062695A61A1699961AAB1BB
:1041000093619A6902B153614FF001092361002361
:10411000C4E90169C4E905333B69DB072ED5FFF724
:1041200095FF58B31C4B48461B6826E0FB60E8E748
:104130000024C9E7A3681BB1174B01201B689847EF
:10414000626804F12008921B232AC4D80123A360CB
:10415000D4E90523002ABCD09361A3690BB162693D
:104160005A610023C4E905333B69DA0706D5FFF736
:104170006DFF18B10120084B1B6898472A460021A3
:104180004046444602F0F3F99EE700BF402F00206E
:1041900055AA00FF669911EE3020002070B5054643
:1041A000002800F08880444E3368002B00F08380A4
:1041B000B268002A7FD0834203D8726813449842C1
:1041C00003D33E4B01201B689847A5F120042046ED
:1041D000FFF71CFF18B1394B01201B68984755F8B1
:1041E000183C012B03D0354B01201B689847002356
:1041F00045F8183C55F8143C3BB39A682ABB55F86F
:104200001C2C02F120015A680A445A6055E9053213
:104210001A6155F8145C2B6903B1DD60202200217E
:10422000204602F0A4F9286910B18368002B2ED033
:1042300033699B073FD5FFF709FF00283BD0BDE856
:1042400070401E4B01201B68184755F8100C0028C1
:104250002AD0836843BB4268636813442033636099
:1042600003692361D4E905239AB9CBB94369636132
:104270008269A261B3B19C61A36903B15C612369E6
:1042800003B1DC602022002102F071F9D0E72C4656
:10429000E1E79361A369002BE8D062695A61E5E721
:1042A000F360F7E7F460E7E7F36845F8083C03B12B
:1042B0005C61F460BCE770BD402F0020302000201E
:1042C00038B50C46142200210546134802F04FF978
:1042D0001249134800F034F8232C1CD915F00303BD
:1042E0001FBF043CE418C3F10403ED18224600216B
:1042F000284602F03CF9084B0A49C3E90054203C27
:104300009D606C609A6811609A68A1F11021A1F11A
:10431000EF11D161DA6038BD402F00209D410000CF
:104320008940000055AA00FF014B1B68184700BFD9
:1043300038200020014B1B68184700BF34200020A4
:10434000024B1860024B0020196070473820002093
:1043500034200020F8B500F10806476804463046CE
:104360000D4602F065FF87424BD16368B3F5807F4D
:1043700047D80021304603F0C6F8002841DD00216F
:10438000304602F027FFE0B345B9294604F1140096
:1043900003F0B9F8002834DD0020F8BD04F12C0545
:1043A0000021284603F0AFF800282ADD0021284626
:1043B00002F010FF28B304F138050021284603F06D
:1043C000A2F800281DDD0021284602F003FFC0B13D
:1043D000002104F1140003F096F8002811DD0021FB
:1043E00004F1440003F08FF800280ADD002104F1F5
:1043F000500003F088F8002803DD002104F15C0080
:10440000C6E70148C9E700BF80BFFFFF70B50021C4
:104410000446FFF79FFF054610B10E4D284670BDBC
:1044200004F10806304602F0E5FE7F28F5D9143481
:104430002946204602F0CEFE0028EED0204602F0AB
:10444000D9FE0128E9D93146204603F01BF800289F
:10445000E4DBE2E700BEFFFFF0B50C4687B00021C9
:1044600005461646FFF776FF002839D103A802F06B
:1044700007FE21466A6803A802F0E0FE044618B170
:1044800003A802F003FE0CE005F10804214603A88E
:1044900002F0F8FF002807DB03A802F0F7FD6FF039
:1044A0000304A4F5854418E005F1680303A96F68C7
:1044B0000846009305F11402234603F03EFB044630
:1044C0000028DDD13A46314603A802F0D8FE044662
:1044D00003A802F0DBFD002CE3D1204607B0F0BDBD
:1044E000004CFAE780BFFFFF234A2DE9F041B1F10C
:1044F000000818BF9646214A214918BF944602F188
:10450000794208BF8E4602F574021E4902F5016227
:1045100008BF8C461C4918BF11461C4A1C4F18BFC7
:1045200017461C4A1C4E18BF164602F1D14202F52E
:10453000C01202F51E62194D18BF1546184A0346EF
:10454000184C194818BF1446A2F11162A2F50C22AA
:10455000A2F28E2218BF02460020C3E902ECC3E992
:104560000000C3E90417C3E90665C3E90842C3F8BC
:104570006880BDE8F08100BFD89E05C107D57C36B4
:1045800067E6096A85AE67BB72F36E3C39590EF770
:104590003AF54FA5310BC0FF7F520E518C68059B39
:1045A000A78FF964ABD9831FA44FFABE2DE9F04F52
:1045B000D1B00DF58E7B5A46031D019300F1240303
:1045C0000393019B53F8040F42F8040F0398984299
:1045D000F8D1DDE948074FF000094F9B4CAD02933D
:1045E000DDE94AE30493424B06AA059395E82011BE
:1045F000B9F10F0F63D84C780B78240444EA0364B4
:10460000CB7823438C7843EA04234FEAF52A8CEADB
:104610000804059E8AEAB51A2C408AEA756A84EA7B
:104620000C04544456F804AB936054442344029C55
:104630004FEA703A234440EA070405968AEAB00A32
:1046400004EA0E0400EA07068AEAB05A34435444E6
:1046500009F10109DDF810A0B9F1400F9A4402F107
:104660000402234401F10401CDF808C0CDF810E0A4
:104670001ED1CDE90634CDE94E8CCDE94CA5CDE96E
:104680004A7ECDE94830019A52F8043F01925BF826
:10469000042F1344019A1360039B9342F3D106A89D
:1046A0004FF4947101F02EFA002051B0BDE8F08F64
:1046B000BE46C4460746A8461846554698E71368BE
:1046C00052F8384C4FEAF34A8AEA734A8AEA932A44
:1046D00052F8143C52F8346C234452F8344C53448E
:1046E0004FEAB44484EAF61484EAD60423448CE7FF
:1046F0003C8C00004FF47F03D3F83021D3F83431E1
:10470000072A05D1023B032B02D8024AD05C70472E
:10471000002070479D9D00004FF05023D3F858258E
:10472000034B02F00302D340024A1360704700BFFC
:104730000020A1073C20002008B5FFF7DBFF58B19F
:104740004F4BD3F8202A3AB90D21C3F8201A012182
:10475000C3F81C19C3F81C290022D30003F57F03FA
:10476000D3F80013013107D0D3F800130132D3F886
:104770000433202A0B60F0D1FFF7BCFF002876D16C
:10478000FFF7B8FF40B13F4B3F4AC3F830254FF029
:1047900050230122C3F858254FF47F03D3F830216A
:1047A000D3F83431072A09D1023B032B06D8374A04
:1047B000D35C1BB10022364BC3F84C25FFF79AFFA0
:1047C00050B14FF05023D3F80024D10742BF00224C
:1047D000C3F81421C3F818214FF47F03D3F8302114
:1047E000D3F83431072A09D14FF05023D3F80024ED
:1047F000D20744BF6FF00102C3F80024FFF77AFF2D
:1048000018B165221E4BC3F80C274FF47F03D3F871
:104810003021D3F83431072A16D11D4BD3F8203478
:10482000002B11DA4FF050230322C3F81825012280
:104830009A60D3F80421002AFBD00022C3F8042197
:104840000122DA60C3F81825124AD2F88C3043F4FA
:104850004063C2F88C30104A104B1168C3F84415FD
:10486000D269C3F84C25BDE80840FFF755BF29229F
:10487000034BC3F80C270322C3F83C2780E700BF93
:1048800000400050009003504400EFBE999D00008E
:104890000020035000ED00E00080FF0000600050A9
:1048A00070B501250268B2FA82F3C3F11F03DBB2CF
:1048B00005FA03F422EA0404D0E8EF6F964204D12B
:1048C000C0E8EC4FBCF1000FF6D1EBD101480B7002
:1048D00070BD00BF0000AD0B10B50368CB40DB0717
:1048E00010D401238B40026843EA0201D0E8EF4F65
:1048F000944204D1C0E8EC1FBCF1000FF6D1F2D114
:10490000014810BD0148FCE70000AD0B0400AD0BF1
:10491000044B1A7922B9012218601A7102487047B3
:1049200002487047542F00200000AD0B0C00AD0B67
:104930004FF0502310B5D3F8002152B10020C3F836
:104940000001D3F800210122C3F80823234B1B6880
:1049500098474FF05023D3F804218AB10022C3F8BE
:104960000421D3F80421D3F81824D3F8181402F042
:104970000302012A4FF0020128D1C3F818159A60EA
:104980004FF05023D3F8202162B10022C3F8202138
:10499000D3F820214FF48072C3F808230F4B042072
:1049A0001B6898474FF05023D3F82421AAB1002266
:1049B000C3F82421D3F824214FF40072C3F808234C
:1049C000064B0520BDE810401B681847C3F80813C4
:1049D000024B01201B689847D2E710BD542F0020DE
:1049E00001460148FFF75CBF40200020036803F048
:1049F0001F020260034A04485B09012B18BF1046DE
:104A0000704700BF0025845000288450034B0830B5
:104A100033F81000C0F34010704700BF442000205E
:104A200070B50D4C00F1080334F813300546DA0573
:104A30000E4607D5C3F3432304EBC302526854F870
:104A400033309847A3682BB131462846E268BDE869
:104A50007040184770BD00BF4420002010B4124AB7
:104A6000083032F81030D9051BD5C3F3432123F4A5
:104A7000F85322F81030002002F10E0434F8023FFF
:104A800013F4807F03D0C3F34323994209D001304C
:104A90003028F3D1002342F83130044810BCFFF72E
:104AA0001BBF10BC704700BF44200020B82000206E
:104AB00038B50246FFF7AAFF0B4C02F1080560B1BA
:104AC000002134F815305B0B9B0003F1A04303F584
:104AD0005043C3F81015C3F810151046FFF7BEFF7A
:104AE000002324F8153038BD442000202DE9FF4173
:104AF000044690461D4601B34F4E00F1080736F8B4
:104B000017309B0702D5FFF781FF28BB0023204603
:104B1000CDE900338DF80E308DF80F300DF10F0216
:104B20000B460DF10E0103F0F6FC36F8173023F0BA
:104B3000020343F0010326F81730B8F1000F2DD01F
:104B40003D4E04F1080736F8171098F800008A0760
:104B5000D8F8043002D5CBB1384821E021F020014B
:104B6000C904C90C26F8171083B10328F4D8D8F863
:104B7000043093F800C06246920002F1A04202F5B0
:104B8000504280B9C2F81005C2F8100536F8173047
:104B900023F01C0343EA800326F817301DBB284886
:104BA00004B0BDE8F081D2F8103541EA4C3123F071
:104BB0000303C2F81035D2F8103541F0200123F478
:104BC0004F3323F44073C2F810352302D2F810E5B6
:104BD00003F47C5343EA004343EA0E03C2F8103562
:104BE00026F81710D2E72046D5E90067FFF736FF11
:104BF000002ED4D0104DD5E90023964201D19F421A
:104C000018D010480DF10F01FFF74AFE0C4B9842E7
:104C1000C6D19DF80F2005EBC20308345F6035F85C
:104C2000143045F8326043EA422343F4807325F898
:104C30001430B4E70022EEE7442000200400AD0B5E
:104C40000000AD0BB8200020F0B50446154685B035
:104C500019B3344E00F1080736F81720930703D430
:104C6000FFF7D4FE00285AD112F01C0F02D04B7867
:104C7000012B54D001238DF80F3000234A1CCDE9BD
:104C8000001320468B1C0DF10F0103F044FC36F895
:104C9000173043F0030326F8173015B9224805B042
:104CA000F0BD204E04F1080736F81700830736D50B
:104CB00095F800C00023614620F02000890001F132
:104CC000A041C00401F55041C00CC1F8103526F8D0
:104CD0001700C1F810356A78002ADFD0D1F81035F6
:104CE000AD7823F4991323F4F853C1F81035D1F8B3
:104CF00010E5230203F47C53120402F4403243EA29
:104D00000E0313432A0502F4801240EA4C30134389
:104D100040F02000C1F8103526F81700BEE7034820
:104D2000BDE700BF442000200000AD0B0400AD0B28
:104D3000014BC3E9020170474420002008B5024638
:104D4000FFF764FE38B1054B083233F812300448DF
:104D50005B0B0B7008BD0348FCE700BF442000203C
:104D60000000AD0B0400AD0B38B50F4C94F8785033
:104D7000BDB96022294604F1100001F0F8FB0D20B6
:104D8000FDF77CF8094B0A48C3F87C51D3F87C2125
:104D90004FF00042C3F80423012384F8783063679E
:104DA00038BD0448FCE700BF4420002000D000507C
:104DB0000000AD0B0500AD0B034B93F878000038F5
:104DC00018BF0120704700BF442000200146014861
:104DD000FFF782BDB420002001460148FFF760BD07
:104DE000B420002037B50446FFF710FE1E4B04F137
:104DF000080233F81230E8B113F002051AD15B0B48
:104E00009A0002F1A04000F5514002F1A042056075
:104E100002F550420068D2F8100540F00100C2F8D7
:104E2000100529B1012202FA03F3104AC2F8043333
:104E300003B030BDC3F38203042B11D0052B11D076
:104E400001A80194FFF7D2FD019B0169D94001F04F
:104E500001010231204603B0BDE8304003F0A4BB9D
:104E60000321F7E70221F5E74420002000D000509D
:104E700008B50246FFF7CAFDC0B10F4B02F10801A9
:104E800033F81130990711D401225B0B9A400B497A
:104E90009B0003F1A043C1F8082303F55043D3F866
:104EA000102522F00302C3F8102508BD0021BDE83B
:104EB0000840104603F078BB4420002000D000508A
:104EC00013B5104B00F1080233F812300446DB072B
:104ED00016D5FFF7CDFF2046FFF7EAFD01A80194A4
:104EE000FFF784FD019B00EB8300D0F8003203F054
:104EF000E04343F00203C0F80032034802B010BDA3
:104F00000248FBE7442000200000AD0B0400AD0B7D
:104F10002DE9F04F002601223446634B6348644973
:104F200087B01D6835B1D0F8045315421EBF1C6010
:104F30001D68164304338B424FEA4202F1D1DFF879
:104F40006CA1DAF87C31002B00F09180DFF86481ED
:104F5000D8F820300493C8F82030574B1A6A0592CD
:104F60001A624FF000090DF1100B4FEA491300933C
:104F700048E094FAA4F4B4FA84F4009B4F4A1C4429
:104F800004F1080332F813700123E00804F007026B
:104F900003FA02F21BF80030039423EA02030BF831
:104FA000003003A8FFF722FD039BB908803350F8B7
:104FB0002330C7F382054A072F46C3F301432BD59D
:104FC00020463946DDB2FFF72BFD03A80394FFF717
:104FD0000DFD039B803350F82330C3F301439D4202
:104FE00007D10021204603F0DFFA2946204603F0CE
:104FF000DBFA03A80394FFF7F9FC0122039B02FAF2
:1050000003F303625BF82940002CB2D1B9F1000F21
:105010001DD14FF00109A8E7022B0CD10321204636
:1050200003F0C2FA05F00503012BE2D13946204610
:10503000FFF7F6FCDDE702212046019303F0B4FA06
:10504000032DF3D0019B032BD3D1022DEDE7CAF83A
:105050007C41DAF87C31D8F8203017490493C8F83D
:1050600020300A6A134305920A627FF47AAF012462
:1050700016B907B0BDE8F08F96FAA6F3B3FA83F33A
:1050800004FA03F29B0003F1A04303F55043D3F865
:105090001005D3F81015C0F30520C1F3014126EA2D
:1050A0000206FFF7BDFCE3E700D1005000D000503E
:1050B00020D1005000258450002884504420002036
:1050C0000022034BC3F88425C3F80425704700BFB2
:1050D00000900350044AD2F80034DB07FBD501608E
:1050E000BFF35F8F704700BF0090035008B5C0F357
:1050F0000B0383B90222094BC3F88425C3F80425A6
:105100004FF0FF320260D3F80024D207FBD5FFF73F
:10511000D7FF034808BD0348FCE700BF00900350D9
:105120000000AD0B0A00AD0B012208B5054BC3F81A
:105130008425C3F80425FFF7CDFFBDE80840FFF73D
:10514000BFBF00BF0090035070B500F06044B4F1E1
:10515000005F68D1840766D1354D95F83040012C49
:1051600001D09C4261D12C6804BB022B314B0BBF98
:10517000C3F81025C3F80425C3F81405C3F80805BF
:105180000BBFC3F81815C3F80C1508220422002120
:10519000C3F8001102F1A043012203F52C331A6079
:1051A000244AD2F80031002BFBD00DE0AE68214C30
:1051B00066B1022BE8606961EA612DD1C4F810255F
:1051C000C4F81405C4F818151B4870BD022B85F8E7
:1051D00030302961AA61A8600CBFC4F81025C4F85A
:1051E00004254FF000020BBFC4F81405C4F80805ED
:1051F000C4F81815C4F80C1508BF08230D4918BFCA
:105200000423C1F80021012203F1A04303F52C334C
:10521000C1F804231A60D7E7C4F80425C4F80805C8
:10522000C4F80C15D0E70548CFE70548CDE700BF27
:105230005C2F002000B002500000AD0B0A00AD0B47
:105240000B00AD0B38B56424064DD5F8003133B9E9
:105250000A2003F028F8013CF7D1034838BD034881
:10526000FCE700BF00B002500700AD0B0000AD0B23
:10527000084B9A685A621A699A629A69DA62DA681D
:105280009A6032B15A691A61DA699A610022DA6069
:10529000704770475C2F002010B50A4A0A4C00F096
:1052A0001F034009012818BF224602EB8302D2F8EF
:1052B000003203F0E04343EA012343F00203C2F863
:1052C000003210BD002884500025845010B50E4BCC
:1052D0000238D3F83C26D3F83836072813D8DFE84D
:1052E00000F0110F0D0B0A080604100EC871100C07
:1052F0008871100A48710A711A0ECA701A0C8A70E5
:105300001A0A4A700B7010BD00B00250023807280C
:105310001FD8DFE800F02927251123211F04CB79AE
:105320001B068A7943EA02434A7943EA02230A794F
:1053300013430E4AC2F83C36CB781B068A7843EA00
:1053400002434A7843EA02230A781343074AC2F821
:10535000383670470023E4E70023E5E70023E6E75B
:105360000023EBE70023ECE70023EDE700B0025059
:10537000F8B5674F044697F830300D461646002BB7
:1053800040F0C280C27C12B1037D002B6CD1207929
:10539000FF2800F0BB806379FF2B00F0B780A37972
:1053A000FF2B00F0B380E179FF2900F0AF80636844
:1053B000DFF860C123F07F43634540F0A7800E29EA
:1053C00040F0A480237AFF2B02D00F2B40F09E8068
:1053D000637AFF2B02D0102B40F09880B2B90321E2
:1053E000FFF75AFF6079FFF757FFA079FFF754FFE7
:1053F000E079FFF751FF207AFF2801D0FFF74CFF3B
:10540000607AFF2802D00321FFF746FF237D5BBBB4
:105410002379FF2B14BF1A464FF0FF323E4BC3F8DF
:1054200024256279FF2A08BF4FF0FF32C3F82825F0
:10543000A279FF2A08BF4FF0FF32C3F83025E27986
:10544000FF2A08BF4FF0FF32C3F83425227AFF2A23
:1054500008BF4FF0FF32C3F83825627AFF2A08BF31
:105460004FF0FF32C3F83C2523682B4AC2F8403581
:10547000237BE07AA17A9B0143EAC0030B43617B63
:1054800043EAC113C2F84435617CD2F84435B1BB5C
:1054900043F44033C2F844354FF4C063C2F8403699
:1054A000D2F80016A37B21F07F4121F0FF010B43CE
:1054B000E17B43EA0163217C43EA4163617C43EA87
:1054C0000173C2F80036E37CC7E9005687F8313033
:1054D0000123C2F8083315B12B20FCF7CFFC0021C3
:1054E0000122C7E902110C4B87F83020C3F80025D0
:1054F000C3F800111A60BDE8F840FFF7A3BE23F41B
:10550000003343F48033C5E70448F8BD0448FCE7A2
:105510005C2F002011120D0000B002500500AD0BF1
:105520000400AD0B70B51446194A054692F83020B8
:10553000012A2BD10022174EC6F8002111B1407864
:10554000FFF7E4FE0123C6F80833AB786A781B0343
:1055500043EA02232A781343EA7843EA42332A795A
:1055600043EA82336A7943EAC233C6F83436FFF736
:1055700069FE094B984208D00023C6F800311CB1DF
:1055800021466878FFF7A2FE044870BD0448FCE796
:105590005C2F002000B002500700AD0B0000AD0BE7
:1055A0000B00AD0B1FB500230C4A02A802920DF1AF
:1055B000070211468DF80730ADF80C30FFF7B2FF47
:1055C000074B984206D19DF8073013F0010F054BA9
:1055D00018BF184605B05DF804FB00BF05020001C6
:1055E0000000AD0B0B00AD0B2DE9F8432B20FCF7B1
:1055F00053FC214B214ED3F8342602F44032B2F54D
:10560000803F04BF1E4AC3F834260122C3F8082392
:105610001A610022C3F80025C3F8002196F8312052
:1056200022BBD3F82405D3F82895C0B2D3F830852F
:10563000D3F83475D3F83855D3F83C4502F0CCFF95
:105640005FFA89F002F0C8FF5FFA88F002F0C4FF49
:10565000F8B202F0C1FFE8B2FF28E4B201D002F0D4
:10566000BBFFFF2C02D0204602F0B6FF002386F8D5
:105670003030BDE8F88300BF00B002505C2F00203E
:10568000000103008B0721D1124A13681BB192F865
:105690003030012B1CD1042382F830300E4BC3F87C
:1056A0001C150021C3F82005C3F800110121D960A1
:1056B000106840B9D3F800110029FBD0012382F80B
:1056C000303006487047C3F80413FAE704487047BF
:1056D000044870475C2F002000B002500000AD0B62
:1056E0000A00AD0B0B00AD0B10B5174BD3F8002122
:1056F000E2B10022154CC3F8002194F83020032AAF
:1057000015D0042A15D0022A04D1012384F82030B0
:10571000FFF7AEFDA36813B9012384F83030D4E954
:10572000003100209847002384F8203010BD022368
:10573000ECE7032284F82020D3F81C256262D3F81A
:10574000203584F82830E5E700B002505C2F0020B7
:1057500073B504460D464FF02003EFF3118683F333
:105760001288BFF36F8F0022042896BF114B124B93
:1057700053F82030009245210246104800F025FEE3
:105780003DB1EB69C3F308031BB145210C4800F0A0
:105790001CFE00220B4B45210B4800F016FE29464B
:1057A0002046FEF7C7FA86F31188BFF36F8F02B069
:1057B00070BD00BF3C8D0000CB9D0000D99D000056
:1057C000069E00002C9E0000349E00000F4B70B51A
:1057D00053F82040013053F82060A64200D870BD35
:1057E000D4E90035284698476DB138B10028B8BFD4
:1057F0004042FF28A8BFFF20EB681870EA68537882
:1058000043F0010353700834E7E700BF508D0000F8
:10581000012208B5084B03201A70FFF7D7FF00F0EC
:1058200013F90420FFF7D2FFFAF7FCFD034A137BBC
:1058300023F00103137308BDB54800205821002050
:1058400008B50348034A0021121A02F0DEFE08BD23
:1058500038210020B848002008B50020FFF7B6FF27
:10586000184B03F5006282F3088883F30A88002549
:10587000E023154C84F82230E57725766576A57609
:1058800084F82050636A43F4E023636284F8235071
:10589000FCF77EFDFCF798FA4FF0FF33A362E3625A
:1058A000FCF738FFFCF710FE02F0A3FE0120FFF723
:1058B0008DFF0220FFF78AFF2B462A462946034820
:1058C000FCF752FBB848002000ED00E01158000042
:1058D00008B50648064A0749121A02F098FEBDE8C4
:1058E0000840054A0549064802F091BE0020002004
:1058F00034210020CC9E000000000000CC9E00005F
:1059000000200020034B1B680BB9FEF72BB90020C9
:10591000704700BF902F002010B50E4B1C689C42B2
:1059200004D1FFF7EFFF6FF0004010BDFFF7EAFF73
:10593000002CF8D0D4E904321B1A62EBE072B3F108
:10594000004F72F10001EEDA002AACBF18460020C9
:10595000EBE700BFC020002030B570B10B4B5B6897
:1059600098420AD0036843B1D3E90421D0E9044541
:10597000121941EB0501C3E90421D0E9003213609B
:105980005A600023C0E9003330BD00BFC0200020B2
:105990002DE9F84303464FF02002EFF3118482F320
:1059A0001288BFF36F8F254FDFF89490D9F800006D
:1059B000DFF890C048453B604FEAE375DCE9001E24
:1059C0000CD058B1D0E90486434575EB060217DACE
:1059D000B8EB030266EB0506C0E9042659184EEB46
:1059E0000505CCE9001500253D60FFF795FF294628
:1059F000FEF786F884F31188BFF36F8FBDE8F88354
:105A000018EB01014EEBE8730022CCE900130023F0
:105A1000C0E90423FFF7A0FF84F31188BFF36F8F61
:105A2000836898474FF02003EFF3118483F31288C3
:105A3000BFF36F8F3B68A3EB0803B7E7902F0020FD
:105A4000C0200020D8210020014800F0D7BB00BFB3
:105A50009E9E000010B50A4C23681BB10123002054
:105A6000236010BD00F058F80028F7D0013807284F
:105A700003D8044B53F8200010BD034810BD00BFED
:105A8000942F0020688D0000FE8FFFFFBFF34F8F23
:105A90000549064BCA6802F4E0621343CB60BFF3CA
:105AA0004F8F00BFFDE700BF00ED00E00400FA05E6
:105AB00030B44FF0FE3200250B4B0C4C0C494968BA
:105AC000C3F80024C3F80424C3F80824C3F80C2442
:105AD000C3F81024C3F81424C3F81824C3F81C24F2
